{
  "contractName": "WarcraftZones",
  "abi": [
    {
      "constant": true,
      "inputs": [
        {
          "name": "",
          "type": "address"
        }
      ],
      "name": "characterCount",
      "outputs": [
        {
          "name": "",
          "type": "uint256"
        }
      ],
      "payable": false,
      "stateMutability": "view",
      "type": "function"
    },
    {
      "constant": true,
      "inputs": [],
      "name": "name",
      "outputs": [
        {
          "name": "",
          "type": "string"
        }
      ],
      "payable": false,
      "stateMutability": "view",
      "type": "function"
    },
    {
      "constant": false,
      "inputs": [
        {
          "name": "_spender",
          "type": "address"
        },
        {
          "name": "_value",
          "type": "uint256"
        }
      ],
      "name": "approve",
      "outputs": [
        {
          "name": "success",
          "type": "bool"
        }
      ],
      "payable": false,
      "stateMutability": "nonpayable",
      "type": "function"
    },
    {
      "constant": false,
      "inputs": [
        {
          "name": "_newCost",
          "type": "uint256"
        }
      ],
      "name": "changeNewRandomCharacterCost",
      "outputs": [],
      "payable": false,
      "stateMutability": "nonpayable",
      "type": "function"
    },
    {
      "constant": false,
      "inputs": [
        {
          "name": "_name",
          "type": "string"
        },
        {
          "name": "_faction",
          "type": "bool"
        }
      ],
      "name": "createNewRandomCharacter",
      "outputs": [
        {
          "name": "_id",
          "type": "uint256"
        }
      ],
      "payable": false,
      "stateMutability": "nonpayable",
      "type": "function"
    },
    {
      "constant": true,
      "inputs": [],
      "name": "totalSupply",
      "outputs": [
        {
          "name": "",
          "type": "uint256"
        }
      ],
      "payable": false,
      "stateMutability": "view",
      "type": "function"
    },
    {
      "constant": true,
      "inputs": [
        {
          "name": "",
          "type": "uint256"
        }
      ],
      "name": "characterToOwner",
      "outputs": [
        {
          "name": "",
          "type": "address"
        }
      ],
      "payable": false,
      "stateMutability": "view",
      "type": "function"
    },
    {
      "constant": true,
      "inputs": [],
      "name": "zoneDowntime",
      "outputs": [
        {
          "name": "",
          "type": "uint256"
        }
      ],
      "payable": false,
      "stateMutability": "view",
      "type": "function"
    },
    {
      "constant": false,
      "inputs": [
        {
          "name": "_from",
          "type": "address"
        },
        {
          "name": "_to",
          "type": "address"
        },
        {
          "name": "_value",
          "type": "uint256"
        }
      ],
      "name": "transferFrom",
      "outputs": [
        {
          "name": "success",
          "type": "bool"
        }
      ],
      "payable": false,
      "stateMutability": "nonpayable",
      "type": "function"
    },
    {
      "constant": true,
      "inputs": [
        {
          "name": "",
          "type": "address"
        }
      ],
      "name": "balances",
      "outputs": [
        {
          "name": "",
          "type": "uint256"
        }
      ],
      "payable": false,
      "stateMutability": "view",
      "type": "function"
    },
    {
      "constant": true,
      "inputs": [],
      "name": "decimals",
      "outputs": [
        {
          "name": "",
          "type": "uint8"
        }
      ],
      "payable": false,
      "stateMutability": "view",
      "type": "function"
    },
    {
      "constant": true,
      "inputs": [],
      "name": "baseExp",
      "outputs": [
        {
          "name": "",
          "type": "uint256"
        }
      ],
      "payable": false,
      "stateMutability": "view",
      "type": "function"
    },
    {
      "constant": false,
      "inputs": [],
      "name": "unpause",
      "outputs": [],
      "payable": false,
      "stateMutability": "nonpayable",
      "type": "function"
    },
    {
      "constant": false,
      "inputs": [],
      "name": "kill",
      "outputs": [],
      "payable": false,
      "stateMutability": "nonpayable",
      "type": "function"
    },
    {
      "constant": true,
      "inputs": [
        {
          "name": "",
          "type": "uint256"
        }
      ],
      "name": "characters",
      "outputs": [
        {
          "name": "name",
          "type": "string"
        },
        {
          "name": "dna",
          "type": "uint256"
        },
        {
          "name": "lvl",
          "type": "uint8"
        },
        {
          "name": "exp",
          "type": "uint256"
        },
        {
          "name": "ready",
          "type": "uint256"
        },
        {
          "name": "toNextLvl",
          "type": "uint256"
        }
      ],
      "payable": false,
      "stateMutability": "view",
      "type": "function"
    },
    {
      "constant": false,
      "inputs": [
        {
          "name": "_name",
          "type": "string"
        },
        {
          "name": "_faction",
          "type": "bool"
        }
      ],
      "name": "createAccount",
      "outputs": [
        {
          "name": "_id",
          "type": "uint256"
        }
      ],
      "payable": false,
      "stateMutability": "nonpayable",
      "type": "function"
    },
    {
      "constant": true,
      "inputs": [
        {
          "name": "",
          "type": "address"
        },
        {
          "name": "",
          "type": "address"
        }
      ],
      "name": "allowed",
      "outputs": [
        {
          "name": "",
          "type": "uint256"
        }
      ],
      "payable": false,
      "stateMutability": "view",
      "type": "function"
    },
    {
      "constant": true,
      "inputs": [],
      "name": "paused",
      "outputs": [
        {
          "name": "",
          "type": "bool"
        }
      ],
      "payable": false,
      "stateMutability": "view",
      "type": "function"
    },
    {
      "constant": true,
      "inputs": [],
      "name": "randNonce",
      "outputs": [
        {
          "name": "",
          "type": "uint256"
        }
      ],
      "payable": false,
      "stateMutability": "view",
      "type": "function"
    },
    {
      "constant": false,
      "inputs": [],
      "name": "getCharacterCount",
      "outputs": [
        {
          "name": "",
          "type": "uint256"
        }
      ],
      "payable": false,
      "stateMutability": "nonpayable",
      "type": "function"
    },
    {
      "constant": false,
      "inputs": [
        {
          "name": "_newMaxLevel",
          "type": "uint8"
        }
      ],
      "name": "changeMaxLevel",
      "outputs": [],
      "payable": false,
      "stateMutability": "nonpayable",
      "type": "function"
    },
    {
      "constant": true,
      "inputs": [
        {
          "name": "_owner",
          "type": "address"
        }
      ],
      "name": "balanceOf",
      "outputs": [
        {
          "name": "balance",
          "type": "uint256"
        }
      ],
      "payable": false,
      "stateMutability": "view",
      "type": "function"
    },
    {
      "constant": false,
      "inputs": [],
      "name": "renounceOwnership",
      "outputs": [],
      "payable": false,
      "stateMutability": "nonpayable",
      "type": "function"
    },
    {
      "constant": false,
      "inputs": [],
      "name": "pause",
      "outputs": [],
      "payable": false,
      "stateMutability": "nonpayable",
      "type": "function"
    },
    {
      "constant": true,
      "inputs": [],
      "name": "owner",
      "outputs": [
        {
          "name": "",
          "type": "address"
        }
      ],
      "payable": false,
      "stateMutability": "view",
      "type": "function"
    },
    {
      "constant": true,
      "inputs": [],
      "name": "symbol",
      "outputs": [
        {
          "name": "",
          "type": "string"
        }
      ],
      "payable": false,
      "stateMutability": "view",
      "type": "function"
    },
    {
      "constant": true,
      "inputs": [
        {
          "name": "_address",
          "type": "address"
        }
      ],
      "name": "getBalanceOf",
      "outputs": [
        {
          "name": "",
          "type": "uint256"
        }
      ],
      "payable": false,
      "stateMutability": "view",
      "type": "function"
    },
    {
      "constant": false,
      "inputs": [
        {
          "name": "_to",
          "type": "address"
        },
        {
          "name": "_value",
          "type": "uint256"
        }
      ],
      "name": "transfer",
      "outputs": [
        {
          "name": "success",
          "type": "bool"
        }
      ],
      "payable": false,
      "stateMutability": "nonpayable",
      "type": "function"
    },
    {
      "constant": true,
      "inputs": [
        {
          "name": "_owner",
          "type": "address"
        }
      ],
      "name": "getCharacters",
      "outputs": [
        {
          "name": "",
          "type": "uint256[]"
        }
      ],
      "payable": false,
      "stateMutability": "view",
      "type": "function"
    },
    {
      "constant": true,
      "inputs": [],
      "name": "maxLevel",
      "outputs": [
        {
          "name": "",
          "type": "uint256"
        }
      ],
      "payable": false,
      "stateMutability": "view",
      "type": "function"
    },
    {
      "constant": true,
      "inputs": [
        {
          "name": "_id",
          "type": "uint256"
        }
      ],
      "name": "getCharacter",
      "outputs": [
        {
          "name": "id",
          "type": "uint256"
        },
        {
          "name": "name",
          "type": "string"
        },
        {
          "name": "dna",
          "type": "uint256"
        },
        {
          "name": "lvl",
          "type": "uint256"
        },
        {
          "name": "exp",
          "type": "uint256"
        },
        {
          "name": "toNextLvl",
          "type": "uint256"
        },
        {
          "name": "ready",
          "type": "uint256"
        }
      ],
      "payable": false,
      "stateMutability": "view",
      "type": "function"
    },
    {
      "constant": true,
      "inputs": [
        {
          "name": "_owner",
          "type": "address"
        },
        {
          "name": "_spender",
          "type": "address"
        }
      ],
      "name": "allowance",
      "outputs": [
        {
          "name": "remaining",
          "type": "uint256"
        }
      ],
      "payable": false,
      "stateMutability": "view",
      "type": "function"
    },
    {
      "constant": false,
      "inputs": [
        {
          "name": "_value",
          "type": "uint256"
        }
      ],
      "name": "purchase",
      "outputs": [
        {
          "name": "",
          "type": "bool"
        }
      ],
      "payable": false,
      "stateMutability": "nonpayable",
      "type": "function"
    },
    {
      "constant": false,
      "inputs": [
        {
          "name": "_newOwner",
          "type": "address"
        }
      ],
      "name": "transferOwnership",
      "outputs": [],
      "payable": false,
      "stateMutability": "nonpayable",
      "type": "function"
    },
    {
      "constant": true,
      "inputs": [],
      "name": "newRandomCharacterCost",
      "outputs": [
        {
          "name": "",
          "type": "uint256"
        }
      ],
      "payable": false,
      "stateMutability": "view",
      "type": "function"
    },
    {
      "inputs": [],
      "payable": false,
      "stateMutability": "nonpayable",
      "type": "constructor"
    },
    {
      "anonymous": false,
      "inputs": [
        {
          "indexed": false,
          "name": "_success",
          "type": "bool"
        },
        {
          "indexed": false,
          "name": "_charId",
          "type": "uint256"
        },
        {
          "indexed": false,
          "name": "_questId",
          "type": "uint256"
        }
      ],
      "name": "questDone",
      "type": "event"
    },
    {
      "anonymous": false,
      "inputs": [
        {
          "indexed": false,
          "name": "_address",
          "type": "address"
        },
        {
          "indexed": false,
          "name": "_charId",
          "type": "uint256"
        },
        {
          "indexed": false,
          "name": "_name",
          "type": "string"
        },
        {
          "indexed": false,
          "name": "_dna",
          "type": "uint256"
        }
      ],
      "name": "characterCreated",
      "type": "event"
    },
    {
      "anonymous": false,
      "inputs": [],
      "name": "Pause",
      "type": "event"
    },
    {
      "anonymous": false,
      "inputs": [],
      "name": "Unpause",
      "type": "event"
    },
    {
      "anonymous": false,
      "inputs": [
        {
          "indexed": true,
          "name": "previousOwner",
          "type": "address"
        }
      ],
      "name": "OwnershipRenounced",
      "type": "event"
    },
    {
      "anonymous": false,
      "inputs": [
        {
          "indexed": true,
          "name": "previousOwner",
          "type": "address"
        },
        {
          "indexed": true,
          "name": "newOwner",
          "type": "address"
        }
      ],
      "name": "OwnershipTransferred",
      "type": "event"
    },
    {
      "anonymous": false,
      "inputs": [
        {
          "indexed": true,
          "name": "_from",
          "type": "address"
        },
        {
          "indexed": true,
          "name": "_to",
          "type": "address"
        },
        {
          "indexed": false,
          "name": "_value",
          "type": "uint256"
        }
      ],
      "name": "Transfer",
      "type": "event"
    },
    {
      "anonymous": false,
      "inputs": [
        {
          "indexed": true,
          "name": "_owner",
          "type": "address"
        },
        {
          "indexed": true,
          "name": "_spender",
          "type": "address"
        },
        {
          "indexed": false,
          "name": "_value",
          "type": "uint256"
        }
      ],
      "name": "Approval",
      "type": "event"
    },
    {
      "constant": false,
      "inputs": [
        {
          "name": "_charId",
          "type": "uint256"
        },
        {
          "name": "_zoneId",
          "type": "uint256"
        }
      ],
      "name": "questing",
      "outputs": [
        {
          "name": "",
          "type": "bool"
        }
      ],
      "payable": false,
      "stateMutability": "nonpayable",
      "type": "function"
    },
    {
      "constant": true,
      "inputs": [
        {
          "name": "_id",
          "type": "uint256"
        }
      ],
      "name": "getZone",
      "outputs": [
        {
          "name": "id",
          "type": "uint256"
        },
        {
          "name": "name",
          "type": "string"
        },
        {
          "name": "lvlReq",
          "type": "uint256"
        },
        {
          "name": "successRate",
          "type": "uint256"
        },
        {
          "name": "exp",
          "type": "uint256"
        },
        {
          "name": "continent",
          "type": "uint256"
        },
        {
          "name": "currencyReward",
          "type": "uint256"
        }
      ],
      "payable": false,
      "stateMutability": "view",
      "type": "function"
    },
    {
      "constant": true,
      "inputs": [],
      "name": "getZoneCount",
      "outputs": [
        {
          "name": "length",
          "type": "uint256"
        }
      ],
      "payable": false,
      "stateMutability": "view",
      "type": "function"
    },
    {
      "constant": false,
      "inputs": [
        {
          "name": "_name",
          "type": "string"
        },
        {
          "name": "_lvlReq",
          "type": "uint8"
        },
        {
          "name": "_successRate",
          "type": "uint8"
        },
        {
          "name": "_exp",
          "type": "uint64"
        },
        {
          "name": "_continent",
          "type": "uint8"
        },
        {
          "name": "_currencyReward",
          "type": "uint64"
        }
      ],
      "name": "addNewZone",
      "outputs": [],
      "payable": false,
      "stateMutability": "nonpayable",
      "type": "function"
    },
    {
      "constant": false,
      "inputs": [
        {
          "name": "_newZoneDowntime",
          "type": "uint256"
        }
      ],
      "name": "changeZoneDowntime",
      "outputs": [],
      "payable": false,
      "stateMutability": "nonpayable",
      "type": "function"
    }
  ],
  "bytecode": "0x60806040526000600660146101000a81548160ff0219169083151502179055506004600755606460085560326009556000600a556014600b556002600c55603c6011553480156200004f57600080fd5b506509184e72a0006040805190810160405280600c81526020017f5761726372616674436f696e000000000000000000000000000000000000000081525060126040805190810160405280600381526020017f574343000000000000000000000000000000000000000000000000000000000081525083600160003373ffffffffffffffffffffffffffffffffffffffff1673ffffffffffffffffffffffffffffffffffffffff168152602001908152602001600020819055508360008190555082600390805190602001906200012892919062000e52565b5081600460006101000a81548160ff021916908360ff16021790555080600590805190602001906200015c92919062000e52565b505050505033600660006101000a81548173ffffffffffffffffffffffffffffffffffffffff021916908373ffffffffffffffffffffffffffffffffffffffff160217905550601060c0604051908101604052806040805190810160405280600781526020017f4475726f746172000000000000000000000000000000000000000000000000008152508152602001600160ff168152602001606460ff168152602001606467ffffffffffffffff168152602001600060ff168152602001600167ffffffffffffffff168152509080600181540180825580915050906001820390600052602060002090600202016000909192909190915060008201518160000190805190602001906200027292919062000ed9565b5060208201518160010160006101000a81548160ff021916908360ff16021790555060408201518160010160016101000a81548160ff021916908360ff16021790555060608201518160010160026101000a81548167ffffffffffffffff021916908367ffffffffffffffff160217905550608082015181600101600a6101000a81548160ff021916908360ff16021790555060a082015181600101600b6101000a81548167ffffffffffffffff021916908367ffffffffffffffff160217905550505050601060c0604051908101604052806040805190810160405280600d81526020017f456c77796e6e20466f72657374000000000000000000000000000000000000008152508152602001600160ff168152602001606460ff168152602001606467ffffffffffffffff168152602001600160ff168152602001600167ffffffffffffffff168152509080600181540180825580915050906001820390600052602060002090600202016000909192909190915060008201518160000190805190602001906200040792919062000ed9565b5060208201518160010160006101000a81548160ff021916908360ff16021790555060408201518160010160016101000a81548160ff021916908360ff16021790555060608201518160010160026101000a81548167ffffffffffffffff021916908367ffffffffffffffff160217905550608082015181600101600a6101000a81548160ff021916908360ff16021790555060a082015181600101600b6101000a81548167ffffffffffffffff021916908367ffffffffffffffff160217905550505050601060c0604051908101604052806040805190810160405280600781526020017f42617272656e73000000000000000000000000000000000000000000000000008152508152602001600560ff168152602001605a60ff168152602001608c67ffffffffffffffff168152602001600060ff168152602001600267ffffffffffffffff168152509080600181540180825580915050906001820390600052602060002090600202016000909192909190915060008201518160000190805190602001906200059c92919062000ed9565b5060208201518160010160006101000a81548160ff021916908360ff16021790555060408201518160010160016101000a81548160ff021916908360ff16021790555060608201518160010160026101000a81548167ffffffffffffffff021916908367ffffffffffffffff160217905550608082015181600101600a6101000a81548160ff021916908360ff16021790555060a082015181600101600b6101000a81548167ffffffffffffffff021916908367ffffffffffffffff160217905550505050601060c0604051908101604052806040805190810160405280600a81526020017f4c6f6368204d6f64616e000000000000000000000000000000000000000000008152508152602001600560ff168152602001605a60ff168152602001608c67ffffffffffffffff168152602001600160ff168152602001600267ffffffffffffffff168152509080600181540180825580915050906001820390600052602060002090600202016000909192909190915060008201518160000190805190602001906200073192919062000ed9565b5060208201518160010160006101000a81548160ff021916908360ff16021790555060408201518160010160016101000a81548160ff021916908360ff16021790555060608201518160010160026101000a81548167ffffffffffffffff021916908367ffffffffffffffff160217905550608082015181600101600a6101000a81548160ff021916908360ff16021790555060a082015181600101600b6101000a81548167ffffffffffffffff021916908367ffffffffffffffff160217905550505050601060c0604051908101604052806040805190810160405280601481526020017f53746f6e6574616c6f6e204d6f756e7461696e730000000000000000000000008152508152602001600a60ff168152602001605060ff16815260200160dc67ffffffffffffffff168152602001600060ff168152602001600367ffffffffffffffff16815250908060018154018082558091505090600182039060005260206000209060020201600090919290919091506000820151816000019080519060200190620008c692919062000ed9565b5060208201518160010160006101000a81548160ff021916908360ff16021790555060408201518160010160016101000a81548160ff021916908360ff16021790555060608201518160010160026101000a81548167ffffffffffffffff021916908367ffffffffffffffff160217905550608082015181600101600a6101000a81548160ff021916908360ff16021790555060a082015181600101600b6101000a81548167ffffffffffffffff021916908367ffffffffffffffff160217905550505050601060c0604051908101604052806040805190810160405280601281526020017f5265647269646765204d6f756e7461696e7300000000000000000000000000008152508152602001600a60ff168152602001605060ff16815260200160dc67ffffffffffffffff168152602001600160ff168152602001600367ffffffffffffffff1681525090806001815401808255809150509060018203906000526020600020906002020160009091929091909150600082015181600001908051906020019062000a5b92919062000ed9565b5060208201518160010160006101000a81548160ff021916908360ff16021790555060408201518160010160016101000a81548160ff021916908360ff16021790555060608201518160010160026101000a81548167ffffffffffffffff021916908367ffffffffffffffff160217905550608082015181600101600a6101000a81548160ff021916908360ff16021790555060a082015181600101600b6101000a81548167ffffffffffffffff021916908367ffffffffffffffff160217905550505050601060c0604051908101604052806040805190810160405280600981526020017f417368656e76616c6500000000000000000000000000000000000000000000008152508152602001600f60ff168152602001603c60ff1681526020016101f467ffffffffffffffff168152602001600060ff168152602001600467ffffffffffffffff1681525090806001815401808255809150509060018203906000526020600020906002020160009091929091909150600082015181600001908051906020019062000bf192919062000ed9565b5060208201518160010160006101000a81548160ff021916908360ff16021790555060408201518160010160016101000a81548160ff021916908360ff16021790555060608201518160010160026101000a81548167ffffffffffffffff021916908367ffffffffffffffff160217905550608082015181600101600a6101000a81548160ff021916908360ff16021790555060a082015181600101600b6101000a81548167ffffffffffffffff021916908367ffffffffffffffff160217905550505050601060c0604051908101604052806040805190810160405280600881526020017f4475736b776f6f640000000000000000000000000000000000000000000000008152508152602001600f60ff168152602001603c60ff1681526020016101f467ffffffffffffffff168152602001600160ff168152602001600467ffffffffffffffff1681525090806001815401808255809150509060018203906000526020600020906002020160009091929091909150600082015181600001908051906020019062000d8792919062000ed9565b5060208201518160010160006101000a81548160ff021916908360ff16021790555060408201518160010160016101000a81548160ff021916908360ff16021790555060608201518160010160026101000a81548167ffffffffffffffff021916908367ffffffffffffffff160217905550608082015181600101600a6101000a81548160ff021916908360ff16021790555060a082015181600101600b6101000a81548167ffffffffffffffff021916908367ffffffffffffffff16021790555050505062000f88565b828054600181600116156101000203166002900490600052602060002090601f016020900481019282601f1062000e9557805160ff191683800117855562000ec6565b8280016001018555821562000ec6579182015b8281111562000ec557825182559160200191906001019062000ea8565b5b50905062000ed5919062000f60565b5090565b828054600181600116156101000203166002900490600052602060002090601f016020900481019282601f1062000f1c57805160ff191683800117855562000f4d565b8280016001018555821562000f4d579182015b8281111562000f4c57825182559160200191906001019062000f2f565b5b50905062000f5c919062000f60565b5090565b62000f8591905b8082111562000f8157600081600090555060010162000f67565b5090565b90565b613b988062000f986000396000f3006080604052600436106101ee576000357c0100000000000000000000000000000000000000000000000000000000900463ffffffff168063014ef0c6146101f357806306fdde031461024a578063095ea7b3146102da57806311ee0ec51461033f57806313a3d0571461040f57806317ffb7361461043c57806318160ddd146104c557806319e7ce8b146104f0578063211b41b71461055d57806323b872dd1461058857806327e235e31461060d578063313ce5671461066457806335efed4d146106955780633b260aa2146106c05780633f4ba83a146106eb57806341c0e1b5146107025780634810bc59146107195780634c572d18146107e85780635c658165146108715780635c975abb146108e857806361e013561461091757806365df8ce7146109425780636d322b4e1461096d5780636ed5517f1461099a57806370a08231146109ca578063715018a614610a215780638456cb5914610a385780638da5cb5b14610a4f57806395d89b4114610aa65780639b96eece14610b36578063a73e1c7314610b8d578063a9059cbb14610bdc578063ad127c8a14610c41578063cc06c35914610cd9578063d83a0fe114610d04578063dabb053114610dbc578063dd62ed3e14610e8c578063efef39a114610f03578063f2fde38b14610f48578063fc7c9bfb14610f8b575b600080fd5b3480156101ff57600080fd5b50610234600480360381019080803573ffffffffffffffffffffffffffffffffffffffff169060200190929190505050610fb6565b6040518082815260200191505060405180910390f35b34801561025657600080fd5b5061025f610fce565b6040518080602001828103825283818151815260200191508051906020019080838360005b8381101561029f578082015181840152602081019050610284565b50505050905090810190601f1680156102cc5780820380516001836020036101000a031916815260200191505b509250505060405180910390f35b3480156102e657600080fd5b50610325600480360381019080803573ffffffffffffffffffffffffffffffffffffffff1690602001909291908035906020019092919050505061106c565b604051808215151515815260200191505060405180910390f35b34801561034b57600080fd5b5061036a6004803603810190808035906020019092919050505061115e565b6040518088815260200180602001878152602001868152602001858152602001848152602001838152602001828103825288818151815260200191508051906020019080838360005b838110156103ce5780820151818401526020810190506103b3565b50505050905090810190601f1680156103fb5780820380516001836020036101000a031916815260200191505b509850505050505050505060405180910390f35b34801561041b57600080fd5b5061043a60048036038101908080359060200190929190505050611362565b005b34801561044857600080fd5b506104af600480360381019080803590602001908201803590602001908080601f0160208091040260200160405190810160405280939291908181526020018383808284378201915050505050509192919290803515159060200190929190505050611483565b6040518082815260200191505060405180910390f35b3480156104d157600080fd5b506104da611786565b6040518082815260200191505060405180910390f35b3480156104fc57600080fd5b5061051b6004803603810190808035906020019092919050505061178c565b604051808273ffffffffffffffffffffffffffffffffffffffff1673ffffffffffffffffffffffffffffffffffffffff16815260200191505060405180910390f35b34801561056957600080fd5b506105726117bf565b6040518082815260200191505060405180910390f35b34801561059457600080fd5b506105f3600480360381019080803573ffffffffffffffffffffffffffffffffffffffff169060200190929190803573ffffffffffffffffffffffffffffffffffffffff169060200190929190803590602001909291905050506117c5565b604051808215151515815260200191505060405180910390f35b34801561061957600080fd5b5061064e600480360381019080803573ffffffffffffffffffffffffffffffffffffffff169060200190929190505050611a5f565b6040518082815260200191505060405180910390f35b34801561067057600080fd5b50610679611a77565b604051808260ff1660ff16815260200191505060405180910390f35b3480156106a157600080fd5b506106aa611a8a565b6040518082815260200191505060405180910390f35b3480156106cc57600080fd5b506106d5611a90565b6040518082815260200191505060405180910390f35b3480156106f757600080fd5b50610700611a9d565b005b34801561070e57600080fd5b50610717611b5d565b005b34801561072557600080fd5b5061074460048036038101908080359060200190929190505050611bf4565b60405180806020018781526020018660ff1660ff168152602001858152602001848152602001838152602001828103825288818151815260200191508051906020019080838360005b838110156107a857808201518184015260208101905061078d565b50505050905090810190601f1680156107d55780820380516001836020036101000a031916815260200191505b5097505050505050505060405180910390f35b3480156107f457600080fd5b5061085b600480360381019080803590602001908201803590602001908080601f0160208091040260200160405190810160405280939291908181526020018383808284378201915050505050509192919290803515159060200190929190505050611ce4565b6040518082815260200191505060405180910390f35b34801561087d57600080fd5b506108d2600480360381019080803573ffffffffffffffffffffffffffffffffffffffff169060200190929190803573ffffffffffffffffffffffffffffffffffffffff169060200190929190505050611f32565b6040518082815260200191505060405180910390f35b3480156108f457600080fd5b506108fd611f57565b604051808215151515815260200191505060405180910390f35b34801561092357600080fd5b5061092c611f6a565b6040518082815260200191505060405180910390f35b34801561094e57600080fd5b50610957611f70565b6040518082815260200191505060405180910390f35b34801561097957600080fd5b5061099860048036038101908080359060200190929190505050611f7d565b005b3480156109a657600080fd5b506109c8600480360381019080803560ff16906020019092919050505061209d565b005b3480156109d657600080fd5b50610a0b600480360381019080803573ffffffffffffffffffffffffffffffffffffffff1690602001909291905050506121c4565b6040518082815260200191505060405180910390f35b348015610a2d57600080fd5b50610a3661220d565b005b348015610a4457600080fd5b50610a4d612312565b005b348015610a5b57600080fd5b50610a646123d3565b604051808273ffffffffffffffffffffffffffffffffffffffff1673ffffffffffffffffffffffffffffffffffffffff16815260200191505060405180910390f35b348015610ab257600080fd5b50610abb6123f9565b6040518080602001828103825283818151815260200191508051906020019080838360005b83811015610afb578082015181840152602081019050610ae0565b50505050905090810190601f168015610b285780820380516001836020036101000a031916815260200191505b509250505060405180910390f35b348015610b4257600080fd5b50610b77600480360381019080803573ffffffffffffffffffffffffffffffffffffffff169060200190929190505050612497565b6040518082815260200191505060405180910390f35b348015610b9957600080fd5b50610bc260048036038101908080359060200190929190803590602001909291905050506124a9565b604051808215151515815260200191505060405180910390f35b348015610be857600080fd5b50610c27600480360381019080803573ffffffffffffffffffffffffffffffffffffffff16906020019092919080359060200190929190505050612a0c565b604051808215151515815260200191505060405180910390f35b348015610c4d57600080fd5b50610c82600480360381019080803573ffffffffffffffffffffffffffffffffffffffff169060200190929190505050612b65565b6040518080602001828103825283818151815260200191508051906020019060200280838360005b83811015610cc5578082015181840152602081019050610caa565b505050509050019250505060405180910390f35b348015610ce557600080fd5b50610cee612c91565b6040518082815260200191505060405180910390f35b348015610d1057600080fd5b50610dba600480360381019080803590602001908201803590602001908080601f0160208091040260200160405190810160405280939291908181526020018383808284378201915050505050509192919290803560ff169060200190929190803560ff169060200190929190803567ffffffffffffffff169060200190929190803560ff169060200190929190803567ffffffffffffffff169060200190929190505050612c97565b005b348015610dc857600080fd5b50610de760048036038101908080359060200190929190505050612f67565b6040518088815260200180602001878152602001868152602001858152602001848152602001838152602001828103825288818151815260200191508051906020019080838360005b83811015610e4b578082015181840152602081019050610e30565b50505050905090810190601f168015610e785780820380516001836020036101000a031916815260200191505b509850505050505050505060405180910390f35b348015610e9857600080fd5b50610eed600480360381019080803573ffffffffffffffffffffffffffffffffffffffff169060200190929190803573ffffffffffffffffffffffffffffffffffffffff1690602001909291905050506130cf565b6040518082815260200191505060405180910390f35b348015610f0f57600080fd5b50610f2e60048036038101908080359060200190929190505050613156565b604051808215151515815260200191505060405180910390f35b348015610f5457600080fd5b50610f89600480360381019080803573ffffffffffffffffffffffffffffffffffffffff1690602001909291905050506131a7565b005b348015610f9757600080fd5b50610fa061320f565b6040518082815260200191505060405180910390f35b600f6020528060005260406000206000915090505481565b60038054600181600116156101000203166002900480601f0160208091040260200160405190810160405280929190818152602001828054600181600116156101000203166002900480156110645780601f1061103957610100808354040283529160200191611064565b820191906000526020600020905b81548152906001019060200180831161104757829003601f168201915b505050505081565b600081600260003373ffffffffffffffffffffffffffffffffffffffff1673ffffffffffffffffffffffffffffffffffffffff16815260200190815260200160002060008573ffffffffffffffffffffffffffffffffffffffff1673ffffffffffffffffffffffffffffffffffffffff168152602001908152602001600020819055508273ffffffffffffffffffffffffffffffffffffffff163373ffffffffffffffffffffffffffffffffffffffff167f8c5be1e5ebec7d5bd14f71427d1e84f3dd0314c0f7b2291e5b200ac8c7c3b925846040518082815260200191505060405180910390a36001905092915050565b600060606000806000806000611172613a39565b60108981548110151561118157fe5b906000526020600020906002020160c06040519081016040529081600082018054600181600116156101000203166002900480601f0160208091040260200160405190810160405280929190818152602001828054600181600116156101000203166002900480156112345780601f1061120957610100808354040283529160200191611234565b820191906000526020600020905b81548152906001019060200180831161121757829003601f168201915b505050505081526020016001820160009054906101000a900460ff1660ff1660ff1681526020016001820160019054906101000a900460ff1660ff1660ff1681526020016001820160029054906101000a900467ffffffffffffffff1667ffffffffffffffff1667ffffffffffffffff16815260200160018201600a9054906101000a900460ff1660ff1660ff16815260200160018201600b9054906101000a900467ffffffffffffffff1667ffffffffffffffff1667ffffffffffffffff1681525050905088816000015182602001518360400151846060015185608001518660a001518595508460ff1694508360ff1693508267ffffffffffffffff1692508160ff1691508067ffffffffffffffff169050975097509750975097509750975050919395979092949650565b600660149054906101000a900460ff16151561137d57600080fd5b600660009054906101000a900473ffffffffffffffffffffffffffffffffffffffff1673ffffffffffffffffffffffffffffffffffffffff163373ffffffffffffffffffffffffffffffffffffffff161415156113d957600080fd5b80600c5414151515611479576040517f08c379a00000000000000000000000000000000000000000000000000000000081526004018080602001828103825260398152602001807f596f752061726520747279696e6720746f2073657420746865206e657720636f81526020017f737420746f207768617420697420616c7265616479207761730000000000000081525060400191505060405180910390fd5b80600c8190555050565b600080600084601e815111151515611503576040517f08c379a00000000000000000000000000000000000000000000000000000000081526004018080602001828103825260158152602001807f4e616d65206c656e67746820746f6f206c6f6e6721000000000000000000000081525060200191505060405180910390fd5b600660149054906101000a900460ff1615151561151f57600080fd5b6000600f60003373ffffffffffffffffffffffffffffffffffffffff1673ffffffffffffffffffffffffffffffffffffffff16815260200190815260200160002054101515156115fd576040517f08c379a000000000000000000000000000000000000000000000000000000000815260040180806020018281038252602f8152602001807f54686973206163636f756e74206861736e27742068616420686973206672656581526020017f206368617261637465722079657421000000000000000000000000000000000081525060400191505060405180910390fd5b600c54611609336121c4565b101515156116a5576040517f08c379a000000000000000000000000000000000000000000000000000000000815260040180806020018281038252602f8152602001807f596f7520646f6e2774206861766520656e6f756768207761726372616674436f81526020017f696e7320746f207075726368617365000000000000000000000000000000000081525060400191505060405180910390fd5b6116b0600c54613156565b5085336040518083805190602001908083835b6020831015156116e857805182526020820191506020810190506020830392506116c3565b6001836020036101000a0380198251168184511680821785525050505050509050018273ffffffffffffffffffffffffffffffffffffffff1673ffffffffffffffffffffffffffffffffffffffff166c01000000000000000000000000028152601401925050506040518091039020600190049250600754600a0a8381151561176d57fe5b06915061177b868387613215565b935050505092915050565b60005481565b600e6020528060005260406000206000915054906101000a900473ffffffffffffffffffffffffffffffffffffffff1681565b60115481565b600080600260008673ffffffffffffffffffffffffffffffffffffffff1673ffffffffffffffffffffffffffffffffffffffff16815260200190815260200160002060003373ffffffffffffffffffffffffffffffffffffffff1673ffffffffffffffffffffffffffffffffffffffff16815260200190815260200160002054905082600160008773ffffffffffffffffffffffffffffffffffffffff1673ffffffffffffffffffffffffffffffffffffffff16815260200190815260200160002054101580156118965750828110155b15156118a157600080fd5b82600160008673ffffffffffffffffffffffffffffffffffffffff1673ffffffffffffffffffffffffffffffffffffffff1681526020019081526020016000206000828254019250508190555082600160008773ffffffffffffffffffffffffffffffffffffffff1673ffffffffffffffffffffffffffffffffffffffff168152602001908152602001600020600082825403925050819055507fffffffffffffffffffffffffffffffffffffffffffffffffffffffffffffffff8110156119ee5782600260008773ffffffffffffffffffffffffffffffffffffffff1673ffffffffffffffffffffffffffffffffffffffff16815260200190815260200160002060003373ffffffffffffffffffffffffffffffffffffffff1673ffffffffffffffffffffffffffffffffffffffff168152602001908152602001600020600082825403925050819055505b8373ffffffffffffffffffffffffffffffffffffffff168573ffffffffffffffffffffffffffffffffffffffff167fddf252ad1be2c89b69c2b068fc378daa952ba7f163c4a11628f55a4df523b3ef856040518082815260200191505060405180910390a360019150509392505050565b60016020528060005260406000206000915090505481565b600460009054906101000a900460ff1681565b60085481565b6000601080549050905090565b600660009054906101000a900473ffffffffffffffffffffffffffffffffffffffff1673ffffffffffffffffffffffffffffffffffffffff163373ffffffffffffffffffffffffffffffffffffffff16141515611af957600080fd5b600660149054906101000a900460ff161515611b1457600080fd5b6000600660146101000a81548160ff0219169083151502179055507f7805862f689e2f13df9f062ff482ad3ad112aca9e0847911ed832e158c525b3360405160405180910390a1565b600660009054906101000a900473ffffffffffffffffffffffffffffffffffffffff1673ffffffffffffffffffffffffffffffffffffffff163373ffffffffffffffffffffffffffffffffffffffff16141515611bb957600080fd5b600660009054906101000a900473ffffffffffffffffffffffffffffffffffffffff1673ffffffffffffffffffffffffffffffffffffffff16ff5b600d81815481101515611c0357fe5b9060005260206000209060060201600091509050806000018054600181600116156101000203166002900480601f016020809104026020016040519081016040528092919081815260200182805460018160011615610100020316600290048015611caf5780601f10611c8457610100808354040283529160200191611caf565b820191906000526020600020905b815481529060010190602001808311611c9257829003601f168201915b5050505050908060010154908060020160009054906101000a900460ff16908060030154908060040154908060050154905086565b600080600084601e815111151515611d64576040517f08c379a00000000000000000000000000000000000000000000000000000000081526004018080602001828103825260158152602001807f4e616d65206c656e67746820746f6f206c6f6e6721000000000000000000000081525060200191505060405180910390fd5b600660149054906101000a900460ff16151515611d8057600080fd5b6000600f60003373ffffffffffffffffffffffffffffffffffffffff1673ffffffffffffffffffffffffffffffffffffffff16815260200190815260200160002054141515611e5d576040517f08c379a000000000000000000000000000000000000000000000000000000000815260040180806020018281038252603b8152602001807f4e6f742061206e6577206163636f756e742c20616c726561647920676f74206181526020017f2063686172616374657220746f2074686973206164647265737373000000000081525060400191505060405180910390fd5b85336040518083805190602001908083835b602083101515611e945780518252602082019150602081019050602083039250611e6f565b6001836020036101000a0380198251168184511680821785525050505050509050018273ffffffffffffffffffffffffffffffffffffffff1673ffffffffffffffffffffffffffffffffffffffff166c01000000000000000000000000028152601401925050506040518091039020600190049250600754600a0a83811515611f1957fe5b069150611f27868387613215565b935050505092915050565b6002602052816000526040600020602052806000526040600020600091509150505481565b600660149054906101000a900460ff1681565b600a5481565b6000600d80549050905090565b600660009054906101000a900473ffffffffffffffffffffffffffffffffffffffff1673ffffffffffffffffffffffffffffffffffffffff163373ffffffffffffffffffffffffffffffffffffffff16141515611fd957600080fd5b600660149054906101000a900460ff161515611ff457600080fd5b60008110151515612093576040517f08c379a00000000000000000000000000000000000000000000000000000000081526004018080602001828103825260288152602001807f5a6f6e6520646f776e74696d65206d757374206265206f766572206f7220657181526020017f75616c20746f203000000000000000000000000000000000000000000000000081525060400191505060405180910390fd5b8060118190555050565b600660149054906101000a900460ff1615156120b857600080fd5b600660009054906101000a900473ffffffffffffffffffffffffffffffffffffffff1673ffffffffffffffffffffffffffffffffffffffff163373ffffffffffffffffffffffffffffffffffffffff1614151561211457600080fd5b8060ff16600954141515156121b7576040517f08c379a000000000000000000000000000000000000000000000000000000000815260040180806020018281038252603d8152602001807f596f752061726520747279696e6720746f2073657420746865206e6577206d6181526020017f784c6576656c20746f207768617420697420616c72656164792077617300000081525060400191505060405180910390fd5b8060ff1660098190555050565b6000600160008373ffffffffffffffffffffffffffffffffffffffff1673ffffffffffffffffffffffffffffffffffffffff168152602001908152602001600020549050919050565b600660009054906101000a900473ffffffffffffffffffffffffffffffffffffffff1673ffffffffffffffffffffffffffffffffffffffff163373ffffffffffffffffffffffffffffffffffffffff1614151561226957600080fd5b600660009054906101000a900473ffffffffffffffffffffffffffffffffffffffff1673ffffffffffffffffffffffffffffffffffffffff167ff8df31144d9c2f0f6b59d69b8b98abd5459d07f2742c4df920b25aae33c6482060405160405180910390a26000600660006101000a81548173ffffffffffffffffffffffffffffffffffffffff021916908373ffffffffffffffffffffffffffffffffffffffff160217905550565b600660009054906101000a900473ffffffffffffffffffffffffffffffffffffffff1673ffffffffffffffffffffffffffffffffffffffff163373ffffffffffffffffffffffffffffffffffffffff1614151561236e57600080fd5b600660149054906101000a900460ff1615151561238a57600080fd5b6001600660146101000a81548160ff0219169083151502179055507f6985a02210a168e66602d3235cb6db0e70f92b3ba4d376a33c0f3d9434bff62560405160405180910390a1565b600660009054906101000a900473ffffffffffffffffffffffffffffffffffffffff1681565b60058054600181600116156101000203166002900480601f01602080910402602001604051908101604052809291908181526020018280546001816001161561010002031660029004801561248f5780601f106124645761010080835404028352916020019161248f565b820191906000526020600020905b81548152906001019060200180831161247257829003601f168201915b505050505081565b60006124a2826121c4565b9050919050565b60006124b3613a39565b60008085600e600082815260200190815260200160002060009054906101000a900473ffffffffffffffffffffffffffffffffffffffff1673ffffffffffffffffffffffffffffffffffffffff163373ffffffffffffffffffffffffffffffffffffffff161415156125b3576040517f08c379a00000000000000000000000000000000000000000000000000000000081526004018080602001828103825260278152602001807f596f7520617265206e6f7420746865206f776e6572206f66207468697320636881526020017f617261637465720000000000000000000000000000000000000000000000000081525060400191505060405180910390fd5b8642600d828154811015156125c457fe5b9060005260206000209060060201600401541115151561264c576040517f08c379a00000000000000000000000000000000000000000000000000000000081526004018080602001828103825260188152602001807f436861726163746572206e6f742072656164792079657421000000000000000081525060200191505060405180910390fd5b600660149054906101000a900460ff1615151561266857600080fd5b60108781548110151561267757fe5b906000526020600020906002020160c06040519081016040529081600082018054600181600116156101000203166002900480601f01602080910402602001604051908101604052809291908181526020018280546001816001161561010002031660029004801561272a5780601f106126ff5761010080835404028352916020019161272a565b820191906000526020600020905b81548152906001019060200180831161270d57829003601f168201915b505050505081526020016001820160009054906101000a900460ff1660ff1660ff1681526020016001820160019054906101000a900460ff1660ff1660ff1681526020016001820160029054906101000a900467ffffffffffffffff1667ffffffffffffffff1667ffffffffffffffff16815260200160018201600a9054906101000a900460ff1660ff1660ff16815260200160018201600b9054906101000a900467ffffffffffffffff1667ffffffffffffffff1667ffffffffffffffff16815250509450846020015160ff16600d8981548110151561280757fe5b906000526020600020906006020160020160009054906101000a900460ff1660ff16101515156128c5576040517f08c379a00000000000000000000000000000000000000000000000000000000081526004018080602001828103825260318152602001807f5468652063686172616374657220646f6573206e6f742068617665207468652081526020017f6c6576656c20726571756972656d656e7400000000000000000000000000000081525060400191505060405180910390fd5b6064600a60008154809291906001019190505533604051808381526020018273ffffffffffffffffffffffffffffffffffffffff1673ffffffffffffffffffffffffffffffffffffffff166c010000000000000000000000000281526014019250505060405180910390206001900481151561293d57fe5b06935060009250846040015160ff168411151561298a5761296c88866060015167ffffffffffffffff16613532565b60019250612988338660a0015167ffffffffffffffff16613707565b505b6011544201600d8981548110151561299e57fe5b9060005260206000209060060201600401819055507f9200a8d3842b8c4e32bcb017ce87f1c19c3320cad05894df27b6c76d4560a7f48389896040518084151515158152602001838152602001828152602001935050505060405180910390a1829550505050505092915050565b600081600160003373ffffffffffffffffffffffffffffffffffffffff1673ffffffffffffffffffffffffffffffffffffffff1681526020019081526020016000205410151515612a5c57600080fd5b81600160003373ffffffffffffffffffffffffffffffffffffffff1673ffffffffffffffffffffffffffffffffffffffff1681526020019081526020016000206000828254039250508190555081600160008573ffffffffffffffffffffffffffffffffffffffff1673ffffffffffffffffffffffffffffffffffffffff168152602001908152602001600020600082825401925050819055508273ffffffffffffffffffffffffffffffffffffffff163373ffffffffffffffffffffffffffffffffffffffff167fddf252ad1be2c89b69c2b068fc378daa952ba7f163c4a11628f55a4df523b3ef846040518082815260200191505060405180910390a36001905092915050565b606080600080600f60008673ffffffffffffffffffffffffffffffffffffffff1673ffffffffffffffffffffffffffffffffffffffff16815260200190815260200160002054604051908082528060200260200182016040528015612bd95781602001602082028038833980820191505090505b509250600090505b600d80549050811015612c86578473ffffffffffffffffffffffffffffffffffffffff16600e600083815260200190815260200160002060009054906101000a900473ffffffffffffffffffffffffffffffffffffffff1673ffffffffffffffffffffffffffffffffffffffff161415612c7957808383806001019450815181101515612c6a57fe5b90602001906020020181815250505b8080600101915050612be1565b829350505050919050565b60095481565b600660009054906101000a900473ffffffffffffffffffffffffffffffffffffffff1673ffffffffffffffffffffffffffffffffffffffff163373ffffffffffffffffffffffffffffffffffffffff16141515612cf357600080fd5b600660149054906101000a900460ff161515612d0e57600080fd5b85601e815111151515612d89576040517f08c379a00000000000000000000000000000000000000000000000000000000081526004018080602001828103825260158152602001807f4e616d65206c656e67746820746f6f206c6f6e6721000000000000000000000081525060200191505060405180910390fd5b60648560ff1611151515612e05576040517f08c379a000000000000000000000000000000000000000000000000000000000815260040180806020018281038252601c8152602001807f54686520737563636573732072617465206973206f766572203130300000000081525060200191505060405180910390fd5b601060c0604051908101604052808981526020018860ff1681526020018760ff1681526020018667ffffffffffffffff1681526020018560ff1681526020018467ffffffffffffffff16815250908060018154018082558091505090600182039060005260206000209060020201600090919290919091506000820151816000019080519060200190612e99929190613a8d565b5060208201518160010160006101000a81548160ff021916908360ff16021790555060408201518160010160016101000a81548160ff021916908360ff16021790555060608201518160010160026101000a81548167ffffffffffffffff021916908367ffffffffffffffff160217905550608082015181600101600a6101000a81548160ff021916908360ff16021790555060a082015181600101600b6101000a81548167ffffffffffffffff021916908367ffffffffffffffff16021790555050505050505050505050565b600060606000806000806000612f7b613b0d565b600d89815481101515612f8a57fe5b906000526020600020906006020160c06040519081016040529081600082018054600181600116156101000203166002900480601f01602080910402602001604051908101604052809291908181526020018280546001816001161561010002031660029004801561303d5780601f106130125761010080835404028352916020019161303d565b820191906000526020600020905b81548152906001019060200180831161302057829003601f168201915b50505050508152602001600182015481526020016002820160009054906101000a900460ff1660ff1660ff168152602001600382015481526020016004820154815260200160058201548152505090508881600001518260200151836040015184606001518560a0015186608001518595508360ff169350975097509750975097509750975050919395979092949650565b6000600260008473ffffffffffffffffffffffffffffffffffffffff1673ffffffffffffffffffffffffffffffffffffffff16815260200190815260200160002060008373ffffffffffffffffffffffffffffffffffffffff1673ffffffffffffffffffffffffffffffffffffffff16815260200190815260200160002054905092915050565b6000600660149054906101000a900460ff1615151561317457600080fd5b6131a0600660009054906101000a900473ffffffffffffffffffffffffffffffffffffffff1683612a0c565b9050919050565b600660009054906101000a900473ffffffffffffffffffffffffffffffffffffffff1673ffffffffffffffffffffffffffffffffffffffff163373ffffffffffffffffffffffffffffffffffffffff1614151561320357600080fd5b61320c8161393d565b50565b600c5481565b600080600085601e815111151515613295576040517f08c379a00000000000000000000000000000000000000000000000000000000081526004018080602001828103825260158152602001807f4e616d65206c656e67746820746f6f206c6f6e6721000000000000000000000081525060200191505060405180910390fd5b600660149054906101000a900460ff161515156132b157600080fd5b85925084156132c8576001600a84020192506132cf565b600a830292505b600d60c060405190810160405280898152602001858152602001600160ff1681526020016000815260200142815260200160085481525090806001815401808255809150509060018203906000526020600020906006020160009091929091909150600082015181600001908051906020019061334d929190613a8d565b506020820151816001015560408201518160020160006101000a81548160ff021916908360ff160217905550606082015181600301556080820151816004015560a082015181600501555050915033600e600060018503815260200190815260200160002060006101000a81548173ffffffffffffffffffffffffffffffffffffffff021916908373ffffffffffffffffffffffffffffffffffffffff160217905550600f60003373ffffffffffffffffffffffffffffffffffffffff1673ffffffffffffffffffffffffffffffffffffffff168152602001908152602001600020600081548092919060010191905055507f5630adcc97969060af381c099052ae40588c1a027a248ecb2488390718cc628a33600184038986604051808573ffffffffffffffffffffffffffffffffffffffff1673ffffffffffffffffffffffffffffffffffffffff16815260200184815260200180602001838152602001828103825284818151815260200191508051906020019080838360005b838110156134e55780820151818401526020810190506134ca565b50505050905090810190601f1680156135125780820380516001836020036101000a031916815260200191505b509550505050505060405180910390a16001820393505050509392505050565b6000600660149054906101000a900460ff1615151561355057600080fd5b82600954600d8281548110151561356357fe5b906000526020600020906006020160020160009054906101000a900460ff1660ff16101515613620576040517f08c379a00000000000000000000000000000000000000000000000000000000081526004018080602001828103825260328152602001807f546865206368617261637465722063616e277420646f2074686973206265636181526020017f7573652068652773206d6178206c6576656c000000000000000000000000000081525060400191505060405180910390fd5b600d8481548110151561362f57fe5b90600052602060002090600602019150828260030160008282540192505081905550816005015482600301541015156137015781600201600081819054906101000a900460ff168092919060010191906101000a81548160ff021916908360ff160217905550506009548260020160009054906101000a900460ff1660ff1614156136c357600082600301819055506136da565b816005015482600301600082825403925050819055505b6064600b548360050154028115156136ee57fe5b0482600501600082825401925050819055505b50505050565b6000600660149054906101000a900460ff1615151561372557600080fd5b600082613753600660009054906101000a900473ffffffffffffffffffffffffffffffffffffffff166121c4565b03101515156137f0576040517f08c379a000000000000000000000000000000000000000000000000000000000815260040180806020018281038252603a8152602001807f4f776e657227732062616c616e63652077696c6c206265203c2030206966207981526020017f6f7520636f6e74696e75652074686973206f7065726174696f6e00000000000081525060400191505060405180910390fd5b8160016000600660009054906101000a900473ffffffffffffffffffffffffffffffffffffffff1673ffffffffffffffffffffffffffffffffffffffff1673ffffffffffffffffffffffffffffffffffffffff1681526020019081526020016000206000828254039250508190555081600160008573ffffffffffffffffffffffffffffffffffffffff1673ffffffffffffffffffffffffffffffffffffffff168152602001908152602001600020600082825401925050819055503373ffffffffffffffffffffffffffffffffffffffff16600660009054906101000a900473ffffffffffffffffffffffffffffffffffffffff1673ffffffffffffffffffffffffffffffffffffffff167fddf252ad1be2c89b69c2b068fc378daa952ba7f163c4a11628f55a4df523b3ef846040518082815260200191505060405180910390a36001905092915050565b600073ffffffffffffffffffffffffffffffffffffffff168173ffffffffffffffffffffffffffffffffffffffff161415151561397957600080fd5b8073ffffffffffffffffffffffffffffffffffffffff16600660009054906101000a900473ffffffffffffffffffffffffffffffffffffffff1673ffffffffffffffffffffffffffffffffffffffff167f8be0079c531659141344cd1fd0a4f28419497f9722a3daafe3b4186f6b6457e060405160405180910390a380600660006101000a81548173ffffffffffffffffffffffffffffffffffffffff021916908373ffffffffffffffffffffffffffffffffffffffff16021790555050565b60c06040519081016040528060608152602001600060ff168152602001600060ff168152602001600067ffffffffffffffff168152602001600060ff168152602001600067ffffffffffffffff1681525090565b828054600181600116156101000203166002900490600052602060002090601f016020900481019282601f10613ace57805160ff1916838001178555613afc565b82800160010185558215613afc579182015b82811115613afb578251825591602001919060010190613ae0565b5b509050613b099190613b47565b5090565b60c0604051908101604052806060815260200160008152602001600060ff1681526020016000815260200160008152602001600081525090565b613b6991905b80821115613b65576000816000905550600101613b4d565b5090565b905600a165627a7a723058202e495eecba6947dbade24ed2b9be9e0cc7b7bfd70236f89fd1a64146c05d40e00029",
  "source": "pragma solidity ^0.4.24;\nimport \"./Warcraft.sol\";\n\ncontract WarcraftZones is Warcraft{\n    \n    Zone[] zones;\n    uint public zoneDowntime = 60 seconds;\n    \n    struct Zone{\n        string name;\n        uint8 lvlRequirement;\n        // The success rate is always under 100%\n        uint8 successRate;\n        uint64 exp;\n        //continent : 0 => Kalimdor, 1 => Eastern kingdoms\n        uint8 continent;\n        // cryptoCoin reward, since 2^64 should be enough of a reward, maybe even too much\n        uint64 currencyReward;\n    } \n\n    /** @dev Indicates when quest has been done.\n    * @param _success returns weather or not the quest succeeded.\n    * @param _charId Id of the character doing the quest.\n    * @param _questId Id of the quest being quested.\n    */\n    event questDone(bool _success,uint _charId,uint _questId);\n\n\n    /** @dev The contract's constructor. Generates the zones for the game.\n      */\n    constructor() public{\n        zones.push(Zone(\"Durotar\",1,100,100,0,1));\n        zones.push(Zone(\"Elwynn Forest\",1,100,100,1,1));\n        zones.push(Zone(\"Barrens\",5,90,140,0,2));\n        zones.push(Zone(\"Loch Modan\",5,90,140,1,2));\n        zones.push(Zone(\"Stonetalon Mountains\",10,80,220,0,3));\n        zones.push(Zone(\"Redridge Mountains\",10,80,220,1,3));\n        zones.push(Zone(\"Ashenvale\",15,60,500,0,4));\n        zones.push(Zone(\"Duskwood\",15,60,500,1,4));\n    }\n    \n    /** @dev Function handling the gain of experience of a character.\n      * @param _charId The character gaining the experience.\n      * @param _exp The amount of experience the character is gaining.\n      */\n    function getExp(uint _charId,uint _exp) internal whenNotPaused() onlyUnderMaxLevel(_charId){\n        Character storage char = characters[_charId];\n        char.exp += _exp;\n        if(char.exp >= char.toNextLvl){\n            char.lvl++;\n            if(char.lvl == maxLevel)\n                char.exp = 0;\n            else\n                char.exp -= char.toNextLvl;\n            char.toNextLvl += char.toNextLvl*expRate/100;\n        }\n    }\n    \n    /** @dev Makes the character(_charId) quest in a zone.\n      * @param _charId The character doing the quest.\n      * @param _zoneId The Id of the zone the character will quest in.\n      * @return bool : Returns the success of the quest.\n      */\n    function questing(uint _charId, uint _zoneId) public onlyCharacterOwner(_charId) isReady(_charId) whenNotPaused() returns(bool){\n        Zone memory zone = zones[_zoneId];\n        require(characters[_charId].lvl >= zone.lvlRequirement, \"The character does not have the level requirement\");\n        uint rand = uint(keccak256(randNonce++,msg.sender))%100;\n        bool success = false;\n        if(rand <= zone.successRate){\n            getExp(_charId,zone.exp);\n            success = true;\n            giveToken(msg.sender,zone.currencyReward);\n        }\n        characters[_charId].ready = now + zoneDowntime;\n        emit questDone(success,_charId,_zoneId);\n        return success;\n    }\n\n    /** @dev Get's the zone's information.\n      * @param _id The zone's Id.\n      * @return id : the zone's Id.\n      * @return name : the zone's name.\n      * @return lvlReq : the level required to quest in the zone.\n      * @return successRate : the zone's success rate.\n      * @return exp : the experience gained when questing in the zone.\n      * @return _continent : the quest's continent location.\n      * @return _currencyReward : the quest's reward.\n      */\n    function getZone(uint _id) public view returns(\n    uint id,string name,uint lvlReq,uint successRate,uint exp,uint continent, uint currencyReward){\n        Zone memory zone = zones[_id];\n        return (_id,zone.name,zone.lvlRequirement,zone.successRate,zone.exp,zone.continent,zone.currencyReward);\n    }\n\n    /** @dev Returns the amount of zones in the game.\n      * @return length : the amount of zones.\n      */\n    function getZoneCount() public view returns(uint length){\n        return zones.length;\n    }\n\n    /** @dev Adds a new zone to the game. (ONLY OWNER)\n      * @param _name : the zone's name.\n      * @param _lvlReq : the level required to quest in the zone.\n      * @param _successRate : the zone's success rate.\n      * @param _exp : the experience gained when questing in the zone.\n      * @param _continent : the quest's continent location.\n      * @param _currencyReward : the quest's reward.\n      */\n    function addNewZone(string _name, uint8 _lvlReq, uint8 _successRate, uint64 _exp, uint8 _continent, uint64 _currencyReward) \n    public onlyOwner() whenPaused() checkNameSize(_name){\n        require(_successRate <= 100,\"The success rate is over 100\");\n        zones.push(Zone(_name,_lvlReq,_successRate,_exp,_continent,_currencyReward));\n    }\n\n    /** @dev Changes the zones donwtime (ONLY OWNER)\n      * @param _newZoneDowntime : the  new zone downtime.\n      */\n    function changeZoneDowntime(uint _newZoneDowntime) public onlyOwner() whenPaused(){\n        require(_newZoneDowntime >= 0, \"Zone downtime must be over or equal to 0\");\n        zoneDowntime = _newZoneDowntime;\n    }\n}",
  "sourcePath": "C:\\Users\\Louis\\Documents\\projects\\crypto-warcraft-2\\contracts\\WarcraftZones.sol",
  "compiler": {
    "name": "solc",
    "version": "0.4.24+commit.e67f0147.Emscripten.clang"
  },
  "schemaVersion": "2.0.1",
  "updatedAt": "2018-08-27T13:11:22.144Z"
}