{
  "contractName": "WarcraftZones",
  "abi": [
    {
      "constant": true,
      "inputs": [
        {
          "name": "",
          "type": "address"
        }
      ],
      "name": "characterCount",
      "outputs": [
        {
          "name": "",
          "type": "uint256"
        }
      ],
      "payable": false,
      "stateMutability": "view",
      "type": "function"
    },
    {
      "constant": true,
      "inputs": [],
      "name": "name",
      "outputs": [
        {
          "name": "",
          "type": "string"
        }
      ],
      "payable": false,
      "stateMutability": "view",
      "type": "function"
    },
    {
      "constant": false,
      "inputs": [
        {
          "name": "_spender",
          "type": "address"
        },
        {
          "name": "_value",
          "type": "uint256"
        }
      ],
      "name": "approve",
      "outputs": [
        {
          "name": "success",
          "type": "bool"
        }
      ],
      "payable": false,
      "stateMutability": "nonpayable",
      "type": "function"
    },
    {
      "constant": false,
      "inputs": [
        {
          "name": "_newCost",
          "type": "uint256"
        }
      ],
      "name": "changeNewRandomCharacterCost",
      "outputs": [],
      "payable": false,
      "stateMutability": "nonpayable",
      "type": "function"
    },
    {
      "constant": false,
      "inputs": [
        {
          "name": "_name",
          "type": "string"
        },
        {
          "name": "_faction",
          "type": "bool"
        }
      ],
      "name": "createNewRandomCharacter",
      "outputs": [
        {
          "name": "_id",
          "type": "uint256"
        }
      ],
      "payable": false,
      "stateMutability": "nonpayable",
      "type": "function"
    },
    {
      "constant": true,
      "inputs": [],
      "name": "totalSupply",
      "outputs": [
        {
          "name": "",
          "type": "uint256"
        }
      ],
      "payable": false,
      "stateMutability": "view",
      "type": "function"
    },
    {
      "constant": true,
      "inputs": [
        {
          "name": "",
          "type": "uint256"
        }
      ],
      "name": "characterToOwner",
      "outputs": [
        {
          "name": "",
          "type": "address"
        }
      ],
      "payable": false,
      "stateMutability": "view",
      "type": "function"
    },
    {
      "constant": false,
      "inputs": [
        {
          "name": "_from",
          "type": "address"
        },
        {
          "name": "_to",
          "type": "address"
        },
        {
          "name": "_value",
          "type": "uint256"
        }
      ],
      "name": "transferFrom",
      "outputs": [
        {
          "name": "success",
          "type": "bool"
        }
      ],
      "payable": false,
      "stateMutability": "nonpayable",
      "type": "function"
    },
    {
      "constant": true,
      "inputs": [
        {
          "name": "",
          "type": "address"
        }
      ],
      "name": "balances",
      "outputs": [
        {
          "name": "",
          "type": "uint256"
        }
      ],
      "payable": false,
      "stateMutability": "view",
      "type": "function"
    },
    {
      "constant": true,
      "inputs": [],
      "name": "decimals",
      "outputs": [
        {
          "name": "",
          "type": "uint8"
        }
      ],
      "payable": false,
      "stateMutability": "view",
      "type": "function"
    },
    {
      "constant": false,
      "inputs": [],
      "name": "unpause",
      "outputs": [],
      "payable": false,
      "stateMutability": "nonpayable",
      "type": "function"
    },
    {
      "constant": false,
      "inputs": [],
      "name": "kill",
      "outputs": [],
      "payable": false,
      "stateMutability": "nonpayable",
      "type": "function"
    },
    {
      "constant": true,
      "inputs": [
        {
          "name": "",
          "type": "uint256"
        }
      ],
      "name": "characters",
      "outputs": [
        {
          "name": "name",
          "type": "string"
        },
        {
          "name": "dna",
          "type": "uint256"
        },
        {
          "name": "lvl",
          "type": "uint8"
        },
        {
          "name": "exp",
          "type": "uint256"
        },
        {
          "name": "ready",
          "type": "uint256"
        },
        {
          "name": "toNextLvl",
          "type": "uint256"
        }
      ],
      "payable": false,
      "stateMutability": "view",
      "type": "function"
    },
    {
      "constant": false,
      "inputs": [
        {
          "name": "_name",
          "type": "string"
        },
        {
          "name": "_faction",
          "type": "bool"
        }
      ],
      "name": "createAccount",
      "outputs": [
        {
          "name": "_id",
          "type": "uint256"
        }
      ],
      "payable": false,
      "stateMutability": "nonpayable",
      "type": "function"
    },
    {
      "constant": true,
      "inputs": [
        {
          "name": "",
          "type": "address"
        },
        {
          "name": "",
          "type": "address"
        }
      ],
      "name": "allowed",
      "outputs": [
        {
          "name": "",
          "type": "uint256"
        }
      ],
      "payable": false,
      "stateMutability": "view",
      "type": "function"
    },
    {
      "constant": true,
      "inputs": [],
      "name": "paused",
      "outputs": [
        {
          "name": "",
          "type": "bool"
        }
      ],
      "payable": false,
      "stateMutability": "view",
      "type": "function"
    },
    {
      "constant": false,
      "inputs": [],
      "name": "getCharacterCount",
      "outputs": [
        {
          "name": "",
          "type": "uint256"
        }
      ],
      "payable": false,
      "stateMutability": "nonpayable",
      "type": "function"
    },
    {
      "constant": true,
      "inputs": [
        {
          "name": "_owner",
          "type": "address"
        }
      ],
      "name": "balanceOf",
      "outputs": [
        {
          "name": "balance",
          "type": "uint256"
        }
      ],
      "payable": false,
      "stateMutability": "view",
      "type": "function"
    },
    {
      "constant": false,
      "inputs": [],
      "name": "renounceOwnership",
      "outputs": [],
      "payable": false,
      "stateMutability": "nonpayable",
      "type": "function"
    },
    {
      "constant": false,
      "inputs": [],
      "name": "pause",
      "outputs": [],
      "payable": false,
      "stateMutability": "nonpayable",
      "type": "function"
    },
    {
      "constant": true,
      "inputs": [],
      "name": "owner",
      "outputs": [
        {
          "name": "",
          "type": "address"
        }
      ],
      "payable": false,
      "stateMutability": "view",
      "type": "function"
    },
    {
      "constant": true,
      "inputs": [],
      "name": "symbol",
      "outputs": [
        {
          "name": "",
          "type": "string"
        }
      ],
      "payable": false,
      "stateMutability": "view",
      "type": "function"
    },
    {
      "constant": true,
      "inputs": [
        {
          "name": "_address",
          "type": "address"
        }
      ],
      "name": "getBalanceOf",
      "outputs": [
        {
          "name": "",
          "type": "uint256"
        }
      ],
      "payable": false,
      "stateMutability": "view",
      "type": "function"
    },
    {
      "constant": false,
      "inputs": [
        {
          "name": "_to",
          "type": "address"
        },
        {
          "name": "_value",
          "type": "uint256"
        }
      ],
      "name": "transfer",
      "outputs": [
        {
          "name": "success",
          "type": "bool"
        }
      ],
      "payable": false,
      "stateMutability": "nonpayable",
      "type": "function"
    },
    {
      "constant": true,
      "inputs": [
        {
          "name": "_owner",
          "type": "address"
        }
      ],
      "name": "getCharacters",
      "outputs": [
        {
          "name": "",
          "type": "uint256[]"
        }
      ],
      "payable": false,
      "stateMutability": "view",
      "type": "function"
    },
    {
      "constant": true,
      "inputs": [
        {
          "name": "_id",
          "type": "uint256"
        }
      ],
      "name": "getCharacter",
      "outputs": [
        {
          "name": "id",
          "type": "uint256"
        },
        {
          "name": "name",
          "type": "string"
        },
        {
          "name": "dna",
          "type": "uint256"
        },
        {
          "name": "lvl",
          "type": "uint256"
        },
        {
          "name": "exp",
          "type": "uint256"
        },
        {
          "name": "toNextLvl",
          "type": "uint256"
        },
        {
          "name": "ready",
          "type": "uint256"
        }
      ],
      "payable": false,
      "stateMutability": "view",
      "type": "function"
    },
    {
      "constant": true,
      "inputs": [
        {
          "name": "_owner",
          "type": "address"
        },
        {
          "name": "_spender",
          "type": "address"
        }
      ],
      "name": "allowance",
      "outputs": [
        {
          "name": "remaining",
          "type": "uint256"
        }
      ],
      "payable": false,
      "stateMutability": "view",
      "type": "function"
    },
    {
      "constant": false,
      "inputs": [
        {
          "name": "_value",
          "type": "uint256"
        }
      ],
      "name": "purchase",
      "outputs": [
        {
          "name": "",
          "type": "bool"
        }
      ],
      "payable": false,
      "stateMutability": "nonpayable",
      "type": "function"
    },
    {
      "constant": false,
      "inputs": [
        {
          "name": "_newOwner",
          "type": "address"
        }
      ],
      "name": "transferOwnership",
      "outputs": [],
      "payable": false,
      "stateMutability": "nonpayable",
      "type": "function"
    },
    {
      "constant": true,
      "inputs": [],
      "name": "newRandomCharacterCost",
      "outputs": [
        {
          "name": "",
          "type": "uint256"
        }
      ],
      "payable": false,
      "stateMutability": "view",
      "type": "function"
    },
    {
      "inputs": [],
      "payable": false,
      "stateMutability": "nonpayable",
      "type": "constructor"
    },
    {
      "anonymous": false,
      "inputs": [
        {
          "indexed": false,
          "name": "_success",
          "type": "bool"
        },
        {
          "indexed": false,
          "name": "_charId",
          "type": "uint256"
        },
        {
          "indexed": false,
          "name": "_questId",
          "type": "uint256"
        }
      ],
      "name": "questDone",
      "type": "event"
    },
    {
      "anonymous": false,
      "inputs": [
        {
          "indexed": false,
          "name": "_address",
          "type": "address"
        },
        {
          "indexed": false,
          "name": "_charId",
          "type": "uint256"
        },
        {
          "indexed": false,
          "name": "_name",
          "type": "string"
        },
        {
          "indexed": false,
          "name": "_dna",
          "type": "uint256"
        }
      ],
      "name": "characterCreated",
      "type": "event"
    },
    {
      "anonymous": false,
      "inputs": [],
      "name": "Pause",
      "type": "event"
    },
    {
      "anonymous": false,
      "inputs": [],
      "name": "Unpause",
      "type": "event"
    },
    {
      "anonymous": false,
      "inputs": [
        {
          "indexed": true,
          "name": "previousOwner",
          "type": "address"
        }
      ],
      "name": "OwnershipRenounced",
      "type": "event"
    },
    {
      "anonymous": false,
      "inputs": [
        {
          "indexed": true,
          "name": "previousOwner",
          "type": "address"
        },
        {
          "indexed": true,
          "name": "newOwner",
          "type": "address"
        }
      ],
      "name": "OwnershipTransferred",
      "type": "event"
    },
    {
      "anonymous": false,
      "inputs": [
        {
          "indexed": true,
          "name": "_from",
          "type": "address"
        },
        {
          "indexed": true,
          "name": "_to",
          "type": "address"
        },
        {
          "indexed": false,
          "name": "_value",
          "type": "uint256"
        }
      ],
      "name": "Transfer",
      "type": "event"
    },
    {
      "anonymous": false,
      "inputs": [
        {
          "indexed": true,
          "name": "_owner",
          "type": "address"
        },
        {
          "indexed": true,
          "name": "_spender",
          "type": "address"
        },
        {
          "indexed": false,
          "name": "_value",
          "type": "uint256"
        }
      ],
      "name": "Approval",
      "type": "event"
    },
    {
      "constant": false,
      "inputs": [
        {
          "name": "_charId",
          "type": "uint256"
        },
        {
          "name": "_zoneId",
          "type": "uint256"
        }
      ],
      "name": "questing",
      "outputs": [
        {
          "name": "",
          "type": "bool"
        }
      ],
      "payable": false,
      "stateMutability": "nonpayable",
      "type": "function"
    },
    {
      "constant": true,
      "inputs": [
        {
          "name": "_id",
          "type": "uint256"
        }
      ],
      "name": "getZone",
      "outputs": [
        {
          "name": "id",
          "type": "uint256"
        },
        {
          "name": "name",
          "type": "string"
        },
        {
          "name": "lvlReq",
          "type": "uint256"
        },
        {
          "name": "successRate",
          "type": "uint256"
        },
        {
          "name": "exp",
          "type": "uint256"
        },
        {
          "name": "continent",
          "type": "uint256"
        },
        {
          "name": "currencyReward",
          "type": "uint256"
        }
      ],
      "payable": false,
      "stateMutability": "view",
      "type": "function"
    },
    {
      "constant": true,
      "inputs": [],
      "name": "getZoneCount",
      "outputs": [
        {
          "name": "length",
          "type": "uint256"
        }
      ],
      "payable": false,
      "stateMutability": "view",
      "type": "function"
    },
    {
      "constant": false,
      "inputs": [
        {
          "name": "_name",
          "type": "string"
        },
        {
          "name": "_lvlReq",
          "type": "uint8"
        },
        {
          "name": "_successRate",
          "type": "uint8"
        },
        {
          "name": "_exp",
          "type": "uint64"
        },
        {
          "name": "_continent",
          "type": "uint8"
        },
        {
          "name": "_currencyReward",
          "type": "uint64"
        }
      ],
      "name": "addNewZone",
      "outputs": [],
      "payable": false,
      "stateMutability": "nonpayable",
      "type": "function"
    }
  ],
  "bytecode": "0x60806040526000600660146101000a81548160ff0219169083151502179055506004600755606460085560006009556014600a556002600b55603c6010553480156200004a57600080fd5b506509184e72a0006040805190810160405280600c81526020017f5761726372616674436f696e000000000000000000000000000000000000000081525060126040805190810160405280600381526020017f574343000000000000000000000000000000000000000000000000000000000081525083600160003373ffffffffffffffffffffffffffffffffffffffff1673ffffffffffffffffffffffffffffffffffffffff168152602001908152602001600020819055508360008190555082600390805190602001906200012392919062000e4d565b5081600460006101000a81548160ff021916908360ff16021790555080600590805190602001906200015792919062000e4d565b505050505033600660006101000a81548173ffffffffffffffffffffffffffffffffffffffff021916908373ffffffffffffffffffffffffffffffffffffffff160217905550600f60c0604051908101604052806040805190810160405280600781526020017f4475726f746172000000000000000000000000000000000000000000000000008152508152602001600160ff168152602001606460ff168152602001606467ffffffffffffffff168152602001600060ff168152602001600167ffffffffffffffff168152509080600181540180825580915050906001820390600052602060002090600202016000909192909190915060008201518160000190805190602001906200026d92919062000ed4565b5060208201518160010160006101000a81548160ff021916908360ff16021790555060408201518160010160016101000a81548160ff021916908360ff16021790555060608201518160010160026101000a81548167ffffffffffffffff021916908367ffffffffffffffff160217905550608082015181600101600a6101000a81548160ff021916908360ff16021790555060a082015181600101600b6101000a81548167ffffffffffffffff021916908367ffffffffffffffff160217905550505050600f60c0604051908101604052806040805190810160405280600d81526020017f456c77796e6e20466f72657374000000000000000000000000000000000000008152508152602001600160ff168152602001606460ff168152602001606467ffffffffffffffff168152602001600160ff168152602001600167ffffffffffffffff168152509080600181540180825580915050906001820390600052602060002090600202016000909192909190915060008201518160000190805190602001906200040292919062000ed4565b5060208201518160010160006101000a81548160ff021916908360ff16021790555060408201518160010160016101000a81548160ff021916908360ff16021790555060608201518160010160026101000a81548167ffffffffffffffff021916908367ffffffffffffffff160217905550608082015181600101600a6101000a81548160ff021916908360ff16021790555060a082015181600101600b6101000a81548167ffffffffffffffff021916908367ffffffffffffffff160217905550505050600f60c0604051908101604052806040805190810160405280600781526020017f42617272656e73000000000000000000000000000000000000000000000000008152508152602001600560ff168152602001605a60ff168152602001608c67ffffffffffffffff168152602001600060ff168152602001600267ffffffffffffffff168152509080600181540180825580915050906001820390600052602060002090600202016000909192909190915060008201518160000190805190602001906200059792919062000ed4565b5060208201518160010160006101000a81548160ff021916908360ff16021790555060408201518160010160016101000a81548160ff021916908360ff16021790555060608201518160010160026101000a81548167ffffffffffffffff021916908367ffffffffffffffff160217905550608082015181600101600a6101000a81548160ff021916908360ff16021790555060a082015181600101600b6101000a81548167ffffffffffffffff021916908367ffffffffffffffff160217905550505050600f60c0604051908101604052806040805190810160405280600a81526020017f4c6f6368204d6f64616e000000000000000000000000000000000000000000008152508152602001600560ff168152602001605a60ff168152602001608c67ffffffffffffffff168152602001600160ff168152602001600267ffffffffffffffff168152509080600181540180825580915050906001820390600052602060002090600202016000909192909190915060008201518160000190805190602001906200072c92919062000ed4565b5060208201518160010160006101000a81548160ff021916908360ff16021790555060408201518160010160016101000a81548160ff021916908360ff16021790555060608201518160010160026101000a81548167ffffffffffffffff021916908367ffffffffffffffff160217905550608082015181600101600a6101000a81548160ff021916908360ff16021790555060a082015181600101600b6101000a81548167ffffffffffffffff021916908367ffffffffffffffff160217905550505050600f60c0604051908101604052806040805190810160405280601481526020017f53746f6e6574616c6f6e204d6f756e7461696e730000000000000000000000008152508152602001600a60ff168152602001605060ff16815260200160dc67ffffffffffffffff168152602001600060ff168152602001600367ffffffffffffffff16815250908060018154018082558091505090600182039060005260206000209060020201600090919290919091506000820151816000019080519060200190620008c192919062000ed4565b5060208201518160010160006101000a81548160ff021916908360ff16021790555060408201518160010160016101000a81548160ff021916908360ff16021790555060608201518160010160026101000a81548167ffffffffffffffff021916908367ffffffffffffffff160217905550608082015181600101600a6101000a81548160ff021916908360ff16021790555060a082015181600101600b6101000a81548167ffffffffffffffff021916908367ffffffffffffffff160217905550505050600f60c0604051908101604052806040805190810160405280601281526020017f5265647269646765204d6f756e7461696e7300000000000000000000000000008152508152602001600a60ff168152602001605060ff16815260200160dc67ffffffffffffffff168152602001600160ff168152602001600367ffffffffffffffff1681525090806001815401808255809150509060018203906000526020600020906002020160009091929091909150600082015181600001908051906020019062000a5692919062000ed4565b5060208201518160010160006101000a81548160ff021916908360ff16021790555060408201518160010160016101000a81548160ff021916908360ff16021790555060608201518160010160026101000a81548167ffffffffffffffff021916908367ffffffffffffffff160217905550608082015181600101600a6101000a81548160ff021916908360ff16021790555060a082015181600101600b6101000a81548167ffffffffffffffff021916908367ffffffffffffffff160217905550505050600f60c0604051908101604052806040805190810160405280600981526020017f417368656e76616c6500000000000000000000000000000000000000000000008152508152602001600f60ff168152602001603c60ff1681526020016101f467ffffffffffffffff168152602001600060ff168152602001600467ffffffffffffffff1681525090806001815401808255809150509060018203906000526020600020906002020160009091929091909150600082015181600001908051906020019062000bec92919062000ed4565b5060208201518160010160006101000a81548160ff021916908360ff16021790555060408201518160010160016101000a81548160ff021916908360ff16021790555060608201518160010160026101000a81548167ffffffffffffffff021916908367ffffffffffffffff160217905550608082015181600101600a6101000a81548160ff021916908360ff16021790555060a082015181600101600b6101000a81548167ffffffffffffffff021916908367ffffffffffffffff160217905550505050600f60c0604051908101604052806040805190810160405280600881526020017f4475736b776f6f640000000000000000000000000000000000000000000000008152508152602001600f60ff168152602001603c60ff1681526020016101f467ffffffffffffffff168152602001600160ff168152602001600467ffffffffffffffff1681525090806001815401808255809150509060018203906000526020600020906002020160009091929091909150600082015181600001908051906020019062000d8292919062000ed4565b5060208201518160010160006101000a81548160ff021916908360ff16021790555060408201518160010160016101000a81548160ff021916908360ff16021790555060608201518160010160026101000a81548167ffffffffffffffff021916908367ffffffffffffffff160217905550608082015181600101600a6101000a81548160ff021916908360ff16021790555060a082015181600101600b6101000a81548167ffffffffffffffff021916908367ffffffffffffffff16021790555050505062000f83565b828054600181600116156101000203166002900490600052602060002090601f016020900481019282601f1062000e9057805160ff191683800117855562000ec1565b8280016001018555821562000ec1579182015b8281111562000ec057825182559160200191906001019062000ea3565b5b50905062000ed0919062000f5b565b5090565b828054600181600116156101000203166002900490600052602060002090601f016020900481019282601f1062000f1757805160ff191683800117855562000f48565b8280016001018555821562000f48579182015b8281111562000f4757825182559160200191906001019062000f2a565b5b50905062000f57919062000f5b565b5090565b62000f8091905b8082111562000f7c57600081600090555060010162000f62565b5090565b90565b6136628062000f936000396000f3006080604052600436106101ac576000357c0100000000000000000000000000000000000000000000000000000000900463ffffffff168063014ef0c6146101b157806306fdde0314610208578063095ea7b31461029857806311ee0ec5146102fd57806313a3d057146103cd57806317ffb736146103fa57806318160ddd1461048357806319e7ce8b146104ae57806323b872dd1461051b57806327e235e3146105a0578063313ce567146105f75780633b260aa2146106285780633f4ba83a1461065357806341c0e1b51461066a5780634810bc59146106815780634c572d18146107505780635c658165146107d95780635c975abb1461085057806365df8ce71461087f57806370a08231146108aa578063715018a6146109015780638456cb59146109185780638da5cb5b1461092f57806395d89b41146109865780639b96eece14610a16578063a73e1c7314610a6d578063a9059cbb14610abc578063ad127c8a14610b21578063d83a0fe114610bb9578063dabb053114610c71578063dd62ed3e14610d41578063efef39a114610db8578063f2fde38b14610dfd578063fc7c9bfb14610e40575b600080fd5b3480156101bd57600080fd5b506101f2600480360381019080803573ffffffffffffffffffffffffffffffffffffffff169060200190929190505050610e6b565b6040518082815260200191505060405180910390f35b34801561021457600080fd5b5061021d610e83565b6040518080602001828103825283818151815260200191508051906020019080838360005b8381101561025d578082015181840152602081019050610242565b50505050905090810190601f16801561028a5780820380516001836020036101000a031916815260200191505b509250505060405180910390f35b3480156102a457600080fd5b506102e3600480360381019080803573ffffffffffffffffffffffffffffffffffffffff16906020019092919080359060200190929190505050610f21565b604051808215151515815260200191505060405180910390f35b34801561030957600080fd5b5061032860048036038101908080359060200190929190505050611013565b6040518088815260200180602001878152602001868152602001858152602001848152602001838152602001828103825288818151815260200191508051906020019080838360005b8381101561038c578082015181840152602081019050610371565b50505050905090810190601f1680156103b95780820380516001836020036101000a031916815260200191505b509850505050505050505060405180910390f35b3480156103d957600080fd5b506103f860048036038101908080359060200190929190505050611217565b005b34801561040657600080fd5b5061046d600480360381019080803590602001908201803590602001908080601f016020809104026020016040519081016040528093929190818152602001838380828437820191505050505050919291929080351515906020019092919050505061131d565b6040518082815260200191505060405180910390f35b34801561048f57600080fd5b50610498611604565b6040518082815260200191505060405180910390f35b3480156104ba57600080fd5b506104d96004803603810190808035906020019092919050505061160a565b604051808273ffffffffffffffffffffffffffffffffffffffff1673ffffffffffffffffffffffffffffffffffffffff16815260200191505060405180910390f35b34801561052757600080fd5b50610586600480360381019080803573ffffffffffffffffffffffffffffffffffffffff169060200190929190803573ffffffffffffffffffffffffffffffffffffffff1690602001909291908035906020019092919050505061163d565b604051808215151515815260200191505060405180910390f35b3480156105ac57600080fd5b506105e1600480360381019080803573ffffffffffffffffffffffffffffffffffffffff1690602001909291905050506118d7565b6040518082815260200191505060405180910390f35b34801561060357600080fd5b5061060c6118ef565b604051808260ff1660ff16815260200191505060405180910390f35b34801561063457600080fd5b5061063d611902565b6040518082815260200191505060405180910390f35b34801561065f57600080fd5b5061066861190f565b005b34801561067657600080fd5b5061067f6119cf565b005b34801561068d57600080fd5b506106ac60048036038101908080359060200190929190505050611a66565b60405180806020018781526020018660ff1660ff168152602001858152602001848152602001838152602001828103825288818151815260200191508051906020019080838360005b838110156107105780820151818401526020810190506106f5565b50505050905090810190601f16801561073d5780820380516001836020036101000a031916815260200191505b5097505050505050505060405180910390f35b34801561075c57600080fd5b506107c3600480360381019080803590602001908201803590602001908080601f0160208091040260200160405190810160405280939291908181526020018383808284378201915050505050509192919290803515159060200190929190505050611b56565b6040518082815260200191505060405180910390f35b3480156107e557600080fd5b5061083a600480360381019080803573ffffffffffffffffffffffffffffffffffffffff169060200190929190803573ffffffffffffffffffffffffffffffffffffffff169060200190929190505050611d88565b6040518082815260200191505060405180910390f35b34801561085c57600080fd5b50610865611dad565b604051808215151515815260200191505060405180910390f35b34801561088b57600080fd5b50610894611dc0565b6040518082815260200191505060405180910390f35b3480156108b657600080fd5b506108eb600480360381019080803573ffffffffffffffffffffffffffffffffffffffff169060200190929190505050611dcd565b6040518082815260200191505060405180910390f35b34801561090d57600080fd5b50610916611e16565b005b34801561092457600080fd5b5061092d611f1b565b005b34801561093b57600080fd5b50610944611fdc565b604051808273ffffffffffffffffffffffffffffffffffffffff1673ffffffffffffffffffffffffffffffffffffffff16815260200191505060405180910390f35b34801561099257600080fd5b5061099b612002565b6040518080602001828103825283818151815260200191508051906020019080838360005b838110156109db5780820151818401526020810190506109c0565b50505050905090810190601f168015610a085780820380516001836020036101000a031916815260200191505b509250505060405180910390f35b348015610a2257600080fd5b50610a57600480360381019080803573ffffffffffffffffffffffffffffffffffffffff1690602001909291905050506120a0565b6040518082815260200191505060405180910390f35b348015610a7957600080fd5b50610aa260048036038101908080359060200190929190803590602001909291905050506120b2565b604051808215151515815260200191505060405180910390f35b348015610ac857600080fd5b50610b07600480360381019080803573ffffffffffffffffffffffffffffffffffffffff16906020019092919080359060200190929190505050612615565b604051808215151515815260200191505060405180910390f35b348015610b2d57600080fd5b50610b62600480360381019080803573ffffffffffffffffffffffffffffffffffffffff16906020019092919050505061276e565b6040518080602001828103825283818151815260200191508051906020019060200280838360005b83811015610ba5578082015181840152602081019050610b8a565b505050509050019250505060405180910390f35b348015610bc557600080fd5b50610c6f600480360381019080803590602001908201803590602001908080601f0160208091040260200160405190810160405280939291908181526020018383808284378201915050505050509192919290803560ff169060200190929190803560ff169060200190929190803567ffffffffffffffff169060200190929190803560ff169060200190929190803567ffffffffffffffff16906020019092919050505061289a565b005b348015610c7d57600080fd5b50610c9c60048036038101908080359060200190929190505050612b4f565b6040518088815260200180602001878152602001868152602001858152602001848152602001838152602001828103825288818151815260200191508051906020019080838360005b83811015610d00578082015181840152602081019050610ce5565b50505050905090810190601f168015610d2d5780820380516001836020036101000a031916815260200191505b509850505050505050505060405180910390f35b348015610d4d57600080fd5b50610da2600480360381019080803573ffffffffffffffffffffffffffffffffffffffff169060200190929190803573ffffffffffffffffffffffffffffffffffffffff169060200190929190505050612cb7565b6040518082815260200191505060405180910390f35b348015610dc457600080fd5b50610de360048036038101908080359060200190929190505050612d3e565b604051808215151515815260200191505060405180910390f35b348015610e0957600080fd5b50610e3e600480360381019080803573ffffffffffffffffffffffffffffffffffffffff169060200190929190505050612d8f565b005b348015610e4c57600080fd5b50610e55612df7565b6040518082815260200191505060405180910390f35b600e6020528060005260406000206000915090505481565b60038054600181600116156101000203166002900480601f016020809104026020016040519081016040528092919081815260200182805460018160011615610100020316600290048015610f195780601f10610eee57610100808354040283529160200191610f19565b820191906000526020600020905b815481529060010190602001808311610efc57829003601f168201915b505050505081565b600081600260003373ffffffffffffffffffffffffffffffffffffffff1673ffffffffffffffffffffffffffffffffffffffff16815260200190815260200160002060008573ffffffffffffffffffffffffffffffffffffffff1673ffffffffffffffffffffffffffffffffffffffff168152602001908152602001600020819055508273ffffffffffffffffffffffffffffffffffffffff163373ffffffffffffffffffffffffffffffffffffffff167f8c5be1e5ebec7d5bd14f71427d1e84f3dd0314c0f7b2291e5b200ac8c7c3b925846040518082815260200191505060405180910390a36001905092915050565b600060606000806000806000611027613503565b600f8981548110151561103657fe5b906000526020600020906002020160c06040519081016040529081600082018054600181600116156101000203166002900480601f0160208091040260200160405190810160405280929190818152602001828054600181600116156101000203166002900480156110e95780601f106110be576101008083540402835291602001916110e9565b820191906000526020600020905b8154815290600101906020018083116110cc57829003601f168201915b505050505081526020016001820160009054906101000a900460ff1660ff1660ff1681526020016001820160019054906101000a900460ff1660ff1660ff1681526020016001820160029054906101000a900467ffffffffffffffff1667ffffffffffffffff1667ffffffffffffffff16815260200160018201600a9054906101000a900460ff1660ff1660ff16815260200160018201600b9054906101000a900467ffffffffffffffff1667ffffffffffffffff1667ffffffffffffffff1681525050905088816000015182602001518360400151846060015185608001518660a001518595508460ff1694508360ff1693508267ffffffffffffffff1692508160ff1691508067ffffffffffffffff169050975097509750975097509750975050919395979092949650565b600660009054906101000a900473ffffffffffffffffffffffffffffffffffffffff1673ffffffffffffffffffffffffffffffffffffffff163373ffffffffffffffffffffffffffffffffffffffff1614151561127357600080fd5b80600b5414151515611313576040517f08c379a00000000000000000000000000000000000000000000000000000000081526004018080602001828103825260398152602001807f596f752061726520747279696e6720746f2073657420746865206e657720636f81526020017f737420746f207768617420697420616c7265616479207761730000000000000081525060400191505060405180910390fd5b80600b8190555050565b600080600084601e81511115151561139d576040517f08c379a00000000000000000000000000000000000000000000000000000000081526004018080602001828103825260158152602001807f4e616d65206c656e67746820746f6f206c6f6e6721000000000000000000000081525060200191505060405180910390fd5b6000600e60003373ffffffffffffffffffffffffffffffffffffffff1673ffffffffffffffffffffffffffffffffffffffff168152602001908152602001600020541015151561147b576040517f08c379a000000000000000000000000000000000000000000000000000000000815260040180806020018281038252602f8152602001807f54686973206163636f756e74206861736e27742068616420686973206672656581526020017f206368617261637465722079657421000000000000000000000000000000000081525060400191505060405180910390fd5b600b5461148733611dcd565b10151515611523576040517f08c379a000000000000000000000000000000000000000000000000000000000815260040180806020018281038252602f8152602001807f596f7520646f6e2774206861766520656e6f756768207761726372616674436f81526020017f696e7320746f207075726368617365000000000000000000000000000000000081525060400191505060405180910390fd5b61152e600b54612d3e565b5085336040518083805190602001908083835b6020831015156115665780518252602082019150602081019050602083039250611541565b6001836020036101000a0380198251168184511680821785525050505050509050018273ffffffffffffffffffffffffffffffffffffffff1673ffffffffffffffffffffffffffffffffffffffff166c01000000000000000000000000028152601401925050506040518091039020600190049250600754600a0a838115156115eb57fe5b0691506115f9868387612dfd565b935050505092915050565b60005481565b600d6020528060005260406000206000915054906101000a900473ffffffffffffffffffffffffffffffffffffffff1681565b600080600260008673ffffffffffffffffffffffffffffffffffffffff1673ffffffffffffffffffffffffffffffffffffffff16815260200190815260200160002060003373ffffffffffffffffffffffffffffffffffffffff1673ffffffffffffffffffffffffffffffffffffffff16815260200190815260200160002054905082600160008773ffffffffffffffffffffffffffffffffffffffff1673ffffffffffffffffffffffffffffffffffffffff168152602001908152602001600020541015801561170e5750828110155b151561171957600080fd5b82600160008673ffffffffffffffffffffffffffffffffffffffff1673ffffffffffffffffffffffffffffffffffffffff1681526020019081526020016000206000828254019250508190555082600160008773ffffffffffffffffffffffffffffffffffffffff1673ffffffffffffffffffffffffffffffffffffffff168152602001908152602001600020600082825403925050819055507fffffffffffffffffffffffffffffffffffffffffffffffffffffffffffffffff8110156118665782600260008773ffffffffffffffffffffffffffffffffffffffff1673ffffffffffffffffffffffffffffffffffffffff16815260200190815260200160002060003373ffffffffffffffffffffffffffffffffffffffff1673ffffffffffffffffffffffffffffffffffffffff168152602001908152602001600020600082825403925050819055505b8373ffffffffffffffffffffffffffffffffffffffff168573ffffffffffffffffffffffffffffffffffffffff167fddf252ad1be2c89b69c2b068fc378daa952ba7f163c4a11628f55a4df523b3ef856040518082815260200191505060405180910390a360019150509392505050565b60016020528060005260406000206000915090505481565b600460009054906101000a900460ff1681565b6000600f80549050905090565b600660009054906101000a900473ffffffffffffffffffffffffffffffffffffffff1673ffffffffffffffffffffffffffffffffffffffff163373ffffffffffffffffffffffffffffffffffffffff1614151561196b57600080fd5b600660149054906101000a900460ff16151561198657600080fd5b6000600660146101000a81548160ff0219169083151502179055507f7805862f689e2f13df9f062ff482ad3ad112aca9e0847911ed832e158c525b3360405160405180910390a1565b600660009054906101000a900473ffffffffffffffffffffffffffffffffffffffff1673ffffffffffffffffffffffffffffffffffffffff163373ffffffffffffffffffffffffffffffffffffffff16141515611a2b57600080fd5b600660009054906101000a900473ffffffffffffffffffffffffffffffffffffffff1673ffffffffffffffffffffffffffffffffffffffff16ff5b600c81815481101515611a7557fe5b9060005260206000209060060201600091509050806000018054600181600116156101000203166002900480601f016020809104026020016040519081016040528092919081815260200182805460018160011615610100020316600290048015611b215780601f10611af657610100808354040283529160200191611b21565b820191906000526020600020905b815481529060010190602001808311611b0457829003601f168201915b5050505050908060010154908060020160009054906101000a900460ff16908060030154908060040154908060050154905086565b600080600084601e815111151515611bd6576040517f08c379a00000000000000000000000000000000000000000000000000000000081526004018080602001828103825260158152602001807f4e616d65206c656e67746820746f6f206c6f6e6721000000000000000000000081525060200191505060405180910390fd5b6000600e60003373ffffffffffffffffffffffffffffffffffffffff1673ffffffffffffffffffffffffffffffffffffffff16815260200190815260200160002054141515611cb3576040517f08c379a000000000000000000000000000000000000000000000000000000000815260040180806020018281038252603b8152602001807f4e6f742061206e6577206163636f756e742c20616c726561647920676f74206181526020017f2063686172616374657220746f2074686973206164647265737373000000000081525060400191505060405180910390fd5b85336040518083805190602001908083835b602083101515611cea5780518252602082019150602081019050602083039250611cc5565b6001836020036101000a0380198251168184511680821785525050505050509050018273ffffffffffffffffffffffffffffffffffffffff1673ffffffffffffffffffffffffffffffffffffffff166c01000000000000000000000000028152601401925050506040518091039020600190049250600754600a0a83811515611d6f57fe5b069150611d7d868387612dfd565b935050505092915050565b6002602052816000526040600020602052806000526040600020600091509150505481565b600660149054906101000a900460ff1681565b6000600c80549050905090565b6000600160008373ffffffffffffffffffffffffffffffffffffffff1673ffffffffffffffffffffffffffffffffffffffff168152602001908152602001600020549050919050565b600660009054906101000a900473ffffffffffffffffffffffffffffffffffffffff1673ffffffffffffffffffffffffffffffffffffffff163373ffffffffffffffffffffffffffffffffffffffff16141515611e7257600080fd5b600660009054906101000a900473ffffffffffffffffffffffffffffffffffffffff1673ffffffffffffffffffffffffffffffffffffffff167ff8df31144d9c2f0f6b59d69b8b98abd5459d07f2742c4df920b25aae33c6482060405160405180910390a26000600660006101000a81548173ffffffffffffffffffffffffffffffffffffffff021916908373ffffffffffffffffffffffffffffffffffffffff160217905550565b600660009054906101000a900473ffffffffffffffffffffffffffffffffffffffff1673ffffffffffffffffffffffffffffffffffffffff163373ffffffffffffffffffffffffffffffffffffffff16141515611f7757600080fd5b600660149054906101000a900460ff16151515611f9357600080fd5b6001600660146101000a81548160ff0219169083151502179055507f6985a02210a168e66602d3235cb6db0e70f92b3ba4d376a33c0f3d9434bff62560405160405180910390a1565b600660009054906101000a900473ffffffffffffffffffffffffffffffffffffffff1681565b60058054600181600116156101000203166002900480601f0160208091040260200160405190810160405280929190818152602001828054600181600116156101000203166002900480156120985780601f1061206d57610100808354040283529160200191612098565b820191906000526020600020905b81548152906001019060200180831161207b57829003601f168201915b505050505081565b60006120ab82611dcd565b9050919050565b60006120bc613503565b60008085600d600082815260200190815260200160002060009054906101000a900473ffffffffffffffffffffffffffffffffffffffff1673ffffffffffffffffffffffffffffffffffffffff163373ffffffffffffffffffffffffffffffffffffffff161415156121bc576040517f08c379a00000000000000000000000000000000000000000000000000000000081526004018080602001828103825260278152602001807f596f7520617265206e6f7420746865206f776e6572206f66207468697320636881526020017f617261637465720000000000000000000000000000000000000000000000000081525060400191505060405180910390fd5b8642600c828154811015156121cd57fe5b90600052602060002090600602016004015411151515612255576040517f08c379a00000000000000000000000000000000000000000000000000000000081526004018080602001828103825260188152602001807f436861726163746572206e6f742072656164792079657421000000000000000081525060200191505060405180910390fd5b600660149054906101000a900460ff1615151561227157600080fd5b600f8781548110151561228057fe5b906000526020600020906002020160c06040519081016040529081600082018054600181600116156101000203166002900480601f0160208091040260200160405190810160405280929190818152602001828054600181600116156101000203166002900480156123335780601f1061230857610100808354040283529160200191612333565b820191906000526020600020905b81548152906001019060200180831161231657829003601f168201915b505050505081526020016001820160009054906101000a900460ff1660ff1660ff1681526020016001820160019054906101000a900460ff1660ff1660ff1681526020016001820160029054906101000a900467ffffffffffffffff1667ffffffffffffffff1667ffffffffffffffff16815260200160018201600a9054906101000a900460ff1660ff1660ff16815260200160018201600b9054906101000a900467ffffffffffffffff1667ffffffffffffffff1667ffffffffffffffff16815250509450846020015160ff16600c8981548110151561241057fe5b906000526020600020906006020160020160009054906101000a900460ff1660ff16101515156124ce576040517f08c379a00000000000000000000000000000000000000000000000000000000081526004018080602001828103825260318152602001807f5468652063686172616374657220646f6573206e6f742068617665207468652081526020017f6c6576656c20726571756972656d656e7400000000000000000000000000000081525060400191505060405180910390fd5b6064600960008154809291906001019190505533604051808381526020018273ffffffffffffffffffffffffffffffffffffffff1673ffffffffffffffffffffffffffffffffffffffff166c010000000000000000000000000281526014019250505060405180910390206001900481151561254657fe5b06935060009250846040015160ff16841115156125935761257588866060015167ffffffffffffffff166130fb565b60019250612591338660a0015167ffffffffffffffff166131d1565b505b6010544201600c898154811015156125a757fe5b9060005260206000209060060201600401819055507f9200a8d3842b8c4e32bcb017ce87f1c19c3320cad05894df27b6c76d4560a7f48389896040518084151515158152602001838152602001828152602001935050505060405180910390a1829550505050505092915050565b600081600160003373ffffffffffffffffffffffffffffffffffffffff1673ffffffffffffffffffffffffffffffffffffffff168152602001908152602001600020541015151561266557600080fd5b81600160003373ffffffffffffffffffffffffffffffffffffffff1673ffffffffffffffffffffffffffffffffffffffff1681526020019081526020016000206000828254039250508190555081600160008573ffffffffffffffffffffffffffffffffffffffff1673ffffffffffffffffffffffffffffffffffffffff168152602001908152602001600020600082825401925050819055508273ffffffffffffffffffffffffffffffffffffffff163373ffffffffffffffffffffffffffffffffffffffff167fddf252ad1be2c89b69c2b068fc378daa952ba7f163c4a11628f55a4df523b3ef846040518082815260200191505060405180910390a36001905092915050565b606080600080600e60008673ffffffffffffffffffffffffffffffffffffffff1673ffffffffffffffffffffffffffffffffffffffff168152602001908152602001600020546040519080825280602002602001820160405280156127e25781602001602082028038833980820191505090505b509250600090505b600c8054905081101561288f578473ffffffffffffffffffffffffffffffffffffffff16600d600083815260200190815260200160002060009054906101000a900473ffffffffffffffffffffffffffffffffffffffff1673ffffffffffffffffffffffffffffffffffffffff1614156128825780838380600101945081518110151561287357fe5b90602001906020020181815250505b80806001019150506127ea565b829350505050919050565b600660009054906101000a900473ffffffffffffffffffffffffffffffffffffffff1673ffffffffffffffffffffffffffffffffffffffff163373ffffffffffffffffffffffffffffffffffffffff161415156128f657600080fd5b85601e815111151515612971576040517f08c379a00000000000000000000000000000000000000000000000000000000081526004018080602001828103825260158152602001807f4e616d65206c656e67746820746f6f206c6f6e6721000000000000000000000081525060200191505060405180910390fd5b60648560ff16111515156129ed576040517f08c379a000000000000000000000000000000000000000000000000000000000815260040180806020018281038252601c8152602001807f54686520737563636573732072617465206973206f766572203130300000000081525060200191505060405180910390fd5b600f60c0604051908101604052808981526020018860ff1681526020018760ff1681526020018667ffffffffffffffff1681526020018560ff1681526020018467ffffffffffffffff16815250908060018154018082558091505090600182039060005260206000209060020201600090919290919091506000820151816000019080519060200190612a81929190613557565b5060208201518160010160006101000a81548160ff021916908360ff16021790555060408201518160010160016101000a81548160ff021916908360ff16021790555060608201518160010160026101000a81548167ffffffffffffffff021916908367ffffffffffffffff160217905550608082015181600101600a6101000a81548160ff021916908360ff16021790555060a082015181600101600b6101000a81548167ffffffffffffffff021916908367ffffffffffffffff16021790555050505050505050505050565b600060606000806000806000612b636135d7565b600c89815481101515612b7257fe5b906000526020600020906006020160c06040519081016040529081600082018054600181600116156101000203166002900480601f016020809104026020016040519081016040528092919081815260200182805460018160011615610100020316600290048015612c255780601f10612bfa57610100808354040283529160200191612c25565b820191906000526020600020905b815481529060010190602001808311612c0857829003601f168201915b50505050508152602001600182015481526020016002820160009054906101000a900460ff1660ff1660ff168152602001600382015481526020016004820154815260200160058201548152505090508881600001518260200151836040015184606001518560a0015186608001518595508360ff169350975097509750975097509750975050919395979092949650565b6000600260008473ffffffffffffffffffffffffffffffffffffffff1673ffffffffffffffffffffffffffffffffffffffff16815260200190815260200160002060008373ffffffffffffffffffffffffffffffffffffffff1673ffffffffffffffffffffffffffffffffffffffff16815260200190815260200160002054905092915050565b6000600660149054906101000a900460ff16151515612d5c57600080fd5b612d88600660009054906101000a900473ffffffffffffffffffffffffffffffffffffffff1683612615565b9050919050565b600660009054906101000a900473ffffffffffffffffffffffffffffffffffffffff1673ffffffffffffffffffffffffffffffffffffffff163373ffffffffffffffffffffffffffffffffffffffff16141515612deb57600080fd5b612df481613407565b50565b600b5481565b600080600085601e815111151515612e7d576040517f08c379a00000000000000000000000000000000000000000000000000000000081526004018080602001828103825260158152602001807f4e616d65206c656e67746820746f6f206c6f6e6721000000000000000000000081525060200191505060405180910390fd5b8592508415612e94576001600a8402019250612e9b565b600a830292505b600c60c060405190810160405280898152602001858152602001600160ff16815260200160008152602001428152602001600854815250908060018154018082558091505090600182039060005260206000209060060201600090919290919091506000820151816000019080519060200190612f19929190613557565b506020820151816001015560408201518160020160006101000a81548160ff021916908360ff160217905550606082015181600301556080820151816004015560a082015181600501555050915033600d600060018503815260200190815260200160002060006101000a81548173ffffffffffffffffffffffffffffffffffffffff021916908373ffffffffffffffffffffffffffffffffffffffff160217905550600e60003373ffffffffffffffffffffffffffffffffffffffff1673ffffffffffffffffffffffffffffffffffffffff168152602001908152602001600020600081548092919060010191905055507f5630adcc97969060af381c099052ae40588c1a027a248ecb2488390718cc628a33838986604051808573ffffffffffffffffffffffffffffffffffffffff1673ffffffffffffffffffffffffffffffffffffffff16815260200184815260200180602001838152602001828103825284818151815260200191508051906020019080838360005b838110156130ae578082015181840152602081019050613093565b50505050905090810190601f1680156130db5780820380516001836020036101000a031916815260200191505b509550505050505060405180910390a16001820393505050509392505050565b6000600660149054906101000a900460ff1615151561311957600080fd5b600c8381548110151561312857fe5b90600052602060002090600602019050818160030160008282540192505081905550806005015481600301541015156131cc57806005015481600301600082825403925050819055506064600a5482600501540281151561318557fe5b04816005016000828254019250508190555080600201600081819054906101000a900460ff168092919060010191906101000a81548160ff021916908360ff160217905550505b505050565b6000600660149054906101000a900460ff161515156131ef57600080fd5b60008261321d600660009054906101000a900473ffffffffffffffffffffffffffffffffffffffff16611dcd565b03101515156132ba576040517f08c379a000000000000000000000000000000000000000000000000000000000815260040180806020018281038252603a8152602001807f4f776e657227732062616c616e63652077696c6c206265203c2030206966207981526020017f6f7520636f6e74696e75652074686973206f7065726174696f6e00000000000081525060400191505060405180910390fd5b8160016000600660009054906101000a900473ffffffffffffffffffffffffffffffffffffffff1673ffffffffffffffffffffffffffffffffffffffff1673ffffffffffffffffffffffffffffffffffffffff1681526020019081526020016000206000828254039250508190555081600160008573ffffffffffffffffffffffffffffffffffffffff1673ffffffffffffffffffffffffffffffffffffffff168152602001908152602001600020600082825401925050819055503373ffffffffffffffffffffffffffffffffffffffff16600660009054906101000a900473ffffffffffffffffffffffffffffffffffffffff1673ffffffffffffffffffffffffffffffffffffffff167fddf252ad1be2c89b69c2b068fc378daa952ba7f163c4a11628f55a4df523b3ef846040518082815260200191505060405180910390a36001905092915050565b600073ffffffffffffffffffffffffffffffffffffffff168173ffffffffffffffffffffffffffffffffffffffff161415151561344357600080fd5b8073ffffffffffffffffffffffffffffffffffffffff16600660009054906101000a900473ffffffffffffffffffffffffffffffffffffffff1673ffffffffffffffffffffffffffffffffffffffff167f8be0079c531659141344cd1fd0a4f28419497f9722a3daafe3b4186f6b6457e060405160405180910390a380600660006101000a81548173ffffffffffffffffffffffffffffffffffffffff021916908373ffffffffffffffffffffffffffffffffffffffff16021790555050565b60c06040519081016040528060608152602001600060ff168152602001600060ff168152602001600067ffffffffffffffff168152602001600060ff168152602001600067ffffffffffffffff1681525090565b828054600181600116156101000203166002900490600052602060002090601f016020900481019282601f1061359857805160ff19168380011785556135c6565b828001600101855582156135c6579182015b828111156135c55782518255916020019190600101906135aa565b5b5090506135d39190613611565b5090565b60c0604051908101604052806060815260200160008152602001600060ff1681526020016000815260200160008152602001600081525090565b61363391905b8082111561362f576000816000905550600101613617565b5090565b905600a165627a7a723058203f2c625b55c4bd342c41d1413cd1ff1fbd49b9658fc09498e3226e31f0ce41340029",
  "source": "pragma solidity ^0.4.24;\r\nimport \"./Warcraft.sol\";\r\n\r\ncontract WarcraftZones is Warcraft{\r\n    \r\n    Zone[] zones;\r\n    uint zoneDowntime = 60 seconds;\r\n    \r\n    struct Zone{\r\n        string name;\r\n        uint8 lvlRequirement;\r\n        // The success rate is always under 100%\r\n        uint8 successRate;\r\n        uint64 exp;\r\n        //continent : 0 => Kalimdor, 1 => Eastern kingdoms\r\n        uint8 continent;\r\n        // cryptoCoin reward, since 2^64 should be enough of a reward, maybe even too much\r\n        uint64 currencyReward;\r\n    } \r\n\r\n    /** @dev Indicates when quest has been done.\r\n    * @param _success returns weather or not the quest succeeded.\r\n    * @param _charId Id of the character doing the quest.\r\n    * @param _questId Id of the quest being quested.\r\n    */\r\n    event questDone(bool _success,uint _charId,uint _questId);\r\n\r\n\r\n    /** @dev The contract's constructor. Generates the zones for the game.\r\n      */\r\n    constructor() public{\r\n        zones.push(Zone(\"Durotar\",1,100,100,0,1));\r\n        zones.push(Zone(\"Elwynn Forest\",1,100,100,1,1));\r\n        zones.push(Zone(\"Barrens\",5,90,140,0,2));\r\n        zones.push(Zone(\"Loch Modan\",5,90,140,1,2));\r\n        zones.push(Zone(\"Stonetalon Mountains\",10,80,220,0,3));\r\n        zones.push(Zone(\"Redridge Mountains\",10,80,220,1,3));\r\n        zones.push(Zone(\"Ashenvale\",15,60,500,0,4));\r\n        zones.push(Zone(\"Duskwood\",15,60,500,1,4));\r\n    }\r\n    \r\n    /** @dev Function handling the gain of experience of a character.\r\n      * @param _charId The character gaining the experience.\r\n      * @param _exp The amount of experience the character is gaining.\r\n      */\r\n    function getExp(uint _charId,uint _exp) internal whenNotPaused(){\r\n        Character storage char = characters[_charId];\r\n        char.exp += _exp;\r\n        if(char.exp >= char.toNextLvl){\r\n            char.exp -= char.toNextLvl;\r\n            char.toNextLvl += char.toNextLvl*expRate/100;\r\n            char.lvl++;\r\n        }\r\n    }\r\n    \r\n    /** @dev Makes the character(_charId) quest in a zone.\r\n      * @param _charId The character doing the quest.\r\n      * @param _zoneId The Id of the zone the character will quest in.\r\n      * @return bool : Returns the success of the quest.\r\n      */\r\n    function questing(uint _charId, uint _zoneId) public onlyCharacterOwner(_charId) isReady(_charId) whenNotPaused() returns(bool){\r\n        Zone memory zone = zones[_zoneId];\r\n        require(characters[_charId].lvl >= zone.lvlRequirement, \"The character does not have the level requirement\");\r\n        uint rand = uint(keccak256(randNonce++,msg.sender))%100;\r\n        bool success = false;\r\n        if(rand <= zone.successRate){\r\n            getExp(_charId,zone.exp);\r\n            success = true;\r\n            giveToken(msg.sender,zone.currencyReward);\r\n        }\r\n        characters[_charId].ready = now + zoneDowntime;\r\n        emit questDone(success,_charId,_zoneId);\r\n        return success;\r\n    }\r\n\r\n    /** @dev Get's the zone's information.\r\n      * @param _id The zone's Id.\r\n      * @return id : the zone's Id.\r\n      * @return name : the zone's name.\r\n      * @return lvlReq : the level required to quest in the zone.\r\n      * @return successRate : the zone's success rate.\r\n      * @return exp : the experience gained when questing in the zone.\r\n      * @return _continent : the quest's continent location.\r\n      * @return _currencyReward : the quest's reward.\r\n      */\r\n    function getZone(uint _id) public view returns(\r\n    uint id,string name,uint lvlReq,uint successRate,uint exp,uint continent, uint currencyReward){\r\n        Zone memory zone = zones[_id];\r\n        return (_id,zone.name,zone.lvlRequirement,zone.successRate,zone.exp,zone.continent,zone.currencyReward);\r\n    }\r\n\r\n    /** @dev Returns the amount of zones in the game.\r\n      * @return length : the amount of zones.\r\n      */\r\n    function getZoneCount() public view returns(uint length){\r\n        return zones.length;\r\n    }\r\n\r\n    /** @dev Adds a new zone to the game. (ONLY OWNER)\r\n      * @param _name : the zone's name.\r\n      * @param _lvlReq : the level required to quest in the zone.\r\n      * @param _successRate : the zone's success rate.\r\n      * @param _exp : the experience gained when questing in the zone.\r\n      * @param _continent : the quest's continent location.\r\n      * @param _currencyReward : the quest's reward.\r\n      */\r\n    function addNewZone(string _name, uint8 _lvlReq, uint8 _successRate, uint64 _exp, uint8 _continent, uint64 _currencyReward) \r\n    public onlyOwner() checkNameSize(_name){\r\n        require(_successRate <= 100,\"The success rate is over 100\");\r\n        zones.push(Zone(_name,_lvlReq,_successRate,_exp,_continent,_currencyReward));\r\n    }\r\n    \r\n}",
  "sourcePath": "C:\\Users\\Louis\\Documents\\projects\\crypto-warcraft\\contracts\\WarcraftZones.sol",
  "compiler": {
    "name": "solc",
    "version": "0.4.24+commit.e67f0147.Emscripten.clang"
  },
  "schemaVersion": "2.0.1",
  "updatedAt": "2018-08-25T11:43:37.920Z"
}