{
  "contractName": "Warcraft",
  "abi": [
    {
      "constant": true,
      "inputs": [
        {
          "name": "",
          "type": "address"
        }
      ],
      "name": "characterCount",
      "outputs": [
        {
          "name": "",
          "type": "uint256"
        }
      ],
      "payable": false,
      "stateMutability": "view",
      "type": "function"
    },
    {
      "constant": true,
      "inputs": [],
      "name": "name",
      "outputs": [
        {
          "name": "",
          "type": "string"
        }
      ],
      "payable": false,
      "stateMutability": "view",
      "type": "function"
    },
    {
      "constant": false,
      "inputs": [
        {
          "name": "_spender",
          "type": "address"
        },
        {
          "name": "_value",
          "type": "uint256"
        }
      ],
      "name": "approve",
      "outputs": [
        {
          "name": "success",
          "type": "bool"
        }
      ],
      "payable": false,
      "stateMutability": "nonpayable",
      "type": "function"
    },
    {
      "constant": true,
      "inputs": [],
      "name": "totalSupply",
      "outputs": [
        {
          "name": "",
          "type": "uint256"
        }
      ],
      "payable": false,
      "stateMutability": "view",
      "type": "function"
    },
    {
      "constant": true,
      "inputs": [
        {
          "name": "",
          "type": "uint256"
        }
      ],
      "name": "characterToOwner",
      "outputs": [
        {
          "name": "",
          "type": "address"
        }
      ],
      "payable": false,
      "stateMutability": "view",
      "type": "function"
    },
    {
      "constant": false,
      "inputs": [
        {
          "name": "_from",
          "type": "address"
        },
        {
          "name": "_to",
          "type": "address"
        },
        {
          "name": "_value",
          "type": "uint256"
        }
      ],
      "name": "transferFrom",
      "outputs": [
        {
          "name": "success",
          "type": "bool"
        }
      ],
      "payable": false,
      "stateMutability": "nonpayable",
      "type": "function"
    },
    {
      "constant": true,
      "inputs": [
        {
          "name": "",
          "type": "address"
        }
      ],
      "name": "balances",
      "outputs": [
        {
          "name": "",
          "type": "uint256"
        }
      ],
      "payable": false,
      "stateMutability": "view",
      "type": "function"
    },
    {
      "constant": true,
      "inputs": [],
      "name": "decimals",
      "outputs": [
        {
          "name": "",
          "type": "uint8"
        }
      ],
      "payable": false,
      "stateMutability": "view",
      "type": "function"
    },
    {
      "constant": true,
      "inputs": [],
      "name": "baseExp",
      "outputs": [
        {
          "name": "",
          "type": "uint256"
        }
      ],
      "payable": false,
      "stateMutability": "view",
      "type": "function"
    },
    {
      "constant": false,
      "inputs": [],
      "name": "unpause",
      "outputs": [],
      "payable": false,
      "stateMutability": "nonpayable",
      "type": "function"
    },
    {
      "constant": true,
      "inputs": [
        {
          "name": "",
          "type": "uint256"
        }
      ],
      "name": "characters",
      "outputs": [
        {
          "name": "name",
          "type": "string"
        },
        {
          "name": "dna",
          "type": "uint256"
        },
        {
          "name": "lvl",
          "type": "uint8"
        },
        {
          "name": "exp",
          "type": "uint256"
        },
        {
          "name": "ready",
          "type": "uint256"
        },
        {
          "name": "toNextLvl",
          "type": "uint256"
        }
      ],
      "payable": false,
      "stateMutability": "view",
      "type": "function"
    },
    {
      "constant": true,
      "inputs": [
        {
          "name": "",
          "type": "address"
        },
        {
          "name": "",
          "type": "address"
        }
      ],
      "name": "allowed",
      "outputs": [
        {
          "name": "",
          "type": "uint256"
        }
      ],
      "payable": false,
      "stateMutability": "view",
      "type": "function"
    },
    {
      "constant": true,
      "inputs": [],
      "name": "paused",
      "outputs": [
        {
          "name": "",
          "type": "bool"
        }
      ],
      "payable": false,
      "stateMutability": "view",
      "type": "function"
    },
    {
      "constant": true,
      "inputs": [],
      "name": "randNonce",
      "outputs": [
        {
          "name": "",
          "type": "uint256"
        }
      ],
      "payable": false,
      "stateMutability": "view",
      "type": "function"
    },
    {
      "constant": true,
      "inputs": [
        {
          "name": "_owner",
          "type": "address"
        }
      ],
      "name": "balanceOf",
      "outputs": [
        {
          "name": "balance",
          "type": "uint256"
        }
      ],
      "payable": false,
      "stateMutability": "view",
      "type": "function"
    },
    {
      "constant": false,
      "inputs": [],
      "name": "renounceOwnership",
      "outputs": [],
      "payable": false,
      "stateMutability": "nonpayable",
      "type": "function"
    },
    {
      "constant": false,
      "inputs": [],
      "name": "pause",
      "outputs": [],
      "payable": false,
      "stateMutability": "nonpayable",
      "type": "function"
    },
    {
      "constant": true,
      "inputs": [],
      "name": "owner",
      "outputs": [
        {
          "name": "",
          "type": "address"
        }
      ],
      "payable": false,
      "stateMutability": "view",
      "type": "function"
    },
    {
      "constant": true,
      "inputs": [],
      "name": "symbol",
      "outputs": [
        {
          "name": "",
          "type": "string"
        }
      ],
      "payable": false,
      "stateMutability": "view",
      "type": "function"
    },
    {
      "constant": true,
      "inputs": [
        {
          "name": "_address",
          "type": "address"
        }
      ],
      "name": "getBalanceOf",
      "outputs": [
        {
          "name": "",
          "type": "uint256"
        }
      ],
      "payable": false,
      "stateMutability": "view",
      "type": "function"
    },
    {
      "constant": false,
      "inputs": [
        {
          "name": "_to",
          "type": "address"
        },
        {
          "name": "_value",
          "type": "uint256"
        }
      ],
      "name": "transfer",
      "outputs": [
        {
          "name": "success",
          "type": "bool"
        }
      ],
      "payable": false,
      "stateMutability": "nonpayable",
      "type": "function"
    },
    {
      "constant": true,
      "inputs": [],
      "name": "maxLevel",
      "outputs": [
        {
          "name": "",
          "type": "uint256"
        }
      ],
      "payable": false,
      "stateMutability": "view",
      "type": "function"
    },
    {
      "constant": true,
      "inputs": [
        {
          "name": "_owner",
          "type": "address"
        },
        {
          "name": "_spender",
          "type": "address"
        }
      ],
      "name": "allowance",
      "outputs": [
        {
          "name": "remaining",
          "type": "uint256"
        }
      ],
      "payable": false,
      "stateMutability": "view",
      "type": "function"
    },
    {
      "constant": false,
      "inputs": [
        {
          "name": "_value",
          "type": "uint256"
        }
      ],
      "name": "purchase",
      "outputs": [
        {
          "name": "",
          "type": "bool"
        }
      ],
      "payable": false,
      "stateMutability": "nonpayable",
      "type": "function"
    },
    {
      "constant": false,
      "inputs": [
        {
          "name": "_newOwner",
          "type": "address"
        }
      ],
      "name": "transferOwnership",
      "outputs": [],
      "payable": false,
      "stateMutability": "nonpayable",
      "type": "function"
    },
    {
      "constant": true,
      "inputs": [],
      "name": "newRandomCharacterCost",
      "outputs": [
        {
          "name": "",
          "type": "uint256"
        }
      ],
      "payable": false,
      "stateMutability": "view",
      "type": "function"
    },
    {
      "anonymous": false,
      "inputs": [
        {
          "indexed": false,
          "name": "_address",
          "type": "address"
        },
        {
          "indexed": false,
          "name": "_charId",
          "type": "uint256"
        },
        {
          "indexed": false,
          "name": "_name",
          "type": "string"
        },
        {
          "indexed": false,
          "name": "_dna",
          "type": "uint256"
        }
      ],
      "name": "characterCreated",
      "type": "event"
    },
    {
      "anonymous": false,
      "inputs": [],
      "name": "Pause",
      "type": "event"
    },
    {
      "anonymous": false,
      "inputs": [],
      "name": "Unpause",
      "type": "event"
    },
    {
      "anonymous": false,
      "inputs": [
        {
          "indexed": true,
          "name": "previousOwner",
          "type": "address"
        }
      ],
      "name": "OwnershipRenounced",
      "type": "event"
    },
    {
      "anonymous": false,
      "inputs": [
        {
          "indexed": true,
          "name": "previousOwner",
          "type": "address"
        },
        {
          "indexed": true,
          "name": "newOwner",
          "type": "address"
        }
      ],
      "name": "OwnershipTransferred",
      "type": "event"
    },
    {
      "anonymous": false,
      "inputs": [
        {
          "indexed": true,
          "name": "_from",
          "type": "address"
        },
        {
          "indexed": true,
          "name": "_to",
          "type": "address"
        },
        {
          "indexed": false,
          "name": "_value",
          "type": "uint256"
        }
      ],
      "name": "Transfer",
      "type": "event"
    },
    {
      "anonymous": false,
      "inputs": [
        {
          "indexed": true,
          "name": "_owner",
          "type": "address"
        },
        {
          "indexed": true,
          "name": "_spender",
          "type": "address"
        },
        {
          "indexed": false,
          "name": "_value",
          "type": "uint256"
        }
      ],
      "name": "Approval",
      "type": "event"
    },
    {
      "constant": false,
      "inputs": [
        {
          "name": "_name",
          "type": "string"
        },
        {
          "name": "_faction",
          "type": "bool"
        }
      ],
      "name": "createAccount",
      "outputs": [
        {
          "name": "_id",
          "type": "uint256"
        }
      ],
      "payable": false,
      "stateMutability": "nonpayable",
      "type": "function"
    },
    {
      "constant": false,
      "inputs": [
        {
          "name": "_name",
          "type": "string"
        },
        {
          "name": "_faction",
          "type": "bool"
        }
      ],
      "name": "createNewRandomCharacter",
      "outputs": [
        {
          "name": "_id",
          "type": "uint256"
        }
      ],
      "payable": false,
      "stateMutability": "nonpayable",
      "type": "function"
    },
    {
      "constant": true,
      "inputs": [
        {
          "name": "_id",
          "type": "uint256"
        }
      ],
      "name": "getCharacter",
      "outputs": [
        {
          "name": "id",
          "type": "uint256"
        },
        {
          "name": "name",
          "type": "string"
        },
        {
          "name": "dna",
          "type": "uint256"
        },
        {
          "name": "lvl",
          "type": "uint256"
        },
        {
          "name": "exp",
          "type": "uint256"
        },
        {
          "name": "toNextLvl",
          "type": "uint256"
        },
        {
          "name": "ready",
          "type": "uint256"
        }
      ],
      "payable": false,
      "stateMutability": "view",
      "type": "function"
    },
    {
      "constant": true,
      "inputs": [
        {
          "name": "_owner",
          "type": "address"
        }
      ],
      "name": "getCharacters",
      "outputs": [
        {
          "name": "",
          "type": "uint256[]"
        }
      ],
      "payable": false,
      "stateMutability": "view",
      "type": "function"
    },
    {
      "constant": false,
      "inputs": [
        {
          "name": "_newCost",
          "type": "uint256"
        }
      ],
      "name": "changeNewRandomCharacterCost",
      "outputs": [],
      "payable": false,
      "stateMutability": "nonpayable",
      "type": "function"
    },
    {
      "constant": false,
      "inputs": [
        {
          "name": "_newMaxLevel",
          "type": "uint8"
        }
      ],
      "name": "changeMaxLevel",
      "outputs": [],
      "payable": false,
      "stateMutability": "nonpayable",
      "type": "function"
    },
    {
      "constant": false,
      "inputs": [],
      "name": "kill",
      "outputs": [],
      "payable": false,
      "stateMutability": "nonpayable",
      "type": "function"
    },
    {
      "constant": false,
      "inputs": [],
      "name": "getCharacterCount",
      "outputs": [
        {
          "name": "",
          "type": "uint256"
        }
      ],
      "payable": false,
      "stateMutability": "nonpayable",
      "type": "function"
    }
  ],
  "bytecode": "0x60806040526000600660146101000a81548160ff0219169083151502179055506004600755606460085560326009556000600a556014600b556002600c556509184e72a0006040805190810160405280600c81526020017f5761726372616674436f696e000000000000000000000000000000000000000081525060126040805190810160405280600381526020017f574343000000000000000000000000000000000000000000000000000000000081525083600160003373ffffffffffffffffffffffffffffffffffffffff1673ffffffffffffffffffffffffffffffffffffffff168152602001908152602001600020819055508360008190555082600390805190602001906200011592919062000195565b5081600460006101000a81548160ff021916908360ff16021790555080600590805190602001906200014992919062000195565b505050505033600660006101000a81548173ffffffffffffffffffffffffffffffffffffffff021916908373ffffffffffffffffffffffffffffffffffffffff16021790555062000244565b828054600181600116156101000203166002900490600052602060002090601f016020900481019282601f10620001d857805160ff191683800117855562000209565b8280016001018555821562000209579182015b8281111562000208578251825591602001919060010190620001eb565b5b5090506200021891906200021c565b5090565b6200024191905b808211156200023d57600081600090555060010162000223565b5090565b90565b61293080620002546000396000f3006080604052600436106101ac576000357c0100000000000000000000000000000000000000000000000000000000900463ffffffff168063014ef0c6146101b157806306fdde0314610208578063095ea7b31461029857806313a3d057146102fd57806317ffb7361461032a57806318160ddd146103b357806319e7ce8b146103de57806323b872dd1461044b57806327e235e3146104d0578063313ce5671461052757806335efed4d146105585780633f4ba83a1461058357806341c0e1b51461059a5780634810bc59146105b15780634c572d18146106805780635c658165146107095780635c975abb1461078057806361e01356146107af57806365df8ce7146107da5780636ed5517f1461080557806370a0823114610835578063715018a61461088c5780638456cb59146108a35780638da5cb5b146108ba57806395d89b41146109115780639b96eece146109a1578063a9059cbb146109f8578063ad127c8a14610a5d578063cc06c35914610af5578063dabb053114610b20578063dd62ed3e14610bf0578063efef39a114610c67578063f2fde38b14610cac578063fc7c9bfb14610cef575b600080fd5b3480156101bd57600080fd5b506101f2600480360381019080803573ffffffffffffffffffffffffffffffffffffffff169060200190929190505050610d1a565b6040518082815260200191505060405180910390f35b34801561021457600080fd5b5061021d610d32565b6040518080602001828103825283818151815260200191508051906020019080838360005b8381101561025d578082015181840152602081019050610242565b50505050905090810190601f16801561028a5780820380516001836020036101000a031916815260200191505b509250505060405180910390f35b3480156102a457600080fd5b506102e3600480360381019080803573ffffffffffffffffffffffffffffffffffffffff16906020019092919080359060200190929190505050610dd0565b604051808215151515815260200191505060405180910390f35b34801561030957600080fd5b5061032860048036038101908080359060200190929190505050610ec2565b005b34801561033657600080fd5b5061039d600480360381019080803590602001908201803590602001908080601f0160208091040260200160405190810160405280939291908181526020018383808284378201915050505050509192919290803515159060200190929190505050610fe3565b6040518082815260200191505060405180910390f35b3480156103bf57600080fd5b506103c86112e6565b6040518082815260200191505060405180910390f35b3480156103ea57600080fd5b50610409600480360381019080803590602001909291905050506112ec565b604051808273ffffffffffffffffffffffffffffffffffffffff1673ffffffffffffffffffffffffffffffffffffffff16815260200191505060405180910390f35b34801561045757600080fd5b506104b6600480360381019080803573ffffffffffffffffffffffffffffffffffffffff169060200190929190803573ffffffffffffffffffffffffffffffffffffffff1690602001909291908035906020019092919050505061131f565b604051808215151515815260200191505060405180910390f35b3480156104dc57600080fd5b50610511600480360381019080803573ffffffffffffffffffffffffffffffffffffffff1690602001909291905050506115b9565b6040518082815260200191505060405180910390f35b34801561053357600080fd5b5061053c6115d1565b604051808260ff1660ff16815260200191505060405180910390f35b34801561056457600080fd5b5061056d6115e4565b6040518082815260200191505060405180910390f35b34801561058f57600080fd5b506105986115ea565b005b3480156105a657600080fd5b506105af6116aa565b005b3480156105bd57600080fd5b506105dc60048036038101908080359060200190929190505050611741565b60405180806020018781526020018660ff1660ff168152602001858152602001848152602001838152602001828103825288818151815260200191508051906020019080838360005b83811015610640578082015181840152602081019050610625565b50505050905090810190601f16801561066d5780820380516001836020036101000a031916815260200191505b5097505050505050505060405180910390f35b34801561068c57600080fd5b506106f3600480360381019080803590602001908201803590602001908080601f0160208091040260200160405190810160405280939291908181526020018383808284378201915050505050509192919290803515159060200190929190505050611831565b6040518082815260200191505060405180910390f35b34801561071557600080fd5b5061076a600480360381019080803573ffffffffffffffffffffffffffffffffffffffff169060200190929190803573ffffffffffffffffffffffffffffffffffffffff169060200190929190505050611a7f565b6040518082815260200191505060405180910390f35b34801561078c57600080fd5b50610795611aa4565b604051808215151515815260200191505060405180910390f35b3480156107bb57600080fd5b506107c4611ab7565b6040518082815260200191505060405180910390f35b3480156107e657600080fd5b506107ef611abd565b6040518082815260200191505060405180910390f35b34801561081157600080fd5b50610833600480360381019080803560ff169060200190929190505050611aca565b005b34801561084157600080fd5b50610876600480360381019080803573ffffffffffffffffffffffffffffffffffffffff169060200190929190505050611bf1565b6040518082815260200191505060405180910390f35b34801561089857600080fd5b506108a1611c3a565b005b3480156108af57600080fd5b506108b8611d3f565b005b3480156108c657600080fd5b506108cf611e00565b604051808273ffffffffffffffffffffffffffffffffffffffff1673ffffffffffffffffffffffffffffffffffffffff16815260200191505060405180910390f35b34801561091d57600080fd5b50610926611e26565b6040518080602001828103825283818151815260200191508051906020019080838360005b8381101561096657808201518184015260208101905061094b565b50505050905090810190601f1680156109935780820380516001836020036101000a031916815260200191505b509250505060405180910390f35b3480156109ad57600080fd5b506109e2600480360381019080803573ffffffffffffffffffffffffffffffffffffffff169060200190929190505050611ec4565b6040518082815260200191505060405180910390f35b348015610a0457600080fd5b50610a43600480360381019080803573ffffffffffffffffffffffffffffffffffffffff16906020019092919080359060200190929190505050611ed6565b604051808215151515815260200191505060405180910390f35b348015610a6957600080fd5b50610a9e600480360381019080803573ffffffffffffffffffffffffffffffffffffffff16906020019092919050505061202f565b6040518080602001828103825283818151815260200191508051906020019060200280838360005b83811015610ae1578082015181840152602081019050610ac6565b505050509050019250505060405180910390f35b348015610b0157600080fd5b50610b0a61215b565b6040518082815260200191505060405180910390f35b348015610b2c57600080fd5b50610b4b60048036038101908080359060200190929190505050612161565b6040518088815260200180602001878152602001868152602001858152602001848152602001838152602001828103825288818151815260200191508051906020019080838360005b83811015610baf578082015181840152602081019050610b94565b50505050905090810190601f168015610bdc5780820380516001836020036101000a031916815260200191505b509850505050505050505060405180910390f35b348015610bfc57600080fd5b50610c51600480360381019080803573ffffffffffffffffffffffffffffffffffffffff169060200190929190803573ffffffffffffffffffffffffffffffffffffffff1690602001909291905050506122c9565b6040518082815260200191505060405180910390f35b348015610c7357600080fd5b50610c9260048036038101908080359060200190929190505050612350565b604051808215151515815260200191505060405180910390f35b348015610cb857600080fd5b50610ced600480360381019080803573ffffffffffffffffffffffffffffffffffffffff1690602001909291905050506123a1565b005b348015610cfb57600080fd5b50610d04612409565b6040518082815260200191505060405180910390f35b600f6020528060005260406000206000915090505481565b60038054600181600116156101000203166002900480601f016020809104026020016040519081016040528092919081815260200182805460018160011615610100020316600290048015610dc85780601f10610d9d57610100808354040283529160200191610dc8565b820191906000526020600020905b815481529060010190602001808311610dab57829003601f168201915b505050505081565b600081600260003373ffffffffffffffffffffffffffffffffffffffff1673ffffffffffffffffffffffffffffffffffffffff16815260200190815260200160002060008573ffffffffffffffffffffffffffffffffffffffff1673ffffffffffffffffffffffffffffffffffffffff168152602001908152602001600020819055508273ffffffffffffffffffffffffffffffffffffffff163373ffffffffffffffffffffffffffffffffffffffff167f8c5be1e5ebec7d5bd14f71427d1e84f3dd0314c0f7b2291e5b200ac8c7c3b925846040518082815260200191505060405180910390a36001905092915050565b600660149054906101000a900460ff161515610edd57600080fd5b600660009054906101000a900473ffffffffffffffffffffffffffffffffffffffff1673ffffffffffffffffffffffffffffffffffffffff163373ffffffffffffffffffffffffffffffffffffffff16141515610f3957600080fd5b80600c5414151515610fd9576040517f08c379a00000000000000000000000000000000000000000000000000000000081526004018080602001828103825260398152602001807f596f752061726520747279696e6720746f2073657420746865206e657720636f81526020017f737420746f207768617420697420616c7265616479207761730000000000000081525060400191505060405180910390fd5b80600c8190555050565b600080600084601e815111151515611063576040517f08c379a00000000000000000000000000000000000000000000000000000000081526004018080602001828103825260158152602001807f4e616d65206c656e67746820746f6f206c6f6e6721000000000000000000000081525060200191505060405180910390fd5b600660149054906101000a900460ff1615151561107f57600080fd5b6000600f60003373ffffffffffffffffffffffffffffffffffffffff1673ffffffffffffffffffffffffffffffffffffffff168152602001908152602001600020541015151561115d576040517f08c379a000000000000000000000000000000000000000000000000000000000815260040180806020018281038252602f8152602001807f54686973206163636f756e74206861736e27742068616420686973206672656581526020017f206368617261637465722079657421000000000000000000000000000000000081525060400191505060405180910390fd5b600c5461116933611bf1565b10151515611205576040517f08c379a000000000000000000000000000000000000000000000000000000000815260040180806020018281038252602f8152602001807f596f7520646f6e2774206861766520656e6f756768207761726372616674436f81526020017f696e7320746f207075726368617365000000000000000000000000000000000081525060400191505060405180910390fd5b611210600c54612350565b5085336040518083805190602001908083835b6020831015156112485780518252602082019150602081019050602083039250611223565b6001836020036101000a0380198251168184511680821785525050505050509050018273ffffffffffffffffffffffffffffffffffffffff1673ffffffffffffffffffffffffffffffffffffffff166c01000000000000000000000000028152601401925050506040518091039020600190049250600754600a0a838115156112cd57fe5b0691506112db86838761240f565b935050505092915050565b60005481565b600e6020528060005260406000206000915054906101000a900473ffffffffffffffffffffffffffffffffffffffff1681565b600080600260008673ffffffffffffffffffffffffffffffffffffffff1673ffffffffffffffffffffffffffffffffffffffff16815260200190815260200160002060003373ffffffffffffffffffffffffffffffffffffffff1673ffffffffffffffffffffffffffffffffffffffff16815260200190815260200160002054905082600160008773ffffffffffffffffffffffffffffffffffffffff1673ffffffffffffffffffffffffffffffffffffffff16815260200190815260200160002054101580156113f05750828110155b15156113fb57600080fd5b82600160008673ffffffffffffffffffffffffffffffffffffffff1673ffffffffffffffffffffffffffffffffffffffff1681526020019081526020016000206000828254019250508190555082600160008773ffffffffffffffffffffffffffffffffffffffff1673ffffffffffffffffffffffffffffffffffffffff168152602001908152602001600020600082825403925050819055507fffffffffffffffffffffffffffffffffffffffffffffffffffffffffffffffff8110156115485782600260008773ffffffffffffffffffffffffffffffffffffffff1673ffffffffffffffffffffffffffffffffffffffff16815260200190815260200160002060003373ffffffffffffffffffffffffffffffffffffffff1673ffffffffffffffffffffffffffffffffffffffff168152602001908152602001600020600082825403925050819055505b8373ffffffffffffffffffffffffffffffffffffffff168573ffffffffffffffffffffffffffffffffffffffff167fddf252ad1be2c89b69c2b068fc378daa952ba7f163c4a11628f55a4df523b3ef856040518082815260200191505060405180910390a360019150509392505050565b60016020528060005260406000206000915090505481565b600460009054906101000a900460ff1681565b60085481565b600660009054906101000a900473ffffffffffffffffffffffffffffffffffffffff1673ffffffffffffffffffffffffffffffffffffffff163373ffffffffffffffffffffffffffffffffffffffff1614151561164657600080fd5b600660149054906101000a900460ff16151561166157600080fd5b6000600660146101000a81548160ff0219169083151502179055507f7805862f689e2f13df9f062ff482ad3ad112aca9e0847911ed832e158c525b3360405160405180910390a1565b600660009054906101000a900473ffffffffffffffffffffffffffffffffffffffff1673ffffffffffffffffffffffffffffffffffffffff163373ffffffffffffffffffffffffffffffffffffffff1614151561170657600080fd5b600660009054906101000a900473ffffffffffffffffffffffffffffffffffffffff1673ffffffffffffffffffffffffffffffffffffffff16ff5b600d8181548110151561175057fe5b9060005260206000209060060201600091509050806000018054600181600116156101000203166002900480601f0160208091040260200160405190810160405280929190818152602001828054600181600116156101000203166002900480156117fc5780601f106117d1576101008083540402835291602001916117fc565b820191906000526020600020905b8154815290600101906020018083116117df57829003601f168201915b5050505050908060010154908060020160009054906101000a900460ff16908060030154908060040154908060050154905086565b600080600084601e8151111515156118b1576040517f08c379a00000000000000000000000000000000000000000000000000000000081526004018080602001828103825260158152602001807f4e616d65206c656e67746820746f6f206c6f6e6721000000000000000000000081525060200191505060405180910390fd5b600660149054906101000a900460ff161515156118cd57600080fd5b6000600f60003373ffffffffffffffffffffffffffffffffffffffff1673ffffffffffffffffffffffffffffffffffffffff168152602001908152602001600020541415156119aa576040517f08c379a000000000000000000000000000000000000000000000000000000000815260040180806020018281038252603b8152602001807f4e6f742061206e6577206163636f756e742c20616c726561647920676f74206181526020017f2063686172616374657220746f2074686973206164647265737373000000000081525060400191505060405180910390fd5b85336040518083805190602001908083835b6020831015156119e157805182526020820191506020810190506020830392506119bc565b6001836020036101000a0380198251168184511680821785525050505050509050018273ffffffffffffffffffffffffffffffffffffffff1673ffffffffffffffffffffffffffffffffffffffff166c01000000000000000000000000028152601401925050506040518091039020600190049250600754600a0a83811515611a6657fe5b069150611a7486838761240f565b935050505092915050565b6002602052816000526040600020602052806000526040600020600091509150505481565b600660149054906101000a900460ff1681565b600a5481565b6000600d80549050905090565b600660149054906101000a900460ff161515611ae557600080fd5b600660009054906101000a900473ffffffffffffffffffffffffffffffffffffffff1673ffffffffffffffffffffffffffffffffffffffff163373ffffffffffffffffffffffffffffffffffffffff16141515611b4157600080fd5b8060ff1660095414151515611be4576040517f08c379a000000000000000000000000000000000000000000000000000000000815260040180806020018281038252603d8152602001807f596f752061726520747279696e6720746f2073657420746865206e6577206d6181526020017f784c6576656c20746f207768617420697420616c72656164792077617300000081525060400191505060405180910390fd5b8060ff1660098190555050565b6000600160008373ffffffffffffffffffffffffffffffffffffffff1673ffffffffffffffffffffffffffffffffffffffff168152602001908152602001600020549050919050565b600660009054906101000a900473ffffffffffffffffffffffffffffffffffffffff1673ffffffffffffffffffffffffffffffffffffffff163373ffffffffffffffffffffffffffffffffffffffff16141515611c9657600080fd5b600660009054906101000a900473ffffffffffffffffffffffffffffffffffffffff1673ffffffffffffffffffffffffffffffffffffffff167ff8df31144d9c2f0f6b59d69b8b98abd5459d07f2742c4df920b25aae33c6482060405160405180910390a26000600660006101000a81548173ffffffffffffffffffffffffffffffffffffffff021916908373ffffffffffffffffffffffffffffffffffffffff160217905550565b600660009054906101000a900473ffffffffffffffffffffffffffffffffffffffff1673ffffffffffffffffffffffffffffffffffffffff163373ffffffffffffffffffffffffffffffffffffffff16141515611d9b57600080fd5b600660149054906101000a900460ff16151515611db757600080fd5b6001600660146101000a81548160ff0219169083151502179055507f6985a02210a168e66602d3235cb6db0e70f92b3ba4d376a33c0f3d9434bff62560405160405180910390a1565b600660009054906101000a900473ffffffffffffffffffffffffffffffffffffffff1681565b60058054600181600116156101000203166002900480601f016020809104026020016040519081016040528092919081815260200182805460018160011615610100020316600290048015611ebc5780601f10611e9157610100808354040283529160200191611ebc565b820191906000526020600020905b815481529060010190602001808311611e9f57829003601f168201915b505050505081565b6000611ecf82611bf1565b9050919050565b600081600160003373ffffffffffffffffffffffffffffffffffffffff1673ffffffffffffffffffffffffffffffffffffffff1681526020019081526020016000205410151515611f2657600080fd5b81600160003373ffffffffffffffffffffffffffffffffffffffff1673ffffffffffffffffffffffffffffffffffffffff1681526020019081526020016000206000828254039250508190555081600160008573ffffffffffffffffffffffffffffffffffffffff1673ffffffffffffffffffffffffffffffffffffffff168152602001908152602001600020600082825401925050819055508273ffffffffffffffffffffffffffffffffffffffff163373ffffffffffffffffffffffffffffffffffffffff167fddf252ad1be2c89b69c2b068fc378daa952ba7f163c4a11628f55a4df523b3ef846040518082815260200191505060405180910390a36001905092915050565b606080600080600f60008673ffffffffffffffffffffffffffffffffffffffff1673ffffffffffffffffffffffffffffffffffffffff168152602001908152602001600020546040519080825280602002602001820160405280156120a35781602001602082028038833980820191505090505b509250600090505b600d80549050811015612150578473ffffffffffffffffffffffffffffffffffffffff16600e600083815260200190815260200160002060009054906101000a900473ffffffffffffffffffffffffffffffffffffffff1673ffffffffffffffffffffffffffffffffffffffff1614156121435780838380600101945081518110151561213457fe5b90602001906020020181815250505b80806001019150506120ab565b829350505050919050565b60095481565b600060606000806000806000612175612825565b600d8981548110151561218457fe5b906000526020600020906006020160c06040519081016040529081600082018054600181600116156101000203166002900480601f0160208091040260200160405190810160405280929190818152602001828054600181600116156101000203166002900480156122375780601f1061220c57610100808354040283529160200191612237565b820191906000526020600020905b81548152906001019060200180831161221a57829003601f168201915b50505050508152602001600182015481526020016002820160009054906101000a900460ff1660ff1660ff168152602001600382015481526020016004820154815260200160058201548152505090508881600001518260200151836040015184606001518560a0015186608001518595508360ff169350975097509750975097509750975050919395979092949650565b6000600260008473ffffffffffffffffffffffffffffffffffffffff1673ffffffffffffffffffffffffffffffffffffffff16815260200190815260200160002060008373ffffffffffffffffffffffffffffffffffffffff1673ffffffffffffffffffffffffffffffffffffffff16815260200190815260200160002054905092915050565b6000600660149054906101000a900460ff1615151561236e57600080fd5b61239a600660009054906101000a900473ffffffffffffffffffffffffffffffffffffffff1683611ed6565b9050919050565b600660009054906101000a900473ffffffffffffffffffffffffffffffffffffffff1673ffffffffffffffffffffffffffffffffffffffff163373ffffffffffffffffffffffffffffffffffffffff161415156123fd57600080fd5b61240681612729565b50565b600c5481565b600080600085601e81511115151561248f576040517f08c379a00000000000000000000000000000000000000000000000000000000081526004018080602001828103825260158152602001807f4e616d65206c656e67746820746f6f206c6f6e6721000000000000000000000081525060200191505060405180910390fd5b600660149054906101000a900460ff161515156124ab57600080fd5b85925084156124c2576001600a84020192506124c9565b600a830292505b600d60c060405190810160405280898152602001858152602001600160ff1681526020016000815260200142815260200160085481525090806001815401808255809150509060018203906000526020600020906006020160009091929091909150600082015181600001908051906020019061254792919061285f565b506020820151816001015560408201518160020160006101000a81548160ff021916908360ff160217905550606082015181600301556080820151816004015560a082015181600501555050915033600e600060018503815260200190815260200160002060006101000a81548173ffffffffffffffffffffffffffffffffffffffff021916908373ffffffffffffffffffffffffffffffffffffffff160217905550600f60003373ffffffffffffffffffffffffffffffffffffffff1673ffffffffffffffffffffffffffffffffffffffff168152602001908152602001600020600081548092919060010191905055507f5630adcc97969060af381c099052ae40588c1a027a248ecb2488390718cc628a33838986604051808573ffffffffffffffffffffffffffffffffffffffff1673ffffffffffffffffffffffffffffffffffffffff16815260200184815260200180602001838152602001828103825284818151815260200191508051906020019080838360005b838110156126dc5780820151818401526020810190506126c1565b50505050905090810190601f1680156127095780820380516001836020036101000a031916815260200191505b509550505050505060405180910390a16001820393505050509392505050565b600073ffffffffffffffffffffffffffffffffffffffff168173ffffffffffffffffffffffffffffffffffffffff161415151561276557600080fd5b8073ffffffffffffffffffffffffffffffffffffffff16600660009054906101000a900473ffffffffffffffffffffffffffffffffffffffff1673ffffffffffffffffffffffffffffffffffffffff167f8be0079c531659141344cd1fd0a4f28419497f9722a3daafe3b4186f6b6457e060405160405180910390a380600660006101000a81548173ffffffffffffffffffffffffffffffffffffffff021916908373ffffffffffffffffffffffffffffffffffffffff16021790555050565b60c0604051908101604052806060815260200160008152602001600060ff1681526020016000815260200160008152602001600081525090565b828054600181600116156101000203166002900490600052602060002090601f016020900481019282601f106128a057805160ff19168380011785556128ce565b828001600101855582156128ce579182015b828111156128cd5782518255916020019190600101906128b2565b5b5090506128db91906128df565b5090565b61290191905b808211156128fd5760008160009055506001016128e5565b5090565b905600a165627a7a72305820ecbb37d4ea5bf0644de1741d74548bbd147b42defe2bf3b15a2f6cb71e0229f10029",
  "source": "pragma solidity ^0.4.24;\r\n\r\n//import \"./Ownable.sol\";\r\n\r\nimport \"./EIP20.sol\";\r\nimport \"./warcraftCoin.sol\";\r\n\r\ncontract Warcraft is WarcraftCoin{\r\n\r\n    struct Character{\r\n        string name;\r\n        //The Dna of this iteration is pretty simple and allows to just put the basics out. It will have more characteristics in the future.\r\n        uint dna;\r\n        uint8 lvl;\r\n        uint exp;\r\n        //Ready is for specifying when the character is ready to take action\r\n        uint ready;\r\n        //not needed when I remember the non-recursive mathematical expression\r\n        uint toNextLvl;\r\n    }  \r\n    /*\r\n     * @variable Number of traits \r\n     * Race\r\n     * Gender\r\n     * Class\r\n     * Special trait\r\n     */\r\n    uint internal dnaSize = 4;\r\n    uint public baseExp = 100;\r\n    uint public maxLevel = 50;\r\n    uint public randNonce = 0; \r\n    // next level is expRate% more then previous\r\n    uint internal expRate = 20;\r\n    // the cost in warcraftCoins to buy a new character\r\n    uint public newRandomCharacterCost = 2;\r\n    \r\n    Character[] public characters;\r\n    \r\n    mapping(uint => address) public characterToOwner;\r\n    mapping(address => uint) public characterCount;\r\n    \r\n    event characterCreated(address _address,uint _charId,string _name,uint _dna);\r\n    \r\n    modifier onlyCharacterOwner(uint _id){\r\n        require(msg.sender == characterToOwner[_id],\"You are not the owner of this character\");\r\n        _;\r\n    }\r\n\r\n    modifier onlyUnderMaxLevel(uint _charId){\r\n        require(characters[_charId].lvl < maxLevel, \"The character can't do this because he's max level\");\r\n        _;\r\n    }\r\n\r\n    modifier checkNameSize(string _name){\r\n        require(bytes(_name).length <= 30,\"Name length too long!\");\r\n        _;\r\n    }\r\n    \r\n    modifier isReady(uint _id){\r\n        require(characters[_id].ready <= now, \"Character not ready yet!\");\r\n        _;\r\n    }\r\n    \r\n    /** @dev Creates a character.\r\n      * @param _name Name of the character.\r\n      * @param _dna The Dna of the character.\r\n      * @param _faction The faction of the character. Alliance false and Horde true.\r\n      * @dev dna passed into function to allow special functions that can create specific characters.\r\n      * @return _id the id of the newly created char.\r\n      */\r\n    function createCharacter(string _name,uint _dna,bool _faction) internal checkNameSize(_name) whenNotPaused() returns(uint _id){\r\n        uint dna = _dna;\r\n        if(_faction){\r\n            dna = dna*10 + 1;\r\n        }\r\n        else{\r\n            dna = dna*10;\r\n        }\r\n        uint id = characters.push(Character(_name,dna,1,0,uint(now),baseExp));\r\n        characterToOwner[id-1] = msg.sender;\r\n        characterCount[msg.sender]++;\r\n        \r\n        emit characterCreated(msg.sender,id,_name,dna);\r\n        return id-1;\r\n    } \r\n    \r\n    /** @dev \"Creates\" the account by creating the address' first character.\r\n      * @param _name Name of the character.\r\n      * @param _faction The faction of the character. Alliance false and Horde true.\r\n      * @return _id the id of the newly created char.\r\n      */\r\n    function createAccount(string _name,bool _faction) public checkNameSize(_name) whenNotPaused() returns(uint _id){\r\n        require(characterCount[msg.sender] == 0,\"Not a new account, already got a character to this addresss\");\r\n        uint rand = uint(keccak256(_name,msg.sender));\r\n        uint dna = rand % (10**dnaSize);\r\n        \r\n        return createCharacter(_name,dna,_faction);\r\n    }\r\n\r\n    /** @dev create new character.Only available if the user already has a character. \r\n      * @param _name Name of the character.\r\n      * @param _faction The faction of the character. Alliance false and Horde true.\r\n      * @return _id the id of the newly created char.\r\n      * @dev It is currently in Ether and will later cost a token amount\r\n      */\r\n    function createNewRandomCharacter(string _name, bool _faction) public checkNameSize(_name) whenNotPaused() returns(uint _id){\r\n        require(characterCount[msg.sender] >= 0,\"This account hasn't had his free character yet!\");\r\n        require(balanceOf(msg.sender) >= newRandomCharacterCost, \"You don't have enough warcraftCoins to purchase\");\r\n        \r\n        purchase(newRandomCharacterCost);\r\n        uint rand = uint(keccak256(_name,msg.sender));\r\n        uint dna = rand % (10**dnaSize);\r\n\r\n        return createCharacter(_name,dna,_faction);\r\n    }\r\n    \r\n    /** @dev Gets the charcater information.\r\n      * @param _id Id of the character.\r\n      * @return name : Character's name.\r\n      * @return dna : Character's dna.\r\n      * @return lvl : Character's level.\r\n      * @return exp : Character's experience.\r\n      * @return toNextLvl : Character's required exp to get to the next level.\r\n      * @return ready : Character's time at which he is ready to make another action.\r\n      */\r\n    function getCharacter(uint _id) public view returns(uint id,string name, uint dna, uint lvl, uint exp,uint toNextLvl,uint ready){\r\n        Character memory c = characters[_id];\r\n        return(_id,c.name,c.dna,c.lvl,c.exp,c.toNextLvl,c.ready);\r\n    }\r\n\r\n    /** @dev Gets the _owner's characters. used to get current users characters and will be used in future implementations\r\n      * @param _owner The Owner of whome we want to get the characters.\r\n      * @return uint[] : Array containing the id's of the owner's characters.\r\n      */\r\n    function getCharacters(address _owner) public view returns(uint[]){\r\n        uint[] memory chars = new uint[](characterCount[_owner]);\r\n        uint counter;\r\n        for(uint i = 0 ; i < characters.length ; i++){\r\n            if(characterToOwner[i] == _owner){\r\n                chars[counter++] = i;\r\n            }\r\n        }\r\n        return chars;\r\n    }\r\n\r\n    /** @dev Change the cost of making a new random character\r\n      * @param _newCost The new cost of the new random character.\r\n      */\r\n    function changeNewRandomCharacterCost(uint _newCost) public whenPaused() onlyOwner(){\r\n        //Check for unecissary spending of gas\r\n        require(newRandomCharacterCost != _newCost,\"You are trying to set the new cost to what it already was\");\r\n        newRandomCharacterCost = _newCost;\r\n    }\r\n\r\n    /** @dev Change the maximum level of a character\r\n      * @param _newMaxLevel The new maximum level.\r\n      */\r\n    function changeMaxLevel(uint8 _newMaxLevel) public whenPaused() onlyOwner(){\r\n        //Check for unecissary spending of gas\r\n        require(maxLevel != _newMaxLevel,\"You are trying to set the new maxLevel to what it already was\");\r\n        maxLevel = _newMaxLevel;\r\n    }\r\n\r\n    /** \r\n      *  @dev Destroys contract and sends funds to owner\r\n      */\r\n    function kill() public onlyOwner(){\r\n        selfdestruct(owner);\r\n    }\r\n\r\n    /** @dev Returns the amount of characters in the game.\r\n      * @return length : the amount of characters.\r\n      */\r\n    function getCharacterCount() public returns(uint){\r\n        return characters.length;\r\n    }\r\n}\r\n",
  "sourcePath": "C:\\Users\\Louis\\Documents\\projects\\crypto-warcraft\\contracts\\Warcraft.sol",
  "compiler": {
    "name": "solc",
    "version": "0.4.24+commit.e67f0147.Emscripten.clang"
  },
  "schemaVersion": "2.0.1",
  "updatedAt": "2018-08-26T16:34:16.895Z"
}