{
  "contractName": "WarcraftZones",
  "abi": [
    {
      "constant": true,
      "inputs": [
        {
          "name": "",
          "type": "address"
        }
      ],
      "name": "characterCount",
      "outputs": [
        {
          "name": "",
          "type": "uint256"
        }
      ],
      "payable": false,
      "stateMutability": "view",
      "type": "function"
    },
    {
      "constant": true,
      "inputs": [],
      "name": "name",
      "outputs": [
        {
          "name": "",
          "type": "string"
        }
      ],
      "payable": false,
      "stateMutability": "view",
      "type": "function"
    },
    {
      "constant": false,
      "inputs": [
        {
          "name": "_spender",
          "type": "address"
        },
        {
          "name": "_value",
          "type": "uint256"
        }
      ],
      "name": "approve",
      "outputs": [
        {
          "name": "success",
          "type": "bool"
        }
      ],
      "payable": false,
      "stateMutability": "nonpayable",
      "type": "function"
    },
    {
      "constant": false,
      "inputs": [
        {
          "name": "_newCost",
          "type": "uint256"
        }
      ],
      "name": "changeNewRandomCharacterCost",
      "outputs": [],
      "payable": false,
      "stateMutability": "nonpayable",
      "type": "function"
    },
    {
      "constant": false,
      "inputs": [
        {
          "name": "_name",
          "type": "string"
        },
        {
          "name": "_faction",
          "type": "bool"
        }
      ],
      "name": "createNewRandomCharacter",
      "outputs": [
        {
          "name": "_id",
          "type": "uint256"
        }
      ],
      "payable": false,
      "stateMutability": "nonpayable",
      "type": "function"
    },
    {
      "constant": true,
      "inputs": [],
      "name": "totalSupply",
      "outputs": [
        {
          "name": "",
          "type": "uint256"
        }
      ],
      "payable": false,
      "stateMutability": "view",
      "type": "function"
    },
    {
      "constant": true,
      "inputs": [
        {
          "name": "",
          "type": "uint256"
        }
      ],
      "name": "characterToOwner",
      "outputs": [
        {
          "name": "",
          "type": "address"
        }
      ],
      "payable": false,
      "stateMutability": "view",
      "type": "function"
    },
    {
      "constant": false,
      "inputs": [
        {
          "name": "_from",
          "type": "address"
        },
        {
          "name": "_to",
          "type": "address"
        },
        {
          "name": "_value",
          "type": "uint256"
        }
      ],
      "name": "transferFrom",
      "outputs": [
        {
          "name": "success",
          "type": "bool"
        }
      ],
      "payable": false,
      "stateMutability": "nonpayable",
      "type": "function"
    },
    {
      "constant": true,
      "inputs": [
        {
          "name": "",
          "type": "address"
        }
      ],
      "name": "balances",
      "outputs": [
        {
          "name": "",
          "type": "uint256"
        }
      ],
      "payable": false,
      "stateMutability": "view",
      "type": "function"
    },
    {
      "constant": true,
      "inputs": [],
      "name": "decimals",
      "outputs": [
        {
          "name": "",
          "type": "uint8"
        }
      ],
      "payable": false,
      "stateMutability": "view",
      "type": "function"
    },
    {
      "constant": true,
      "inputs": [],
      "name": "baseExp",
      "outputs": [
        {
          "name": "",
          "type": "uint256"
        }
      ],
      "payable": false,
      "stateMutability": "view",
      "type": "function"
    },
    {
      "constant": false,
      "inputs": [],
      "name": "unpause",
      "outputs": [],
      "payable": false,
      "stateMutability": "nonpayable",
      "type": "function"
    },
    {
      "constant": false,
      "inputs": [],
      "name": "kill",
      "outputs": [],
      "payable": false,
      "stateMutability": "nonpayable",
      "type": "function"
    },
    {
      "constant": true,
      "inputs": [
        {
          "name": "",
          "type": "uint256"
        }
      ],
      "name": "characters",
      "outputs": [
        {
          "name": "name",
          "type": "string"
        },
        {
          "name": "dna",
          "type": "uint256"
        },
        {
          "name": "lvl",
          "type": "uint8"
        },
        {
          "name": "exp",
          "type": "uint256"
        },
        {
          "name": "ready",
          "type": "uint256"
        },
        {
          "name": "toNextLvl",
          "type": "uint256"
        }
      ],
      "payable": false,
      "stateMutability": "view",
      "type": "function"
    },
    {
      "constant": false,
      "inputs": [
        {
          "name": "_name",
          "type": "string"
        },
        {
          "name": "_faction",
          "type": "bool"
        }
      ],
      "name": "createAccount",
      "outputs": [
        {
          "name": "_id",
          "type": "uint256"
        }
      ],
      "payable": false,
      "stateMutability": "nonpayable",
      "type": "function"
    },
    {
      "constant": true,
      "inputs": [
        {
          "name": "",
          "type": "address"
        },
        {
          "name": "",
          "type": "address"
        }
      ],
      "name": "allowed",
      "outputs": [
        {
          "name": "",
          "type": "uint256"
        }
      ],
      "payable": false,
      "stateMutability": "view",
      "type": "function"
    },
    {
      "constant": true,
      "inputs": [],
      "name": "paused",
      "outputs": [
        {
          "name": "",
          "type": "bool"
        }
      ],
      "payable": false,
      "stateMutability": "view",
      "type": "function"
    },
    {
      "constant": true,
      "inputs": [],
      "name": "randNonce",
      "outputs": [
        {
          "name": "",
          "type": "uint256"
        }
      ],
      "payable": false,
      "stateMutability": "view",
      "type": "function"
    },
    {
      "constant": false,
      "inputs": [],
      "name": "getCharacterCount",
      "outputs": [
        {
          "name": "",
          "type": "uint256"
        }
      ],
      "payable": false,
      "stateMutability": "nonpayable",
      "type": "function"
    },
    {
      "constant": false,
      "inputs": [
        {
          "name": "_newMaxLevel",
          "type": "uint8"
        }
      ],
      "name": "changeMaxLevel",
      "outputs": [],
      "payable": false,
      "stateMutability": "nonpayable",
      "type": "function"
    },
    {
      "constant": true,
      "inputs": [
        {
          "name": "_owner",
          "type": "address"
        }
      ],
      "name": "balanceOf",
      "outputs": [
        {
          "name": "balance",
          "type": "uint256"
        }
      ],
      "payable": false,
      "stateMutability": "view",
      "type": "function"
    },
    {
      "constant": false,
      "inputs": [],
      "name": "renounceOwnership",
      "outputs": [],
      "payable": false,
      "stateMutability": "nonpayable",
      "type": "function"
    },
    {
      "constant": false,
      "inputs": [],
      "name": "pause",
      "outputs": [],
      "payable": false,
      "stateMutability": "nonpayable",
      "type": "function"
    },
    {
      "constant": true,
      "inputs": [],
      "name": "owner",
      "outputs": [
        {
          "name": "",
          "type": "address"
        }
      ],
      "payable": false,
      "stateMutability": "view",
      "type": "function"
    },
    {
      "constant": true,
      "inputs": [],
      "name": "symbol",
      "outputs": [
        {
          "name": "",
          "type": "string"
        }
      ],
      "payable": false,
      "stateMutability": "view",
      "type": "function"
    },
    {
      "constant": true,
      "inputs": [
        {
          "name": "_address",
          "type": "address"
        }
      ],
      "name": "getBalanceOf",
      "outputs": [
        {
          "name": "",
          "type": "uint256"
        }
      ],
      "payable": false,
      "stateMutability": "view",
      "type": "function"
    },
    {
      "constant": false,
      "inputs": [
        {
          "name": "_to",
          "type": "address"
        },
        {
          "name": "_value",
          "type": "uint256"
        }
      ],
      "name": "transfer",
      "outputs": [
        {
          "name": "success",
          "type": "bool"
        }
      ],
      "payable": false,
      "stateMutability": "nonpayable",
      "type": "function"
    },
    {
      "constant": true,
      "inputs": [
        {
          "name": "_owner",
          "type": "address"
        }
      ],
      "name": "getCharacters",
      "outputs": [
        {
          "name": "",
          "type": "uint256[]"
        }
      ],
      "payable": false,
      "stateMutability": "view",
      "type": "function"
    },
    {
      "constant": true,
      "inputs": [],
      "name": "maxLevel",
      "outputs": [
        {
          "name": "",
          "type": "uint256"
        }
      ],
      "payable": false,
      "stateMutability": "view",
      "type": "function"
    },
    {
      "constant": true,
      "inputs": [
        {
          "name": "_id",
          "type": "uint256"
        }
      ],
      "name": "getCharacter",
      "outputs": [
        {
          "name": "id",
          "type": "uint256"
        },
        {
          "name": "name",
          "type": "string"
        },
        {
          "name": "dna",
          "type": "uint256"
        },
        {
          "name": "lvl",
          "type": "uint256"
        },
        {
          "name": "exp",
          "type": "uint256"
        },
        {
          "name": "toNextLvl",
          "type": "uint256"
        },
        {
          "name": "ready",
          "type": "uint256"
        }
      ],
      "payable": false,
      "stateMutability": "view",
      "type": "function"
    },
    {
      "constant": true,
      "inputs": [
        {
          "name": "_owner",
          "type": "address"
        },
        {
          "name": "_spender",
          "type": "address"
        }
      ],
      "name": "allowance",
      "outputs": [
        {
          "name": "remaining",
          "type": "uint256"
        }
      ],
      "payable": false,
      "stateMutability": "view",
      "type": "function"
    },
    {
      "constant": false,
      "inputs": [
        {
          "name": "_value",
          "type": "uint256"
        }
      ],
      "name": "purchase",
      "outputs": [
        {
          "name": "",
          "type": "bool"
        }
      ],
      "payable": false,
      "stateMutability": "nonpayable",
      "type": "function"
    },
    {
      "constant": false,
      "inputs": [
        {
          "name": "_newOwner",
          "type": "address"
        }
      ],
      "name": "transferOwnership",
      "outputs": [],
      "payable": false,
      "stateMutability": "nonpayable",
      "type": "function"
    },
    {
      "constant": true,
      "inputs": [],
      "name": "newRandomCharacterCost",
      "outputs": [
        {
          "name": "",
          "type": "uint256"
        }
      ],
      "payable": false,
      "stateMutability": "view",
      "type": "function"
    },
    {
      "inputs": [],
      "payable": false,
      "stateMutability": "nonpayable",
      "type": "constructor"
    },
    {
      "anonymous": false,
      "inputs": [
        {
          "indexed": false,
          "name": "_success",
          "type": "bool"
        },
        {
          "indexed": false,
          "name": "_charId",
          "type": "uint256"
        },
        {
          "indexed": false,
          "name": "_questId",
          "type": "uint256"
        }
      ],
      "name": "questDone",
      "type": "event"
    },
    {
      "anonymous": false,
      "inputs": [
        {
          "indexed": false,
          "name": "_address",
          "type": "address"
        },
        {
          "indexed": false,
          "name": "_charId",
          "type": "uint256"
        },
        {
          "indexed": false,
          "name": "_name",
          "type": "string"
        },
        {
          "indexed": false,
          "name": "_dna",
          "type": "uint256"
        }
      ],
      "name": "characterCreated",
      "type": "event"
    },
    {
      "anonymous": false,
      "inputs": [],
      "name": "Pause",
      "type": "event"
    },
    {
      "anonymous": false,
      "inputs": [],
      "name": "Unpause",
      "type": "event"
    },
    {
      "anonymous": false,
      "inputs": [
        {
          "indexed": true,
          "name": "previousOwner",
          "type": "address"
        }
      ],
      "name": "OwnershipRenounced",
      "type": "event"
    },
    {
      "anonymous": false,
      "inputs": [
        {
          "indexed": true,
          "name": "previousOwner",
          "type": "address"
        },
        {
          "indexed": true,
          "name": "newOwner",
          "type": "address"
        }
      ],
      "name": "OwnershipTransferred",
      "type": "event"
    },
    {
      "anonymous": false,
      "inputs": [
        {
          "indexed": true,
          "name": "_from",
          "type": "address"
        },
        {
          "indexed": true,
          "name": "_to",
          "type": "address"
        },
        {
          "indexed": false,
          "name": "_value",
          "type": "uint256"
        }
      ],
      "name": "Transfer",
      "type": "event"
    },
    {
      "anonymous": false,
      "inputs": [
        {
          "indexed": true,
          "name": "_owner",
          "type": "address"
        },
        {
          "indexed": true,
          "name": "_spender",
          "type": "address"
        },
        {
          "indexed": false,
          "name": "_value",
          "type": "uint256"
        }
      ],
      "name": "Approval",
      "type": "event"
    },
    {
      "constant": false,
      "inputs": [
        {
          "name": "_charId",
          "type": "uint256"
        },
        {
          "name": "_zoneId",
          "type": "uint256"
        }
      ],
      "name": "questing",
      "outputs": [
        {
          "name": "",
          "type": "bool"
        }
      ],
      "payable": false,
      "stateMutability": "nonpayable",
      "type": "function"
    },
    {
      "constant": true,
      "inputs": [
        {
          "name": "_id",
          "type": "uint256"
        }
      ],
      "name": "getZone",
      "outputs": [
        {
          "name": "id",
          "type": "uint256"
        },
        {
          "name": "name",
          "type": "string"
        },
        {
          "name": "lvlReq",
          "type": "uint256"
        },
        {
          "name": "successRate",
          "type": "uint256"
        },
        {
          "name": "exp",
          "type": "uint256"
        },
        {
          "name": "continent",
          "type": "uint256"
        },
        {
          "name": "currencyReward",
          "type": "uint256"
        }
      ],
      "payable": false,
      "stateMutability": "view",
      "type": "function"
    },
    {
      "constant": true,
      "inputs": [],
      "name": "getZoneCount",
      "outputs": [
        {
          "name": "length",
          "type": "uint256"
        }
      ],
      "payable": false,
      "stateMutability": "view",
      "type": "function"
    },
    {
      "constant": false,
      "inputs": [
        {
          "name": "_name",
          "type": "string"
        },
        {
          "name": "_lvlReq",
          "type": "uint8"
        },
        {
          "name": "_successRate",
          "type": "uint8"
        },
        {
          "name": "_exp",
          "type": "uint64"
        },
        {
          "name": "_continent",
          "type": "uint8"
        },
        {
          "name": "_currencyReward",
          "type": "uint64"
        }
      ],
      "name": "addNewZone",
      "outputs": [],
      "payable": false,
      "stateMutability": "nonpayable",
      "type": "function"
    }
  ],
  "bytecode": "0x60806040526000600660146101000a81548160ff0219169083151502179055506004600755606460085560326009556000600a556014600b556002600c55603c6011553480156200004f57600080fd5b506509184e72a0006040805190810160405280600c81526020017f5761726372616674436f696e000000000000000000000000000000000000000081525060126040805190810160405280600381526020017f574343000000000000000000000000000000000000000000000000000000000081525083600160003373ffffffffffffffffffffffffffffffffffffffff1673ffffffffffffffffffffffffffffffffffffffff168152602001908152602001600020819055508360008190555082600390805190602001906200012892919062000e52565b5081600460006101000a81548160ff021916908360ff16021790555080600590805190602001906200015c92919062000e52565b505050505033600660006101000a81548173ffffffffffffffffffffffffffffffffffffffff021916908373ffffffffffffffffffffffffffffffffffffffff160217905550601060c0604051908101604052806040805190810160405280600781526020017f4475726f746172000000000000000000000000000000000000000000000000008152508152602001600160ff168152602001606460ff168152602001606467ffffffffffffffff168152602001600060ff168152602001600167ffffffffffffffff168152509080600181540180825580915050906001820390600052602060002090600202016000909192909190915060008201518160000190805190602001906200027292919062000ed9565b5060208201518160010160006101000a81548160ff021916908360ff16021790555060408201518160010160016101000a81548160ff021916908360ff16021790555060608201518160010160026101000a81548167ffffffffffffffff021916908367ffffffffffffffff160217905550608082015181600101600a6101000a81548160ff021916908360ff16021790555060a082015181600101600b6101000a81548167ffffffffffffffff021916908367ffffffffffffffff160217905550505050601060c0604051908101604052806040805190810160405280600d81526020017f456c77796e6e20466f72657374000000000000000000000000000000000000008152508152602001600160ff168152602001606460ff168152602001606467ffffffffffffffff168152602001600160ff168152602001600167ffffffffffffffff168152509080600181540180825580915050906001820390600052602060002090600202016000909192909190915060008201518160000190805190602001906200040792919062000ed9565b5060208201518160010160006101000a81548160ff021916908360ff16021790555060408201518160010160016101000a81548160ff021916908360ff16021790555060608201518160010160026101000a81548167ffffffffffffffff021916908367ffffffffffffffff160217905550608082015181600101600a6101000a81548160ff021916908360ff16021790555060a082015181600101600b6101000a81548167ffffffffffffffff021916908367ffffffffffffffff160217905550505050601060c0604051908101604052806040805190810160405280600781526020017f42617272656e73000000000000000000000000000000000000000000000000008152508152602001600560ff168152602001605a60ff168152602001608c67ffffffffffffffff168152602001600060ff168152602001600267ffffffffffffffff168152509080600181540180825580915050906001820390600052602060002090600202016000909192909190915060008201518160000190805190602001906200059c92919062000ed9565b5060208201518160010160006101000a81548160ff021916908360ff16021790555060408201518160010160016101000a81548160ff021916908360ff16021790555060608201518160010160026101000a81548167ffffffffffffffff021916908367ffffffffffffffff160217905550608082015181600101600a6101000a81548160ff021916908360ff16021790555060a082015181600101600b6101000a81548167ffffffffffffffff021916908367ffffffffffffffff160217905550505050601060c0604051908101604052806040805190810160405280600a81526020017f4c6f6368204d6f64616e000000000000000000000000000000000000000000008152508152602001600560ff168152602001605a60ff168152602001608c67ffffffffffffffff168152602001600160ff168152602001600267ffffffffffffffff168152509080600181540180825580915050906001820390600052602060002090600202016000909192909190915060008201518160000190805190602001906200073192919062000ed9565b5060208201518160010160006101000a81548160ff021916908360ff16021790555060408201518160010160016101000a81548160ff021916908360ff16021790555060608201518160010160026101000a81548167ffffffffffffffff021916908367ffffffffffffffff160217905550608082015181600101600a6101000a81548160ff021916908360ff16021790555060a082015181600101600b6101000a81548167ffffffffffffffff021916908367ffffffffffffffff160217905550505050601060c0604051908101604052806040805190810160405280601481526020017f53746f6e6574616c6f6e204d6f756e7461696e730000000000000000000000008152508152602001600a60ff168152602001605060ff16815260200160dc67ffffffffffffffff168152602001600060ff168152602001600367ffffffffffffffff16815250908060018154018082558091505090600182039060005260206000209060020201600090919290919091506000820151816000019080519060200190620008c692919062000ed9565b5060208201518160010160006101000a81548160ff021916908360ff16021790555060408201518160010160016101000a81548160ff021916908360ff16021790555060608201518160010160026101000a81548167ffffffffffffffff021916908367ffffffffffffffff160217905550608082015181600101600a6101000a81548160ff021916908360ff16021790555060a082015181600101600b6101000a81548167ffffffffffffffff021916908367ffffffffffffffff160217905550505050601060c0604051908101604052806040805190810160405280601281526020017f5265647269646765204d6f756e7461696e7300000000000000000000000000008152508152602001600a60ff168152602001605060ff16815260200160dc67ffffffffffffffff168152602001600160ff168152602001600367ffffffffffffffff1681525090806001815401808255809150509060018203906000526020600020906002020160009091929091909150600082015181600001908051906020019062000a5b92919062000ed9565b5060208201518160010160006101000a81548160ff021916908360ff16021790555060408201518160010160016101000a81548160ff021916908360ff16021790555060608201518160010160026101000a81548167ffffffffffffffff021916908367ffffffffffffffff160217905550608082015181600101600a6101000a81548160ff021916908360ff16021790555060a082015181600101600b6101000a81548167ffffffffffffffff021916908367ffffffffffffffff160217905550505050601060c0604051908101604052806040805190810160405280600981526020017f417368656e76616c6500000000000000000000000000000000000000000000008152508152602001600f60ff168152602001603c60ff1681526020016101f467ffffffffffffffff168152602001600060ff168152602001600467ffffffffffffffff1681525090806001815401808255809150509060018203906000526020600020906002020160009091929091909150600082015181600001908051906020019062000bf192919062000ed9565b5060208201518160010160006101000a81548160ff021916908360ff16021790555060408201518160010160016101000a81548160ff021916908360ff16021790555060608201518160010160026101000a81548167ffffffffffffffff021916908367ffffffffffffffff160217905550608082015181600101600a6101000a81548160ff021916908360ff16021790555060a082015181600101600b6101000a81548167ffffffffffffffff021916908367ffffffffffffffff160217905550505050601060c0604051908101604052806040805190810160405280600881526020017f4475736b776f6f640000000000000000000000000000000000000000000000008152508152602001600f60ff168152602001603c60ff1681526020016101f467ffffffffffffffff168152602001600160ff168152602001600467ffffffffffffffff1681525090806001815401808255809150509060018203906000526020600020906002020160009091929091909150600082015181600001908051906020019062000d8792919062000ed9565b5060208201518160010160006101000a81548160ff021916908360ff16021790555060408201518160010160016101000a81548160ff021916908360ff16021790555060608201518160010160026101000a81548167ffffffffffffffff021916908367ffffffffffffffff160217905550608082015181600101600a6101000a81548160ff021916908360ff16021790555060a082015181600101600b6101000a81548167ffffffffffffffff021916908367ffffffffffffffff16021790555050505062000f88565b828054600181600116156101000203166002900490600052602060002090601f016020900481019282601f1062000e9557805160ff191683800117855562000ec6565b8280016001018555821562000ec6579182015b8281111562000ec557825182559160200191906001019062000ea8565b5b50905062000ed5919062000f60565b5090565b828054600181600116156101000203166002900490600052602060002090601f016020900481019282601f1062000f1c57805160ff191683800117855562000f4d565b8280016001018555821562000f4d579182015b8281111562000f4c57825182559160200191906001019062000f2f565b5b50905062000f5c919062000f60565b5090565b62000f8591905b8082111562000f8157600081600090555060010162000f67565b5090565b90565b613a018062000f986000396000f3006080604052600436106101d8576000357c0100000000000000000000000000000000000000000000000000000000900463ffffffff168063014ef0c6146101dd57806306fdde0314610234578063095ea7b3146102c457806311ee0ec51461032957806313a3d057146103f957806317ffb7361461042657806318160ddd146104af57806319e7ce8b146104da57806323b872dd1461054757806327e235e3146105cc578063313ce5671461062357806335efed4d146106545780633b260aa21461067f5780633f4ba83a146106aa57806341c0e1b5146106c15780634810bc59146106d85780634c572d18146107a75780635c658165146108305780635c975abb146108a757806361e01356146108d657806365df8ce7146109015780636ed5517f1461092c57806370a082311461095c578063715018a6146109b35780638456cb59146109ca5780638da5cb5b146109e157806395d89b4114610a385780639b96eece14610ac8578063a73e1c7314610b1f578063a9059cbb14610b6e578063ad127c8a14610bd3578063cc06c35914610c6b578063d83a0fe114610c96578063dabb053114610d4e578063dd62ed3e14610e1e578063efef39a114610e95578063f2fde38b14610eda578063fc7c9bfb14610f1d575b600080fd5b3480156101e957600080fd5b5061021e600480360381019080803573ffffffffffffffffffffffffffffffffffffffff169060200190929190505050610f48565b6040518082815260200191505060405180910390f35b34801561024057600080fd5b50610249610f60565b6040518080602001828103825283818151815260200191508051906020019080838360005b8381101561028957808201518184015260208101905061026e565b50505050905090810190601f1680156102b65780820380516001836020036101000a031916815260200191505b509250505060405180910390f35b3480156102d057600080fd5b5061030f600480360381019080803573ffffffffffffffffffffffffffffffffffffffff16906020019092919080359060200190929190505050610ffe565b604051808215151515815260200191505060405180910390f35b34801561033557600080fd5b50610354600480360381019080803590602001909291905050506110f0565b6040518088815260200180602001878152602001868152602001858152602001848152602001838152602001828103825288818151815260200191508051906020019080838360005b838110156103b857808201518184015260208101905061039d565b50505050905090810190601f1680156103e55780820380516001836020036101000a031916815260200191505b509850505050505050505060405180910390f35b34801561040557600080fd5b50610424600480360381019080803590602001909291905050506112f4565b005b34801561043257600080fd5b50610499600480360381019080803590602001908201803590602001908080601f0160208091040260200160405190810160405280939291908181526020018383808284378201915050505050509192919290803515159060200190929190505050611415565b6040518082815260200191505060405180910390f35b3480156104bb57600080fd5b506104c4611718565b6040518082815260200191505060405180910390f35b3480156104e657600080fd5b506105056004803603810190808035906020019092919050505061171e565b604051808273ffffffffffffffffffffffffffffffffffffffff1673ffffffffffffffffffffffffffffffffffffffff16815260200191505060405180910390f35b34801561055357600080fd5b506105b2600480360381019080803573ffffffffffffffffffffffffffffffffffffffff169060200190929190803573ffffffffffffffffffffffffffffffffffffffff16906020019092919080359060200190929190505050611751565b604051808215151515815260200191505060405180910390f35b3480156105d857600080fd5b5061060d600480360381019080803573ffffffffffffffffffffffffffffffffffffffff1690602001909291905050506119eb565b6040518082815260200191505060405180910390f35b34801561062f57600080fd5b50610638611a03565b604051808260ff1660ff16815260200191505060405180910390f35b34801561066057600080fd5b50610669611a16565b6040518082815260200191505060405180910390f35b34801561068b57600080fd5b50610694611a1c565b6040518082815260200191505060405180910390f35b3480156106b657600080fd5b506106bf611a29565b005b3480156106cd57600080fd5b506106d6611ae9565b005b3480156106e457600080fd5b5061070360048036038101908080359060200190929190505050611b80565b60405180806020018781526020018660ff1660ff168152602001858152602001848152602001838152602001828103825288818151815260200191508051906020019080838360005b8381101561076757808201518184015260208101905061074c565b50505050905090810190601f1680156107945780820380516001836020036101000a031916815260200191505b5097505050505050505060405180910390f35b3480156107b357600080fd5b5061081a600480360381019080803590602001908201803590602001908080601f0160208091040260200160405190810160405280939291908181526020018383808284378201915050505050509192919290803515159060200190929190505050611c70565b6040518082815260200191505060405180910390f35b34801561083c57600080fd5b50610891600480360381019080803573ffffffffffffffffffffffffffffffffffffffff169060200190929190803573ffffffffffffffffffffffffffffffffffffffff169060200190929190505050611ebe565b6040518082815260200191505060405180910390f35b3480156108b357600080fd5b506108bc611ee3565b604051808215151515815260200191505060405180910390f35b3480156108e257600080fd5b506108eb611ef6565b6040518082815260200191505060405180910390f35b34801561090d57600080fd5b50610916611efc565b6040518082815260200191505060405180910390f35b34801561093857600080fd5b5061095a600480360381019080803560ff169060200190929190505050611f09565b005b34801561096857600080fd5b5061099d600480360381019080803573ffffffffffffffffffffffffffffffffffffffff169060200190929190505050612030565b6040518082815260200191505060405180910390f35b3480156109bf57600080fd5b506109c8612079565b005b3480156109d657600080fd5b506109df61217e565b005b3480156109ed57600080fd5b506109f661223f565b604051808273ffffffffffffffffffffffffffffffffffffffff1673ffffffffffffffffffffffffffffffffffffffff16815260200191505060405180910390f35b348015610a4457600080fd5b50610a4d612265565b6040518080602001828103825283818151815260200191508051906020019080838360005b83811015610a8d578082015181840152602081019050610a72565b50505050905090810190601f168015610aba5780820380516001836020036101000a031916815260200191505b509250505060405180910390f35b348015610ad457600080fd5b50610b09600480360381019080803573ffffffffffffffffffffffffffffffffffffffff169060200190929190505050612303565b6040518082815260200191505060405180910390f35b348015610b2b57600080fd5b50610b546004803603810190808035906020019092919080359060200190929190505050612315565b604051808215151515815260200191505060405180910390f35b348015610b7a57600080fd5b50610bb9600480360381019080803573ffffffffffffffffffffffffffffffffffffffff16906020019092919080359060200190929190505050612878565b604051808215151515815260200191505060405180910390f35b348015610bdf57600080fd5b50610c14600480360381019080803573ffffffffffffffffffffffffffffffffffffffff1690602001909291905050506129d1565b6040518080602001828103825283818151815260200191508051906020019060200280838360005b83811015610c57578082015181840152602081019050610c3c565b505050509050019250505060405180910390f35b348015610c7757600080fd5b50610c80612afd565b6040518082815260200191505060405180910390f35b348015610ca257600080fd5b50610d4c600480360381019080803590602001908201803590602001908080601f0160208091040260200160405190810160405280939291908181526020018383808284378201915050505050509192919290803560ff169060200190929190803560ff169060200190929190803567ffffffffffffffff169060200190929190803560ff169060200190929190803567ffffffffffffffff169060200190929190505050612b03565b005b348015610d5a57600080fd5b50610d7960048036038101908080359060200190929190505050612dd3565b6040518088815260200180602001878152602001868152602001858152602001848152602001838152602001828103825288818151815260200191508051906020019080838360005b83811015610ddd578082015181840152602081019050610dc2565b50505050905090810190601f168015610e0a5780820380516001836020036101000a031916815260200191505b509850505050505050505060405180910390f35b348015610e2a57600080fd5b50610e7f600480360381019080803573ffffffffffffffffffffffffffffffffffffffff169060200190929190803573ffffffffffffffffffffffffffffffffffffffff169060200190929190505050612f3b565b6040518082815260200191505060405180910390f35b348015610ea157600080fd5b50610ec060048036038101908080359060200190929190505050612fc2565b604051808215151515815260200191505060405180910390f35b348015610ee657600080fd5b50610f1b600480360381019080803573ffffffffffffffffffffffffffffffffffffffff169060200190929190505050613013565b005b348015610f2957600080fd5b50610f3261307b565b6040518082815260200191505060405180910390f35b600f6020528060005260406000206000915090505481565b60038054600181600116156101000203166002900480601f016020809104026020016040519081016040528092919081815260200182805460018160011615610100020316600290048015610ff65780601f10610fcb57610100808354040283529160200191610ff6565b820191906000526020600020905b815481529060010190602001808311610fd957829003601f168201915b505050505081565b600081600260003373ffffffffffffffffffffffffffffffffffffffff1673ffffffffffffffffffffffffffffffffffffffff16815260200190815260200160002060008573ffffffffffffffffffffffffffffffffffffffff1673ffffffffffffffffffffffffffffffffffffffff168152602001908152602001600020819055508273ffffffffffffffffffffffffffffffffffffffff163373ffffffffffffffffffffffffffffffffffffffff167f8c5be1e5ebec7d5bd14f71427d1e84f3dd0314c0f7b2291e5b200ac8c7c3b925846040518082815260200191505060405180910390a36001905092915050565b6000606060008060008060006111046138a2565b60108981548110151561111357fe5b906000526020600020906002020160c06040519081016040529081600082018054600181600116156101000203166002900480601f0160208091040260200160405190810160405280929190818152602001828054600181600116156101000203166002900480156111c65780601f1061119b576101008083540402835291602001916111c6565b820191906000526020600020905b8154815290600101906020018083116111a957829003601f168201915b505050505081526020016001820160009054906101000a900460ff1660ff1660ff1681526020016001820160019054906101000a900460ff1660ff1660ff1681526020016001820160029054906101000a900467ffffffffffffffff1667ffffffffffffffff1667ffffffffffffffff16815260200160018201600a9054906101000a900460ff1660ff1660ff16815260200160018201600b9054906101000a900467ffffffffffffffff1667ffffffffffffffff1667ffffffffffffffff1681525050905088816000015182602001518360400151846060015185608001518660a001518595508460ff1694508360ff1693508267ffffffffffffffff1692508160ff1691508067ffffffffffffffff169050975097509750975097509750975050919395979092949650565b600660149054906101000a900460ff16151561130f57600080fd5b600660009054906101000a900473ffffffffffffffffffffffffffffffffffffffff1673ffffffffffffffffffffffffffffffffffffffff163373ffffffffffffffffffffffffffffffffffffffff1614151561136b57600080fd5b80600c541415151561140b576040517f08c379a00000000000000000000000000000000000000000000000000000000081526004018080602001828103825260398152602001807f596f752061726520747279696e6720746f2073657420746865206e657720636f81526020017f737420746f207768617420697420616c7265616479207761730000000000000081525060400191505060405180910390fd5b80600c8190555050565b600080600084601e815111151515611495576040517f08c379a00000000000000000000000000000000000000000000000000000000081526004018080602001828103825260158152602001807f4e616d65206c656e67746820746f6f206c6f6e6721000000000000000000000081525060200191505060405180910390fd5b600660149054906101000a900460ff161515156114b157600080fd5b6000600f60003373ffffffffffffffffffffffffffffffffffffffff1673ffffffffffffffffffffffffffffffffffffffff168152602001908152602001600020541015151561158f576040517f08c379a000000000000000000000000000000000000000000000000000000000815260040180806020018281038252602f8152602001807f54686973206163636f756e74206861736e27742068616420686973206672656581526020017f206368617261637465722079657421000000000000000000000000000000000081525060400191505060405180910390fd5b600c5461159b33612030565b10151515611637576040517f08c379a000000000000000000000000000000000000000000000000000000000815260040180806020018281038252602f8152602001807f596f7520646f6e2774206861766520656e6f756768207761726372616674436f81526020017f696e7320746f207075726368617365000000000000000000000000000000000081525060400191505060405180910390fd5b611642600c54612fc2565b5085336040518083805190602001908083835b60208310151561167a5780518252602082019150602081019050602083039250611655565b6001836020036101000a0380198251168184511680821785525050505050509050018273ffffffffffffffffffffffffffffffffffffffff1673ffffffffffffffffffffffffffffffffffffffff166c01000000000000000000000000028152601401925050506040518091039020600190049250600754600a0a838115156116ff57fe5b06915061170d868387613081565b935050505092915050565b60005481565b600e6020528060005260406000206000915054906101000a900473ffffffffffffffffffffffffffffffffffffffff1681565b600080600260008673ffffffffffffffffffffffffffffffffffffffff1673ffffffffffffffffffffffffffffffffffffffff16815260200190815260200160002060003373ffffffffffffffffffffffffffffffffffffffff1673ffffffffffffffffffffffffffffffffffffffff16815260200190815260200160002054905082600160008773ffffffffffffffffffffffffffffffffffffffff1673ffffffffffffffffffffffffffffffffffffffff16815260200190815260200160002054101580156118225750828110155b151561182d57600080fd5b82600160008673ffffffffffffffffffffffffffffffffffffffff1673ffffffffffffffffffffffffffffffffffffffff1681526020019081526020016000206000828254019250508190555082600160008773ffffffffffffffffffffffffffffffffffffffff1673ffffffffffffffffffffffffffffffffffffffff168152602001908152602001600020600082825403925050819055507fffffffffffffffffffffffffffffffffffffffffffffffffffffffffffffffff81101561197a5782600260008773ffffffffffffffffffffffffffffffffffffffff1673ffffffffffffffffffffffffffffffffffffffff16815260200190815260200160002060003373ffffffffffffffffffffffffffffffffffffffff1673ffffffffffffffffffffffffffffffffffffffff168152602001908152602001600020600082825403925050819055505b8373ffffffffffffffffffffffffffffffffffffffff168573ffffffffffffffffffffffffffffffffffffffff167fddf252ad1be2c89b69c2b068fc378daa952ba7f163c4a11628f55a4df523b3ef856040518082815260200191505060405180910390a360019150509392505050565b60016020528060005260406000206000915090505481565b600460009054906101000a900460ff1681565b60085481565b6000601080549050905090565b600660009054906101000a900473ffffffffffffffffffffffffffffffffffffffff1673ffffffffffffffffffffffffffffffffffffffff163373ffffffffffffffffffffffffffffffffffffffff16141515611a8557600080fd5b600660149054906101000a900460ff161515611aa057600080fd5b6000600660146101000a81548160ff0219169083151502179055507f7805862f689e2f13df9f062ff482ad3ad112aca9e0847911ed832e158c525b3360405160405180910390a1565b600660009054906101000a900473ffffffffffffffffffffffffffffffffffffffff1673ffffffffffffffffffffffffffffffffffffffff163373ffffffffffffffffffffffffffffffffffffffff16141515611b4557600080fd5b600660009054906101000a900473ffffffffffffffffffffffffffffffffffffffff1673ffffffffffffffffffffffffffffffffffffffff16ff5b600d81815481101515611b8f57fe5b9060005260206000209060060201600091509050806000018054600181600116156101000203166002900480601f016020809104026020016040519081016040528092919081815260200182805460018160011615610100020316600290048015611c3b5780601f10611c1057610100808354040283529160200191611c3b565b820191906000526020600020905b815481529060010190602001808311611c1e57829003601f168201915b5050505050908060010154908060020160009054906101000a900460ff16908060030154908060040154908060050154905086565b600080600084601e815111151515611cf0576040517f08c379a00000000000000000000000000000000000000000000000000000000081526004018080602001828103825260158152602001807f4e616d65206c656e67746820746f6f206c6f6e6721000000000000000000000081525060200191505060405180910390fd5b600660149054906101000a900460ff16151515611d0c57600080fd5b6000600f60003373ffffffffffffffffffffffffffffffffffffffff1673ffffffffffffffffffffffffffffffffffffffff16815260200190815260200160002054141515611de9576040517f08c379a000000000000000000000000000000000000000000000000000000000815260040180806020018281038252603b8152602001807f4e6f742061206e6577206163636f756e742c20616c726561647920676f74206181526020017f2063686172616374657220746f2074686973206164647265737373000000000081525060400191505060405180910390fd5b85336040518083805190602001908083835b602083101515611e205780518252602082019150602081019050602083039250611dfb565b6001836020036101000a0380198251168184511680821785525050505050509050018273ffffffffffffffffffffffffffffffffffffffff1673ffffffffffffffffffffffffffffffffffffffff166c01000000000000000000000000028152601401925050506040518091039020600190049250600754600a0a83811515611ea557fe5b069150611eb3868387613081565b935050505092915050565b6002602052816000526040600020602052806000526040600020600091509150505481565b600660149054906101000a900460ff1681565b600a5481565b6000600d80549050905090565b600660149054906101000a900460ff161515611f2457600080fd5b600660009054906101000a900473ffffffffffffffffffffffffffffffffffffffff1673ffffffffffffffffffffffffffffffffffffffff163373ffffffffffffffffffffffffffffffffffffffff16141515611f8057600080fd5b8060ff1660095414151515612023576040517f08c379a000000000000000000000000000000000000000000000000000000000815260040180806020018281038252603d8152602001807f596f752061726520747279696e6720746f2073657420746865206e6577206d6181526020017f784c6576656c20746f207768617420697420616c72656164792077617300000081525060400191505060405180910390fd5b8060ff1660098190555050565b6000600160008373ffffffffffffffffffffffffffffffffffffffff1673ffffffffffffffffffffffffffffffffffffffff168152602001908152602001600020549050919050565b600660009054906101000a900473ffffffffffffffffffffffffffffffffffffffff1673ffffffffffffffffffffffffffffffffffffffff163373ffffffffffffffffffffffffffffffffffffffff161415156120d557600080fd5b600660009054906101000a900473ffffffffffffffffffffffffffffffffffffffff1673ffffffffffffffffffffffffffffffffffffffff167ff8df31144d9c2f0f6b59d69b8b98abd5459d07f2742c4df920b25aae33c6482060405160405180910390a26000600660006101000a81548173ffffffffffffffffffffffffffffffffffffffff021916908373ffffffffffffffffffffffffffffffffffffffff160217905550565b600660009054906101000a900473ffffffffffffffffffffffffffffffffffffffff1673ffffffffffffffffffffffffffffffffffffffff163373ffffffffffffffffffffffffffffffffffffffff161415156121da57600080fd5b600660149054906101000a900460ff161515156121f657600080fd5b6001600660146101000a81548160ff0219169083151502179055507f6985a02210a168e66602d3235cb6db0e70f92b3ba4d376a33c0f3d9434bff62560405160405180910390a1565b600660009054906101000a900473ffffffffffffffffffffffffffffffffffffffff1681565b60058054600181600116156101000203166002900480601f0160208091040260200160405190810160405280929190818152602001828054600181600116156101000203166002900480156122fb5780601f106122d0576101008083540402835291602001916122fb565b820191906000526020600020905b8154815290600101906020018083116122de57829003601f168201915b505050505081565b600061230e82612030565b9050919050565b600061231f6138a2565b60008085600e600082815260200190815260200160002060009054906101000a900473ffffffffffffffffffffffffffffffffffffffff1673ffffffffffffffffffffffffffffffffffffffff163373ffffffffffffffffffffffffffffffffffffffff1614151561241f576040517f08c379a00000000000000000000000000000000000000000000000000000000081526004018080602001828103825260278152602001807f596f7520617265206e6f7420746865206f776e6572206f66207468697320636881526020017f617261637465720000000000000000000000000000000000000000000000000081525060400191505060405180910390fd5b8642600d8281548110151561243057fe5b906000526020600020906006020160040154111515156124b8576040517f08c379a00000000000000000000000000000000000000000000000000000000081526004018080602001828103825260188152602001807f436861726163746572206e6f742072656164792079657421000000000000000081525060200191505060405180910390fd5b600660149054906101000a900460ff161515156124d457600080fd5b6010878154811015156124e357fe5b906000526020600020906002020160c06040519081016040529081600082018054600181600116156101000203166002900480601f0160208091040260200160405190810160405280929190818152602001828054600181600116156101000203166002900480156125965780601f1061256b57610100808354040283529160200191612596565b820191906000526020600020905b81548152906001019060200180831161257957829003601f168201915b505050505081526020016001820160009054906101000a900460ff1660ff1660ff1681526020016001820160019054906101000a900460ff1660ff1660ff1681526020016001820160029054906101000a900467ffffffffffffffff1667ffffffffffffffff1667ffffffffffffffff16815260200160018201600a9054906101000a900460ff1660ff1660ff16815260200160018201600b9054906101000a900467ffffffffffffffff1667ffffffffffffffff1667ffffffffffffffff16815250509450846020015160ff16600d8981548110151561267357fe5b906000526020600020906006020160020160009054906101000a900460ff1660ff1610151515612731576040517f08c379a00000000000000000000000000000000000000000000000000000000081526004018080602001828103825260318152602001807f5468652063686172616374657220646f6573206e6f742068617665207468652081526020017f6c6576656c20726571756972656d656e7400000000000000000000000000000081525060400191505060405180910390fd5b6064600a60008154809291906001019190505533604051808381526020018273ffffffffffffffffffffffffffffffffffffffff1673ffffffffffffffffffffffffffffffffffffffff166c01000000000000000000000000028152601401925050506040518091039020600190048115156127a957fe5b06935060009250846040015160ff16841115156127f6576127d888866060015167ffffffffffffffff1661339b565b600192506127f4338660a0015167ffffffffffffffff16613570565b505b6011544201600d8981548110151561280a57fe5b9060005260206000209060060201600401819055507f9200a8d3842b8c4e32bcb017ce87f1c19c3320cad05894df27b6c76d4560a7f48389896040518084151515158152602001838152602001828152602001935050505060405180910390a1829550505050505092915050565b600081600160003373ffffffffffffffffffffffffffffffffffffffff1673ffffffffffffffffffffffffffffffffffffffff16815260200190815260200160002054101515156128c857600080fd5b81600160003373ffffffffffffffffffffffffffffffffffffffff1673ffffffffffffffffffffffffffffffffffffffff1681526020019081526020016000206000828254039250508190555081600160008573ffffffffffffffffffffffffffffffffffffffff1673ffffffffffffffffffffffffffffffffffffffff168152602001908152602001600020600082825401925050819055508273ffffffffffffffffffffffffffffffffffffffff163373ffffffffffffffffffffffffffffffffffffffff167fddf252ad1be2c89b69c2b068fc378daa952ba7f163c4a11628f55a4df523b3ef846040518082815260200191505060405180910390a36001905092915050565b606080600080600f60008673ffffffffffffffffffffffffffffffffffffffff1673ffffffffffffffffffffffffffffffffffffffff16815260200190815260200160002054604051908082528060200260200182016040528015612a455781602001602082028038833980820191505090505b509250600090505b600d80549050811015612af2578473ffffffffffffffffffffffffffffffffffffffff16600e600083815260200190815260200160002060009054906101000a900473ffffffffffffffffffffffffffffffffffffffff1673ffffffffffffffffffffffffffffffffffffffff161415612ae557808383806001019450815181101515612ad657fe5b90602001906020020181815250505b8080600101915050612a4d565b829350505050919050565b60095481565b600660009054906101000a900473ffffffffffffffffffffffffffffffffffffffff1673ffffffffffffffffffffffffffffffffffffffff163373ffffffffffffffffffffffffffffffffffffffff16141515612b5f57600080fd5b600660149054906101000a900460ff161515612b7a57600080fd5b85601e815111151515612bf5576040517f08c379a00000000000000000000000000000000000000000000000000000000081526004018080602001828103825260158152602001807f4e616d65206c656e67746820746f6f206c6f6e6721000000000000000000000081525060200191505060405180910390fd5b60648560ff1611151515612c71576040517f08c379a000000000000000000000000000000000000000000000000000000000815260040180806020018281038252601c8152602001807f54686520737563636573732072617465206973206f766572203130300000000081525060200191505060405180910390fd5b601060c0604051908101604052808981526020018860ff1681526020018760ff1681526020018667ffffffffffffffff1681526020018560ff1681526020018467ffffffffffffffff16815250908060018154018082558091505090600182039060005260206000209060020201600090919290919091506000820151816000019080519060200190612d059291906138f6565b5060208201518160010160006101000a81548160ff021916908360ff16021790555060408201518160010160016101000a81548160ff021916908360ff16021790555060608201518160010160026101000a81548167ffffffffffffffff021916908367ffffffffffffffff160217905550608082015181600101600a6101000a81548160ff021916908360ff16021790555060a082015181600101600b6101000a81548167ffffffffffffffff021916908367ffffffffffffffff16021790555050505050505050505050565b600060606000806000806000612de7613976565b600d89815481101515612df657fe5b906000526020600020906006020160c06040519081016040529081600082018054600181600116156101000203166002900480601f016020809104026020016040519081016040528092919081815260200182805460018160011615610100020316600290048015612ea95780601f10612e7e57610100808354040283529160200191612ea9565b820191906000526020600020905b815481529060010190602001808311612e8c57829003601f168201915b50505050508152602001600182015481526020016002820160009054906101000a900460ff1660ff1660ff168152602001600382015481526020016004820154815260200160058201548152505090508881600001518260200151836040015184606001518560a0015186608001518595508360ff169350975097509750975097509750975050919395979092949650565b6000600260008473ffffffffffffffffffffffffffffffffffffffff1673ffffffffffffffffffffffffffffffffffffffff16815260200190815260200160002060008373ffffffffffffffffffffffffffffffffffffffff1673ffffffffffffffffffffffffffffffffffffffff16815260200190815260200160002054905092915050565b6000600660149054906101000a900460ff16151515612fe057600080fd5b61300c600660009054906101000a900473ffffffffffffffffffffffffffffffffffffffff1683612878565b9050919050565b600660009054906101000a900473ffffffffffffffffffffffffffffffffffffffff1673ffffffffffffffffffffffffffffffffffffffff163373ffffffffffffffffffffffffffffffffffffffff1614151561306f57600080fd5b613078816137a6565b50565b600c5481565b600080600085601e815111151515613101576040517f08c379a00000000000000000000000000000000000000000000000000000000081526004018080602001828103825260158152602001807f4e616d65206c656e67746820746f6f206c6f6e6721000000000000000000000081525060200191505060405180910390fd5b600660149054906101000a900460ff1615151561311d57600080fd5b8592508415613134576001600a840201925061313b565b600a830292505b600d60c060405190810160405280898152602001858152602001600160ff168152602001600081526020014281526020016008548152509080600181540180825580915050906001820390600052602060002090600602016000909192909190915060008201518160000190805190602001906131b99291906138f6565b506020820151816001015560408201518160020160006101000a81548160ff021916908360ff160217905550606082015181600301556080820151816004015560a082015181600501555050915033600e600060018503815260200190815260200160002060006101000a81548173ffffffffffffffffffffffffffffffffffffffff021916908373ffffffffffffffffffffffffffffffffffffffff160217905550600f60003373ffffffffffffffffffffffffffffffffffffffff1673ffffffffffffffffffffffffffffffffffffffff168152602001908152602001600020600081548092919060010191905055507f5630adcc97969060af381c099052ae40588c1a027a248ecb2488390718cc628a33838986604051808573ffffffffffffffffffffffffffffffffffffffff1673ffffffffffffffffffffffffffffffffffffffff16815260200184815260200180602001838152602001828103825284818151815260200191508051906020019080838360005b8381101561334e578082015181840152602081019050613333565b50505050905090810190601f16801561337b5780820380516001836020036101000a031916815260200191505b509550505050505060405180910390a16001820393505050509392505050565b6000600660149054906101000a900460ff161515156133b957600080fd5b82600954600d828154811015156133cc57fe5b906000526020600020906006020160020160009054906101000a900460ff1660ff16101515613489576040517f08c379a00000000000000000000000000000000000000000000000000000000081526004018080602001828103825260328152602001807f546865206368617261637465722063616e277420646f2074686973206265636181526020017f7573652068652773206d6178206c6576656c000000000000000000000000000081525060400191505060405180910390fd5b600d8481548110151561349857fe5b906000526020600020906006020191508282600301600082825401925050819055508160050154826003015410151561356a5781600201600081819054906101000a900460ff168092919060010191906101000a81548160ff021916908360ff160217905550506009548260020160009054906101000a900460ff1660ff16141561352c5760008260030181905550613543565b816005015482600301600082825403925050819055505b6064600b5483600501540281151561355757fe5b0482600501600082825401925050819055505b50505050565b6000600660149054906101000a900460ff1615151561358e57600080fd5b6000826135bc600660009054906101000a900473ffffffffffffffffffffffffffffffffffffffff16612030565b0310151515613659576040517f08c379a000000000000000000000000000000000000000000000000000000000815260040180806020018281038252603a8152602001807f4f776e657227732062616c616e63652077696c6c206265203c2030206966207981526020017f6f7520636f6e74696e75652074686973206f7065726174696f6e00000000000081525060400191505060405180910390fd5b8160016000600660009054906101000a900473ffffffffffffffffffffffffffffffffffffffff1673ffffffffffffffffffffffffffffffffffffffff1673ffffffffffffffffffffffffffffffffffffffff1681526020019081526020016000206000828254039250508190555081600160008573ffffffffffffffffffffffffffffffffffffffff1673ffffffffffffffffffffffffffffffffffffffff168152602001908152602001600020600082825401925050819055503373ffffffffffffffffffffffffffffffffffffffff16600660009054906101000a900473ffffffffffffffffffffffffffffffffffffffff1673ffffffffffffffffffffffffffffffffffffffff167fddf252ad1be2c89b69c2b068fc378daa952ba7f163c4a11628f55a4df523b3ef846040518082815260200191505060405180910390a36001905092915050565b600073ffffffffffffffffffffffffffffffffffffffff168173ffffffffffffffffffffffffffffffffffffffff16141515156137e257600080fd5b8073ffffffffffffffffffffffffffffffffffffffff16600660009054906101000a900473ffffffffffffffffffffffffffffffffffffffff1673ffffffffffffffffffffffffffffffffffffffff167f8be0079c531659141344cd1fd0a4f28419497f9722a3daafe3b4186f6b6457e060405160405180910390a380600660006101000a81548173ffffffffffffffffffffffffffffffffffffffff021916908373ffffffffffffffffffffffffffffffffffffffff16021790555050565b60c06040519081016040528060608152602001600060ff168152602001600060ff168152602001600067ffffffffffffffff168152602001600060ff168152602001600067ffffffffffffffff1681525090565b828054600181600116156101000203166002900490600052602060002090601f016020900481019282601f1061393757805160ff1916838001178555613965565b82800160010185558215613965579182015b82811115613964578251825591602001919060010190613949565b5b50905061397291906139b0565b5090565b60c0604051908101604052806060815260200160008152602001600060ff1681526020016000815260200160008152602001600081525090565b6139d291905b808211156139ce5760008160009055506001016139b6565b5090565b905600a165627a7a723058204a566cb600835116e1252167034dc4355d61be7683146facfd2fbaccf8abd74a0029",
  "source": "pragma solidity ^0.4.24;\r\nimport \"./Warcraft.sol\";\r\n\r\ncontract WarcraftZones is Warcraft{\r\n    \r\n    Zone[] zones;\r\n    uint zoneDowntime = 60 seconds;\r\n    \r\n    struct Zone{\r\n        string name;\r\n        uint8 lvlRequirement;\r\n        // The success rate is always under 100%\r\n        uint8 successRate;\r\n        uint64 exp;\r\n        //continent : 0 => Kalimdor, 1 => Eastern kingdoms\r\n        uint8 continent;\r\n        // cryptoCoin reward, since 2^64 should be enough of a reward, maybe even too much\r\n        uint64 currencyReward;\r\n    } \r\n\r\n    /** @dev Indicates when quest has been done.\r\n    * @param _success returns weather or not the quest succeeded.\r\n    * @param _charId Id of the character doing the quest.\r\n    * @param _questId Id of the quest being quested.\r\n    */\r\n    event questDone(bool _success,uint _charId,uint _questId);\r\n\r\n\r\n    /** @dev The contract's constructor. Generates the zones for the game.\r\n      */\r\n    constructor() public{\r\n        zones.push(Zone(\"Durotar\",1,100,100,0,1));\r\n        zones.push(Zone(\"Elwynn Forest\",1,100,100,1,1));\r\n        zones.push(Zone(\"Barrens\",5,90,140,0,2));\r\n        zones.push(Zone(\"Loch Modan\",5,90,140,1,2));\r\n        zones.push(Zone(\"Stonetalon Mountains\",10,80,220,0,3));\r\n        zones.push(Zone(\"Redridge Mountains\",10,80,220,1,3));\r\n        zones.push(Zone(\"Ashenvale\",15,60,500,0,4));\r\n        zones.push(Zone(\"Duskwood\",15,60,500,1,4));\r\n    }\r\n    \r\n    /** @dev Function handling the gain of experience of a character.\r\n      * @param _charId The character gaining the experience.\r\n      * @param _exp The amount of experience the character is gaining.\r\n      */\r\n    function getExp(uint _charId,uint _exp) internal whenNotPaused() onlyUnderMaxLevel(_charId){\r\n        Character storage char = characters[_charId];\r\n        char.exp += _exp;\r\n        if(char.exp >= char.toNextLvl){\r\n            char.lvl++;\r\n            if(char.lvl == maxLevel)\r\n                char.exp = 0;\r\n            else\r\n                char.exp -= char.toNextLvl;\r\n            char.toNextLvl += char.toNextLvl*expRate/100;\r\n        }\r\n    }\r\n    \r\n    /** @dev Makes the character(_charId) quest in a zone.\r\n      * @param _charId The character doing the quest.\r\n      * @param _zoneId The Id of the zone the character will quest in.\r\n      * @return bool : Returns the success of the quest.\r\n      */\r\n    function questing(uint _charId, uint _zoneId) public onlyCharacterOwner(_charId) isReady(_charId) whenNotPaused() returns(bool){\r\n        Zone memory zone = zones[_zoneId];\r\n        require(characters[_charId].lvl >= zone.lvlRequirement, \"The character does not have the level requirement\");\r\n        uint rand = uint(keccak256(randNonce++,msg.sender))%100;\r\n        bool success = false;\r\n        if(rand <= zone.successRate){\r\n            getExp(_charId,zone.exp);\r\n            success = true;\r\n            giveToken(msg.sender,zone.currencyReward);\r\n        }\r\n        characters[_charId].ready = now + zoneDowntime;\r\n        emit questDone(success,_charId,_zoneId);\r\n        return success;\r\n    }\r\n\r\n    /** @dev Get's the zone's information.\r\n      * @param _id The zone's Id.\r\n      * @return id : the zone's Id.\r\n      * @return name : the zone's name.\r\n      * @return lvlReq : the level required to quest in the zone.\r\n      * @return successRate : the zone's success rate.\r\n      * @return exp : the experience gained when questing in the zone.\r\n      * @return _continent : the quest's continent location.\r\n      * @return _currencyReward : the quest's reward.\r\n      */\r\n    function getZone(uint _id) public view returns(\r\n    uint id,string name,uint lvlReq,uint successRate,uint exp,uint continent, uint currencyReward){\r\n        Zone memory zone = zones[_id];\r\n        return (_id,zone.name,zone.lvlRequirement,zone.successRate,zone.exp,zone.continent,zone.currencyReward);\r\n    }\r\n\r\n    /** @dev Returns the amount of zones in the game.\r\n      * @return length : the amount of zones.\r\n      */\r\n    function getZoneCount() public view returns(uint length){\r\n        return zones.length;\r\n    }\r\n\r\n    /** @dev Adds a new zone to the game. (ONLY OWNER)\r\n      * @param _name : the zone's name.\r\n      * @param _lvlReq : the level required to quest in the zone.\r\n      * @param _successRate : the zone's success rate.\r\n      * @param _exp : the experience gained when questing in the zone.\r\n      * @param _continent : the quest's continent location.\r\n      * @param _currencyReward : the quest's reward.\r\n      */\r\n    function addNewZone(string _name, uint8 _lvlReq, uint8 _successRate, uint64 _exp, uint8 _continent, uint64 _currencyReward) \r\n    public onlyOwner() whenPaused() checkNameSize(_name){\r\n        require(_successRate <= 100,\"The success rate is over 100\");\r\n        zones.push(Zone(_name,_lvlReq,_successRate,_exp,_continent,_currencyReward));\r\n    }\r\n    \r\n}",
  "sourcePath": "C:\\Users\\Louis\\Documents\\projects\\crypto-warcraft\\contracts\\WarcraftZones.sol",
  "compiler": {
    "name": "solc",
    "version": "0.4.24+commit.e67f0147.Emscripten.clang"
  },
  "schemaVersion": "2.0.1",
  "updatedAt": "2018-08-26T16:54:37.537Z"
}