{
  "contractName": "WarcraftZones",
  "abi": [
    {
      "constant": true,
      "inputs": [
        {
          "name": "",
          "type": "address"
        }
      ],
      "name": "characterCount",
      "outputs": [
        {
          "name": "",
          "type": "uint256"
        }
      ],
      "payable": false,
      "stateMutability": "view",
      "type": "function"
    },
    {
      "constant": true,
      "inputs": [],
      "name": "name",
      "outputs": [
        {
          "name": "",
          "type": "string"
        }
      ],
      "payable": false,
      "stateMutability": "view",
      "type": "function"
    },
    {
      "constant": false,
      "inputs": [
        {
          "name": "_spender",
          "type": "address"
        },
        {
          "name": "_value",
          "type": "uint256"
        }
      ],
      "name": "approve",
      "outputs": [
        {
          "name": "success",
          "type": "bool"
        }
      ],
      "payable": false,
      "stateMutability": "nonpayable",
      "type": "function"
    },
    {
      "constant": false,
      "inputs": [
        {
          "name": "_newCost",
          "type": "uint256"
        }
      ],
      "name": "changeNewRandomCharacterCost",
      "outputs": [],
      "payable": false,
      "stateMutability": "nonpayable",
      "type": "function"
    },
    {
      "constant": false,
      "inputs": [
        {
          "name": "_name",
          "type": "string"
        },
        {
          "name": "_faction",
          "type": "bool"
        }
      ],
      "name": "createNewRandomCharacter",
      "outputs": [
        {
          "name": "_id",
          "type": "uint256"
        }
      ],
      "payable": false,
      "stateMutability": "nonpayable",
      "type": "function"
    },
    {
      "constant": true,
      "inputs": [],
      "name": "totalSupply",
      "outputs": [
        {
          "name": "",
          "type": "uint256"
        }
      ],
      "payable": false,
      "stateMutability": "view",
      "type": "function"
    },
    {
      "constant": true,
      "inputs": [
        {
          "name": "",
          "type": "uint256"
        }
      ],
      "name": "characterToOwner",
      "outputs": [
        {
          "name": "",
          "type": "address"
        }
      ],
      "payable": false,
      "stateMutability": "view",
      "type": "function"
    },
    {
      "constant": false,
      "inputs": [
        {
          "name": "_from",
          "type": "address"
        },
        {
          "name": "_to",
          "type": "address"
        },
        {
          "name": "_value",
          "type": "uint256"
        }
      ],
      "name": "transferFrom",
      "outputs": [
        {
          "name": "success",
          "type": "bool"
        }
      ],
      "payable": false,
      "stateMutability": "nonpayable",
      "type": "function"
    },
    {
      "constant": true,
      "inputs": [
        {
          "name": "",
          "type": "address"
        }
      ],
      "name": "balances",
      "outputs": [
        {
          "name": "",
          "type": "uint256"
        }
      ],
      "payable": false,
      "stateMutability": "view",
      "type": "function"
    },
    {
      "constant": true,
      "inputs": [],
      "name": "decimals",
      "outputs": [
        {
          "name": "",
          "type": "uint8"
        }
      ],
      "payable": false,
      "stateMutability": "view",
      "type": "function"
    },
    {
      "constant": false,
      "inputs": [],
      "name": "kill",
      "outputs": [],
      "payable": false,
      "stateMutability": "nonpayable",
      "type": "function"
    },
    {
      "constant": true,
      "inputs": [
        {
          "name": "",
          "type": "uint256"
        }
      ],
      "name": "characters",
      "outputs": [
        {
          "name": "name",
          "type": "string"
        },
        {
          "name": "dna",
          "type": "uint256"
        },
        {
          "name": "lvl",
          "type": "uint8"
        },
        {
          "name": "exp",
          "type": "uint256"
        },
        {
          "name": "ready",
          "type": "uint256"
        },
        {
          "name": "toNextLvl",
          "type": "uint256"
        }
      ],
      "payable": false,
      "stateMutability": "view",
      "type": "function"
    },
    {
      "constant": false,
      "inputs": [
        {
          "name": "_name",
          "type": "string"
        },
        {
          "name": "_faction",
          "type": "bool"
        }
      ],
      "name": "createAccount",
      "outputs": [
        {
          "name": "_id",
          "type": "uint256"
        }
      ],
      "payable": false,
      "stateMutability": "nonpayable",
      "type": "function"
    },
    {
      "constant": true,
      "inputs": [
        {
          "name": "",
          "type": "address"
        },
        {
          "name": "",
          "type": "address"
        }
      ],
      "name": "allowed",
      "outputs": [
        {
          "name": "",
          "type": "uint256"
        }
      ],
      "payable": false,
      "stateMutability": "view",
      "type": "function"
    },
    {
      "constant": false,
      "inputs": [],
      "name": "getCharacterCount",
      "outputs": [
        {
          "name": "",
          "type": "uint256"
        }
      ],
      "payable": false,
      "stateMutability": "nonpayable",
      "type": "function"
    },
    {
      "constant": true,
      "inputs": [
        {
          "name": "_owner",
          "type": "address"
        }
      ],
      "name": "balanceOf",
      "outputs": [
        {
          "name": "balance",
          "type": "uint256"
        }
      ],
      "payable": false,
      "stateMutability": "view",
      "type": "function"
    },
    {
      "constant": false,
      "inputs": [],
      "name": "renounceOwnership",
      "outputs": [],
      "payable": false,
      "stateMutability": "nonpayable",
      "type": "function"
    },
    {
      "constant": true,
      "inputs": [],
      "name": "owner",
      "outputs": [
        {
          "name": "",
          "type": "address"
        }
      ],
      "payable": false,
      "stateMutability": "view",
      "type": "function"
    },
    {
      "constant": true,
      "inputs": [],
      "name": "symbol",
      "outputs": [
        {
          "name": "",
          "type": "string"
        }
      ],
      "payable": false,
      "stateMutability": "view",
      "type": "function"
    },
    {
      "constant": true,
      "inputs": [
        {
          "name": "_address",
          "type": "address"
        }
      ],
      "name": "getBalanceOf",
      "outputs": [
        {
          "name": "",
          "type": "uint256"
        }
      ],
      "payable": false,
      "stateMutability": "view",
      "type": "function"
    },
    {
      "constant": false,
      "inputs": [
        {
          "name": "_to",
          "type": "address"
        },
        {
          "name": "_value",
          "type": "uint256"
        }
      ],
      "name": "transfer",
      "outputs": [
        {
          "name": "success",
          "type": "bool"
        }
      ],
      "payable": false,
      "stateMutability": "nonpayable",
      "type": "function"
    },
    {
      "constant": true,
      "inputs": [
        {
          "name": "_owner",
          "type": "address"
        }
      ],
      "name": "getCharacters",
      "outputs": [
        {
          "name": "",
          "type": "uint256[]"
        }
      ],
      "payable": false,
      "stateMutability": "view",
      "type": "function"
    },
    {
      "constant": true,
      "inputs": [
        {
          "name": "_id",
          "type": "uint256"
        }
      ],
      "name": "getCharacter",
      "outputs": [
        {
          "name": "id",
          "type": "uint256"
        },
        {
          "name": "name",
          "type": "string"
        },
        {
          "name": "dna",
          "type": "uint256"
        },
        {
          "name": "lvl",
          "type": "uint256"
        },
        {
          "name": "exp",
          "type": "uint256"
        },
        {
          "name": "toNextLvl",
          "type": "uint256"
        },
        {
          "name": "ready",
          "type": "uint256"
        }
      ],
      "payable": false,
      "stateMutability": "view",
      "type": "function"
    },
    {
      "constant": true,
      "inputs": [
        {
          "name": "_owner",
          "type": "address"
        },
        {
          "name": "_spender",
          "type": "address"
        }
      ],
      "name": "allowance",
      "outputs": [
        {
          "name": "remaining",
          "type": "uint256"
        }
      ],
      "payable": false,
      "stateMutability": "view",
      "type": "function"
    },
    {
      "constant": false,
      "inputs": [
        {
          "name": "_value",
          "type": "uint256"
        }
      ],
      "name": "purchase",
      "outputs": [
        {
          "name": "",
          "type": "bool"
        }
      ],
      "payable": false,
      "stateMutability": "nonpayable",
      "type": "function"
    },
    {
      "constant": false,
      "inputs": [
        {
          "name": "_newOwner",
          "type": "address"
        }
      ],
      "name": "transferOwnership",
      "outputs": [],
      "payable": false,
      "stateMutability": "nonpayable",
      "type": "function"
    },
    {
      "constant": true,
      "inputs": [],
      "name": "newRandomCharacterCost",
      "outputs": [
        {
          "name": "",
          "type": "uint256"
        }
      ],
      "payable": false,
      "stateMutability": "view",
      "type": "function"
    },
    {
      "inputs": [],
      "payable": false,
      "stateMutability": "nonpayable",
      "type": "constructor"
    },
    {
      "anonymous": false,
      "inputs": [
        {
          "indexed": false,
          "name": "_success",
          "type": "bool"
        },
        {
          "indexed": false,
          "name": "_charId",
          "type": "uint256"
        },
        {
          "indexed": false,
          "name": "_questId",
          "type": "uint256"
        }
      ],
      "name": "questDone",
      "type": "event"
    },
    {
      "anonymous": false,
      "inputs": [
        {
          "indexed": false,
          "name": "_address",
          "type": "address"
        },
        {
          "indexed": false,
          "name": "_charId",
          "type": "uint256"
        },
        {
          "indexed": false,
          "name": "_name",
          "type": "string"
        },
        {
          "indexed": false,
          "name": "_dna",
          "type": "uint256"
        }
      ],
      "name": "characterCreated",
      "type": "event"
    },
    {
      "anonymous": false,
      "inputs": [
        {
          "indexed": true,
          "name": "previousOwner",
          "type": "address"
        }
      ],
      "name": "OwnershipRenounced",
      "type": "event"
    },
    {
      "anonymous": false,
      "inputs": [
        {
          "indexed": true,
          "name": "previousOwner",
          "type": "address"
        },
        {
          "indexed": true,
          "name": "newOwner",
          "type": "address"
        }
      ],
      "name": "OwnershipTransferred",
      "type": "event"
    },
    {
      "anonymous": false,
      "inputs": [
        {
          "indexed": true,
          "name": "_from",
          "type": "address"
        },
        {
          "indexed": true,
          "name": "_to",
          "type": "address"
        },
        {
          "indexed": false,
          "name": "_value",
          "type": "uint256"
        }
      ],
      "name": "Transfer",
      "type": "event"
    },
    {
      "anonymous": false,
      "inputs": [
        {
          "indexed": true,
          "name": "_owner",
          "type": "address"
        },
        {
          "indexed": true,
          "name": "_spender",
          "type": "address"
        },
        {
          "indexed": false,
          "name": "_value",
          "type": "uint256"
        }
      ],
      "name": "Approval",
      "type": "event"
    },
    {
      "constant": false,
      "inputs": [
        {
          "name": "_charId",
          "type": "uint256"
        },
        {
          "name": "_zoneId",
          "type": "uint256"
        }
      ],
      "name": "questing",
      "outputs": [
        {
          "name": "",
          "type": "bool"
        }
      ],
      "payable": false,
      "stateMutability": "nonpayable",
      "type": "function"
    },
    {
      "constant": true,
      "inputs": [
        {
          "name": "_id",
          "type": "uint256"
        }
      ],
      "name": "getZone",
      "outputs": [
        {
          "name": "id",
          "type": "uint256"
        },
        {
          "name": "name",
          "type": "string"
        },
        {
          "name": "lvlReq",
          "type": "uint256"
        },
        {
          "name": "successRate",
          "type": "uint256"
        },
        {
          "name": "exp",
          "type": "uint256"
        },
        {
          "name": "continent",
          "type": "uint256"
        },
        {
          "name": "currencyReward",
          "type": "uint256"
        }
      ],
      "payable": false,
      "stateMutability": "view",
      "type": "function"
    },
    {
      "constant": true,
      "inputs": [],
      "name": "getZoneCount",
      "outputs": [
        {
          "name": "length",
          "type": "uint256"
        }
      ],
      "payable": false,
      "stateMutability": "view",
      "type": "function"
    },
    {
      "constant": false,
      "inputs": [
        {
          "name": "_name",
          "type": "string"
        },
        {
          "name": "_lvlReq",
          "type": "uint256"
        },
        {
          "name": "_successRate",
          "type": "uint256"
        },
        {
          "name": "_exp",
          "type": "uint256"
        },
        {
          "name": "_continent",
          "type": "uint256"
        },
        {
          "name": "_currencyReward",
          "type": "uint256"
        }
      ],
      "name": "addNewZone",
      "outputs": [],
      "payable": false,
      "stateMutability": "nonpayable",
      "type": "function"
    }
  ],
  "bytecode": "0x60806040526004600755606460085560006009556014600a556002600b55603c6010553480156200002f57600080fd5b506509184e72a0006040805190810160405280600c81526020017f5761726372616674436f696e000000000000000000000000000000000000000081525060126040805190810160405280600381526020017f574343000000000000000000000000000000000000000000000000000000000081525083600160003373ffffffffffffffffffffffffffffffffffffffff1673ffffffffffffffffffffffffffffffffffffffff1681526020019081526020016000208190555083600081905550826003908051906020019062000108929190620008d2565b5081600460006101000a81548160ff021916908360ff16021790555080600590805190602001906200013c929190620008d2565b505050505033600660006101000a81548173ffffffffffffffffffffffffffffffffffffffff021916908373ffffffffffffffffffffffffffffffffffffffff160217905550600f60c0604051908101604052806040805190810160405280600781526020017f4475726f7461720000000000000000000000000000000000000000000000000081525081526020016001815260200160648152602001606481526020016000815260200160018152509080600181540180825580915050906001820390600052602060002090600602016000909192909190915060008201518160000190805190602001906200023592919062000959565b506020820151816001015560408201518160020155606082015181600301556080820151816004015560a08201518160050155505050600f60c0604051908101604052806040805190810160405280600d81526020017f456c77796e6e20466f726573740000000000000000000000000000000000000081525081526020016001815260200160648152602001606481526020016001815260200160018152509080600181540180825580915050906001820390600052602060002090600602016000909192909190915060008201518160000190805190602001906200031e92919062000959565b506020820151816001015560408201518160020155606082015181600301556080820151816004015560a08201518160050155505050600f60c0604051908101604052806040805190810160405280600781526020017f42617272656e7300000000000000000000000000000000000000000000000000815250815260200160058152602001605a8152602001608c81526020016000815260200160028152509080600181540180825580915050906001820390600052602060002090600602016000909192909190915060008201518160000190805190602001906200040792919062000959565b506020820151816001015560408201518160020155606082015181600301556080820151816004015560a08201518160050155505050600f60c0604051908101604052806040805190810160405280600a81526020017f4c6f6368204d6f64616e00000000000000000000000000000000000000000000815250815260200160058152602001605a8152602001608c8152602001600181526020016002815250908060018154018082558091505090600182039060005260206000209060060201600090919290919091506000820151816000019080519060200190620004f092919062000959565b506020820151816001015560408201518160020155606082015181600301556080820151816004015560a08201518160050155505050600f60c0604051908101604052806040805190810160405280601481526020017f53746f6e6574616c6f6e204d6f756e7461696e730000000000000000000000008152508152602001600a81526020016050815260200160dc8152602001600081526020016003815250908060018154018082558091505090600182039060005260206000209060060201600090919290919091506000820151816000019080519060200190620005d992919062000959565b506020820151816001015560408201518160020155606082015181600301556080820151816004015560a08201518160050155505050600f60c0604051908101604052806040805190810160405280601281526020017f5265647269646765204d6f756e7461696e7300000000000000000000000000008152508152602001600a81526020016050815260200160dc8152602001600181526020016003815250908060018154018082558091505090600182039060005260206000209060060201600090919290919091506000820151816000019080519060200190620006c292919062000959565b506020820151816001015560408201518160020155606082015181600301556080820151816004015560a08201518160050155505050600f60c0604051908101604052806040805190810160405280600981526020017f417368656e76616c6500000000000000000000000000000000000000000000008152508152602001600f8152602001603c81526020016101f48152602001600081526020016004815250908060018154018082558091505090600182039060005260206000209060060201600090919290919091506000820151816000019080519060200190620007ac92919062000959565b506020820151816001015560408201518160020155606082015181600301556080820151816004015560a08201518160050155505050600f60c0604051908101604052806040805190810160405280600881526020017f4475736b776f6f640000000000000000000000000000000000000000000000008152508152602001600f8152602001603c81526020016101f481526020016001815260200160048152509080600181540180825580915050906001820390600052602060002090600602016000909192909190915060008201518160000190805190602001906200089692919062000959565b506020820151816001015560408201518160020155606082015181600301556080820151816004015560a0820151816005015550505062000a08565b828054600181600116156101000203166002900490600052602060002090601f016020900481019282601f106200091557805160ff191683800117855562000946565b8280016001018555821562000946579182015b828111156200094557825182559160200191906001019062000928565b5b509050620009559190620009e0565b5090565b828054600181600116156101000203166002900490600052602060002090601f016020900481019282601f106200099c57805160ff1916838001178555620009cd565b82800160010185558215620009cd579182015b82811115620009cc578251825591602001919060010190620009af565b5b509050620009dc9190620009e0565b5090565b62000a0591905b8082111562000a01576000816000905550600101620009e7565b5090565b90565b61310d8062000a186000396000f30060806040526004361061018b576000357c0100000000000000000000000000000000000000000000000000000000900463ffffffff168063014ef0c61461019057806306fdde03146101e7578063095ea7b31461027757806311ee0ec5146102dc57806313a3d057146103ac57806317ffb736146103d957806318160ddd1461046257806319e7ce8b1461048d57806323b872dd146104fa57806327e235e31461057f578063313ce567146105d65780633b260aa21461060757806341c0e1b5146106325780634810bc59146106495780634c572d18146107185780635c658165146107a157806365df8ce71461081857806370a0823114610843578063715018a61461089a5780638da5cb5b146108b157806395d89b41146109085780639b96eece14610998578063a73e1c73146109ef578063a9059cbb14610a3e578063ad127c8a14610aa3578063dabb053114610b3b578063dd62ed3e14610c0b578063ee25bc8b14610c82578063efef39a114610d1d578063f2fde38b14610d62578063fc7c9bfb14610da5575b600080fd5b34801561019c57600080fd5b506101d1600480360381019080803573ffffffffffffffffffffffffffffffffffffffff169060200190929190505050610dd0565b6040518082815260200191505060405180910390f35b3480156101f357600080fd5b506101fc610de8565b6040518080602001828103825283818151815260200191508051906020019080838360005b8381101561023c578082015181840152602081019050610221565b50505050905090810190601f1680156102695780820380516001836020036101000a031916815260200191505b509250505060405180910390f35b34801561028357600080fd5b506102c2600480360381019080803573ffffffffffffffffffffffffffffffffffffffff16906020019092919080359060200190929190505050610e86565b604051808215151515815260200191505060405180910390f35b3480156102e857600080fd5b5061030760048036038101908080359060200190929190505050610f78565b6040518088815260200180602001878152602001868152602001858152602001848152602001838152602001828103825288818151815260200191508051906020019080838360005b8381101561036b578082015181840152602081019050610350565b50505050905090810190601f1680156103985780820380516001836020036101000a031916815260200191505b509850505050505050505060405180910390f35b3480156103b857600080fd5b506103d7600480360381019080803590602001909291905050506110c7565b005b3480156103e557600080fd5b5061044c600480360381019080803590602001908201803590602001908080601f01602080910402602001604051908101604052809392919081815260200183838082843782019150505050505091929192908035151590602001909291905050506111cd565b6040518082815260200191505060405180910390f35b34801561046e57600080fd5b506104776114b4565b6040518082815260200191505060405180910390f35b34801561049957600080fd5b506104b8600480360381019080803590602001909291905050506114ba565b604051808273ffffffffffffffffffffffffffffffffffffffff1673ffffffffffffffffffffffffffffffffffffffff16815260200191505060405180910390f35b34801561050657600080fd5b50610565600480360381019080803573ffffffffffffffffffffffffffffffffffffffff169060200190929190803573ffffffffffffffffffffffffffffffffffffffff169060200190929190803590602001909291905050506114ed565b604051808215151515815260200191505060405180910390f35b34801561058b57600080fd5b506105c0600480360381019080803573ffffffffffffffffffffffffffffffffffffffff169060200190929190505050611787565b6040518082815260200191505060405180910390f35b3480156105e257600080fd5b506105eb61179f565b604051808260ff1660ff16815260200191505060405180910390f35b34801561061357600080fd5b5061061c6117b2565b6040518082815260200191505060405180910390f35b34801561063e57600080fd5b506106476117bf565b005b34801561065557600080fd5b5061067460048036038101908080359060200190929190505050611856565b60405180806020018781526020018660ff1660ff168152602001858152602001848152602001838152602001828103825288818151815260200191508051906020019080838360005b838110156106d85780820151818401526020810190506106bd565b50505050905090810190601f1680156107055780820380516001836020036101000a031916815260200191505b5097505050505050505060405180910390f35b34801561072457600080fd5b5061078b600480360381019080803590602001908201803590602001908080601f0160208091040260200160405190810160405280939291908181526020018383808284378201915050505050509192919290803515159060200190929190505050611946565b6040518082815260200191505060405180910390f35b3480156107ad57600080fd5b50610802600480360381019080803573ffffffffffffffffffffffffffffffffffffffff169060200190929190803573ffffffffffffffffffffffffffffffffffffffff169060200190929190505050611b78565b6040518082815260200191505060405180910390f35b34801561082457600080fd5b5061082d611b9d565b6040518082815260200191505060405180910390f35b34801561084f57600080fd5b50610884600480360381019080803573ffffffffffffffffffffffffffffffffffffffff169060200190929190505050611baa565b6040518082815260200191505060405180910390f35b3480156108a657600080fd5b506108af611bf3565b005b3480156108bd57600080fd5b506108c6611cf8565b604051808273ffffffffffffffffffffffffffffffffffffffff1673ffffffffffffffffffffffffffffffffffffffff16815260200191505060405180910390f35b34801561091457600080fd5b5061091d611d1e565b6040518080602001828103825283818151815260200191508051906020019080838360005b8381101561095d578082015181840152602081019050610942565b50505050905090810190601f16801561098a5780820380516001836020036101000a031916815260200191505b509250505060405180910390f35b3480156109a457600080fd5b506109d9600480360381019080803573ffffffffffffffffffffffffffffffffffffffff169060200190929190505050611dbc565b6040518082815260200191505060405180910390f35b3480156109fb57600080fd5b50610a246004803603810190808035906020019092919080359060200190929190505050611dce565b604051808215151515815260200191505060405180910390f35b348015610a4a57600080fd5b50610a89600480360381019080803573ffffffffffffffffffffffffffffffffffffffff16906020019092919080359060200190929190505050612272565b604051808215151515815260200191505060405180910390f35b348015610aaf57600080fd5b50610ae4600480360381019080803573ffffffffffffffffffffffffffffffffffffffff1690602001909291905050506123cb565b6040518080602001828103825283818151815260200191508051906020019060200280838360005b83811015610b27578082015181840152602081019050610b0c565b505050509050019250505060405180910390f35b348015610b4757600080fd5b50610b66600480360381019080803590602001909291905050506124f7565b6040518088815260200180602001878152602001868152602001858152602001848152602001838152602001828103825288818151815260200191508051906020019080838360005b83811015610bca578082015181840152602081019050610baf565b50505050905090810190601f168015610bf75780820380516001836020036101000a031916815260200191505b509850505050505050505060405180910390f35b348015610c1757600080fd5b50610c6c600480360381019080803573ffffffffffffffffffffffffffffffffffffffff169060200190929190803573ffffffffffffffffffffffffffffffffffffffff16906020019092919050505061265f565b6040518082815260200191505060405180910390f35b348015610c8e57600080fd5b50610d1b600480360381019080803590602001908201803590602001908080601f016020809104026020016040519081016040528093929190818152602001838380828437820191505050505050919291929080359060200190929190803590602001909291908035906020019092919080359060200190929190803590602001909291905050506126e6565b005b348015610d2957600080fd5b50610d48600480360381019080803590602001909291905050506128ec565b604051808215151515815260200191505060405180910390f35b348015610d6e57600080fd5b50610da3600480360381019080803573ffffffffffffffffffffffffffffffffffffffff169060200190929190505050612921565b005b348015610db157600080fd5b50610dba612989565b6040518082815260200191505060405180910390f35b600e6020528060005260406000206000915090505481565b60038054600181600116156101000203166002900480601f016020809104026020016040519081016040528092919081815260200182805460018160011615610100020316600290048015610e7e5780601f10610e5357610100808354040283529160200191610e7e565b820191906000526020600020905b815481529060010190602001808311610e6157829003601f168201915b505050505081565b600081600260003373ffffffffffffffffffffffffffffffffffffffff1673ffffffffffffffffffffffffffffffffffffffff16815260200190815260200160002060008573ffffffffffffffffffffffffffffffffffffffff1673ffffffffffffffffffffffffffffffffffffffff168152602001908152602001600020819055508273ffffffffffffffffffffffffffffffffffffffff163373ffffffffffffffffffffffffffffffffffffffff167f8c5be1e5ebec7d5bd14f71427d1e84f3dd0314c0f7b2291e5b200ac8c7c3b925846040518082815260200191505060405180910390a36001905092915050565b600060606000806000806000610f8c612fcb565b600f89815481101515610f9b57fe5b906000526020600020906006020160c06040519081016040529081600082018054600181600116156101000203166002900480601f01602080910402602001604051908101604052809291908181526020018280546001816001161561010002031660029004801561104e5780601f106110235761010080835404028352916020019161104e565b820191906000526020600020905b81548152906001019060200180831161103157829003601f168201915b5050505050815260200160018201548152602001600282015481526020016003820154815260200160048201548152602001600582015481525050905088816000015182602001518360400151846060015185608001518660a00151859550975097509750975097509750975050919395979092949650565b600660009054906101000a900473ffffffffffffffffffffffffffffffffffffffff1673ffffffffffffffffffffffffffffffffffffffff163373ffffffffffffffffffffffffffffffffffffffff1614151561112357600080fd5b80600b54141515156111c3576040517f08c379a00000000000000000000000000000000000000000000000000000000081526004018080602001828103825260398152602001807f596f752061726520747279696e6720746f2073657420746865206e657720636f81526020017f737420746f207768617420697420616c7265616479207761730000000000000081525060400191505060405180910390fd5b80600b8190555050565b600080600084601e81511115151561124d576040517f08c379a00000000000000000000000000000000000000000000000000000000081526004018080602001828103825260158152602001807f4e616d65206c656e67746820746f6f206c6f6e6721000000000000000000000081525060200191505060405180910390fd5b6000600e60003373ffffffffffffffffffffffffffffffffffffffff1673ffffffffffffffffffffffffffffffffffffffff168152602001908152602001600020541015151561132b576040517f08c379a000000000000000000000000000000000000000000000000000000000815260040180806020018281038252602f8152602001807f54686973206163636f756e74206861736e27742068616420686973206672656581526020017f206368617261637465722079657421000000000000000000000000000000000081525060400191505060405180910390fd5b600b5461133733611baa565b101515156113d3576040517f08c379a000000000000000000000000000000000000000000000000000000000815260040180806020018281038252602f8152602001807f596f7520646f6e2774206861766520656e6f756768207761726372616674436f81526020017f696e7320746f207075726368617365000000000000000000000000000000000081525060400191505060405180910390fd5b6113de600b546128ec565b5085336040518083805190602001908083835b60208310151561141657805182526020820191506020810190506020830392506113f1565b6001836020036101000a0380198251168184511680821785525050505050509050018273ffffffffffffffffffffffffffffffffffffffff1673ffffffffffffffffffffffffffffffffffffffff166c01000000000000000000000000028152601401925050506040518091039020600190049250600754600a0a8381151561149b57fe5b0691506114a986838761298f565b935050505092915050565b60005481565b600d6020528060005260406000206000915054906101000a900473ffffffffffffffffffffffffffffffffffffffff1681565b600080600260008673ffffffffffffffffffffffffffffffffffffffff1673ffffffffffffffffffffffffffffffffffffffff16815260200190815260200160002060003373ffffffffffffffffffffffffffffffffffffffff1673ffffffffffffffffffffffffffffffffffffffff16815260200190815260200160002054905082600160008773ffffffffffffffffffffffffffffffffffffffff1673ffffffffffffffffffffffffffffffffffffffff16815260200190815260200160002054101580156115be5750828110155b15156115c957600080fd5b82600160008673ffffffffffffffffffffffffffffffffffffffff1673ffffffffffffffffffffffffffffffffffffffff1681526020019081526020016000206000828254019250508190555082600160008773ffffffffffffffffffffffffffffffffffffffff1673ffffffffffffffffffffffffffffffffffffffff168152602001908152602001600020600082825403925050819055507fffffffffffffffffffffffffffffffffffffffffffffffffffffffffffffffff8110156117165782600260008773ffffffffffffffffffffffffffffffffffffffff1673ffffffffffffffffffffffffffffffffffffffff16815260200190815260200160002060003373ffffffffffffffffffffffffffffffffffffffff1673ffffffffffffffffffffffffffffffffffffffff168152602001908152602001600020600082825403925050819055505b8373ffffffffffffffffffffffffffffffffffffffff168573ffffffffffffffffffffffffffffffffffffffff167fddf252ad1be2c89b69c2b068fc378daa952ba7f163c4a11628f55a4df523b3ef856040518082815260200191505060405180910390a360019150509392505050565b60016020528060005260406000206000915090505481565b600460009054906101000a900460ff1681565b6000600f80549050905090565b600660009054906101000a900473ffffffffffffffffffffffffffffffffffffffff1673ffffffffffffffffffffffffffffffffffffffff163373ffffffffffffffffffffffffffffffffffffffff1614151561181b57600080fd5b600660009054906101000a900473ffffffffffffffffffffffffffffffffffffffff1673ffffffffffffffffffffffffffffffffffffffff16ff5b600c8181548110151561186557fe5b9060005260206000209060060201600091509050806000018054600181600116156101000203166002900480601f0160208091040260200160405190810160405280929190818152602001828054600181600116156101000203166002900480156119115780601f106118e657610100808354040283529160200191611911565b820191906000526020600020905b8154815290600101906020018083116118f457829003601f168201915b5050505050908060010154908060020160009054906101000a900460ff16908060030154908060040154908060050154905086565b600080600084601e8151111515156119c6576040517f08c379a00000000000000000000000000000000000000000000000000000000081526004018080602001828103825260158152602001807f4e616d65206c656e67746820746f6f206c6f6e6721000000000000000000000081525060200191505060405180910390fd5b6000600e60003373ffffffffffffffffffffffffffffffffffffffff1673ffffffffffffffffffffffffffffffffffffffff16815260200190815260200160002054141515611aa3576040517f08c379a000000000000000000000000000000000000000000000000000000000815260040180806020018281038252603b8152602001807f4e6f742061206e6577206163636f756e742c20616c726561647920676f74206181526020017f2063686172616374657220746f2074686973206164647265737373000000000081525060400191505060405180910390fd5b85336040518083805190602001908083835b602083101515611ada5780518252602082019150602081019050602083039250611ab5565b6001836020036101000a0380198251168184511680821785525050505050509050018273ffffffffffffffffffffffffffffffffffffffff1673ffffffffffffffffffffffffffffffffffffffff166c01000000000000000000000000028152601401925050506040518091039020600190049250600754600a0a83811515611b5f57fe5b069150611b6d86838761298f565b935050505092915050565b6002602052816000526040600020602052806000526040600020600091509150505481565b6000600c80549050905090565b6000600160008373ffffffffffffffffffffffffffffffffffffffff1673ffffffffffffffffffffffffffffffffffffffff168152602001908152602001600020549050919050565b600660009054906101000a900473ffffffffffffffffffffffffffffffffffffffff1673ffffffffffffffffffffffffffffffffffffffff163373ffffffffffffffffffffffffffffffffffffffff16141515611c4f57600080fd5b600660009054906101000a900473ffffffffffffffffffffffffffffffffffffffff1673ffffffffffffffffffffffffffffffffffffffff167ff8df31144d9c2f0f6b59d69b8b98abd5459d07f2742c4df920b25aae33c6482060405160405180910390a26000600660006101000a81548173ffffffffffffffffffffffffffffffffffffffff021916908373ffffffffffffffffffffffffffffffffffffffff160217905550565b600660009054906101000a900473ffffffffffffffffffffffffffffffffffffffff1681565b60058054600181600116156101000203166002900480601f016020809104026020016040519081016040528092919081815260200182805460018160011615610100020316600290048015611db45780601f10611d8957610100808354040283529160200191611db4565b820191906000526020600020905b815481529060010190602001808311611d9757829003601f168201915b505050505081565b6000611dc782611baa565b9050919050565b6000611dd8612fcb565b60008085600d600082815260200190815260200160002060009054906101000a900473ffffffffffffffffffffffffffffffffffffffff1673ffffffffffffffffffffffffffffffffffffffff163373ffffffffffffffffffffffffffffffffffffffff16141515611ed8576040517f08c379a00000000000000000000000000000000000000000000000000000000081526004018080602001828103825260278152602001807f596f7520617265206e6f7420746865206f776e6572206f66207468697320636881526020017f617261637465720000000000000000000000000000000000000000000000000081525060400191505060405180910390fd5b8642600c82815481101515611ee957fe5b90600052602060002090600602016004015411151515611f71576040517f08c379a00000000000000000000000000000000000000000000000000000000081526004018080602001828103825260188152602001807f436861726163746572206e6f742072656164792079657421000000000000000081525060200191505060405180910390fd5b600f87815481101515611f8057fe5b906000526020600020906006020160c06040519081016040529081600082018054600181600116156101000203166002900480601f0160208091040260200160405190810160405280929190818152602001828054600181600116156101000203166002900480156120335780601f1061200857610100808354040283529160200191612033565b820191906000526020600020905b81548152906001019060200180831161201657829003601f168201915b505050505081526020016001820154815260200160028201548152602001600382015481526020016004820154815260200160058201548152505094508460200151600c8981548110151561208457fe5b906000526020600020906006020160020160009054906101000a900460ff1660ff1610151515612142576040517f08c379a00000000000000000000000000000000000000000000000000000000081526004018080602001828103825260318152602001807f5468652063686172616374657220646f6573206e6f742068617665207468652081526020017f6c6576656c20726571756972656d656e7400000000000000000000000000000081525060400191505060405180910390fd5b6064600960008154809291906001019190505533604051808381526020018273ffffffffffffffffffffffffffffffffffffffff1673ffffffffffffffffffffffffffffffffffffffff166c01000000000000000000000000028152601401925050506040518091039020600190048115156121ba57fe5b069350600092508460400151841115156121f0576121dc888660600151612c8d565b600192506121ee338660a00151612d47565b505b6010544201600c8981548110151561220457fe5b9060005260206000209060060201600401819055507f9200a8d3842b8c4e32bcb017ce87f1c19c3320cad05894df27b6c76d4560a7f48389896040518084151515158152602001838152602001828152602001935050505060405180910390a1829550505050505092915050565b600081600160003373ffffffffffffffffffffffffffffffffffffffff1673ffffffffffffffffffffffffffffffffffffffff16815260200190815260200160002054101515156122c257600080fd5b81600160003373ffffffffffffffffffffffffffffffffffffffff1673ffffffffffffffffffffffffffffffffffffffff1681526020019081526020016000206000828254039250508190555081600160008573ffffffffffffffffffffffffffffffffffffffff1673ffffffffffffffffffffffffffffffffffffffff168152602001908152602001600020600082825401925050819055508273ffffffffffffffffffffffffffffffffffffffff163373ffffffffffffffffffffffffffffffffffffffff167fddf252ad1be2c89b69c2b068fc378daa952ba7f163c4a11628f55a4df523b3ef846040518082815260200191505060405180910390a36001905092915050565b606080600080600e60008673ffffffffffffffffffffffffffffffffffffffff1673ffffffffffffffffffffffffffffffffffffffff1681526020019081526020016000205460405190808252806020026020018201604052801561243f5781602001602082028038833980820191505090505b509250600090505b600c805490508110156124ec578473ffffffffffffffffffffffffffffffffffffffff16600d600083815260200190815260200160002060009054906101000a900473ffffffffffffffffffffffffffffffffffffffff1673ffffffffffffffffffffffffffffffffffffffff1614156124df578083838060010194508151811015156124d057fe5b90602001906020020181815250505b8080600101915050612447565b829350505050919050565b60006060600080600080600061250b613002565b600c8981548110151561251a57fe5b906000526020600020906006020160c06040519081016040529081600082018054600181600116156101000203166002900480601f0160208091040260200160405190810160405280929190818152602001828054600181600116156101000203166002900480156125cd5780601f106125a2576101008083540402835291602001916125cd565b820191906000526020600020905b8154815290600101906020018083116125b057829003601f168201915b50505050508152602001600182015481526020016002820160009054906101000a900460ff1660ff1660ff168152602001600382015481526020016004820154815260200160058201548152505090508881600001518260200151836040015184606001518560a0015186608001518595508360ff169350975097509750975097509750975050919395979092949650565b6000600260008473ffffffffffffffffffffffffffffffffffffffff1673ffffffffffffffffffffffffffffffffffffffff16815260200190815260200160002060008373ffffffffffffffffffffffffffffffffffffffff1673ffffffffffffffffffffffffffffffffffffffff16815260200190815260200160002054905092915050565b600660009054906101000a900473ffffffffffffffffffffffffffffffffffffffff1673ffffffffffffffffffffffffffffffffffffffff163373ffffffffffffffffffffffffffffffffffffffff1614151561274257600080fd5b85601e8151111515156127bd576040517f08c379a00000000000000000000000000000000000000000000000000000000081526004018080602001828103825260158152602001807f4e616d65206c656e67746820746f6f206c6f6e6721000000000000000000000081525060200191505060405180910390fd5b60648511151515612836576040517f08c379a000000000000000000000000000000000000000000000000000000000815260040180806020018281038252601c8152602001807f54686520737563636573732072617465206973206f766572203130300000000081525060200191505060405180910390fd5b600f60c060405190810160405280898152602001888152602001878152602001868152602001858152602001848152509080600181540180825580915050906001820390600052602060002090600602016000909192909190915060008201518160000190805190602001906128ad92919061303c565b506020820151816001015560408201518160020155606082015181600301556080820151816004015560a0820151816005015550505050505050505050565b600061291a600660009054906101000a900473ffffffffffffffffffffffffffffffffffffffff1683612272565b9050919050565b600660009054906101000a900473ffffffffffffffffffffffffffffffffffffffff1673ffffffffffffffffffffffffffffffffffffffff163373ffffffffffffffffffffffffffffffffffffffff1614151561297d57600080fd5b61298681612ecf565b50565b600b5481565b600080600085601e815111151515612a0f576040517f08c379a00000000000000000000000000000000000000000000000000000000081526004018080602001828103825260158152602001807f4e616d65206c656e67746820746f6f206c6f6e6721000000000000000000000081525060200191505060405180910390fd5b8592508415612a26576001600a8402019250612a2d565b600a830292505b600c60c060405190810160405280898152602001858152602001600160ff16815260200160008152602001428152602001600854815250908060018154018082558091505090600182039060005260206000209060060201600090919290919091506000820151816000019080519060200190612aab92919061303c565b506020820151816001015560408201518160020160006101000a81548160ff021916908360ff160217905550606082015181600301556080820151816004015560a082015181600501555050915033600d600060018503815260200190815260200160002060006101000a81548173ffffffffffffffffffffffffffffffffffffffff021916908373ffffffffffffffffffffffffffffffffffffffff160217905550600e60003373ffffffffffffffffffffffffffffffffffffffff1673ffffffffffffffffffffffffffffffffffffffff168152602001908152602001600020600081548092919060010191905055507f5630adcc97969060af381c099052ae40588c1a027a248ecb2488390718cc628a33838986604051808573ffffffffffffffffffffffffffffffffffffffff1673ffffffffffffffffffffffffffffffffffffffff16815260200184815260200180602001838152602001828103825284818151815260200191508051906020019080838360005b83811015612c40578082015181840152602081019050612c25565b50505050905090810190601f168015612c6d5780820380516001836020036101000a031916815260200191505b509550505050505060405180910390a16001820393505050509392505050565b6000600c83815481101515612c9e57fe5b9060005260206000209060060201905081816003016000828254019250508190555080600501548160030154101515612d4257806005015481600301600082825403925050819055506064600a54826005015402811515612cfb57fe5b04816005016000828254019250508190555080600201600081819054906101000a900460ff168092919060010191906101000a81548160ff021916908360ff160217905550505b505050565b600080612d75600660009054906101000a900473ffffffffffffffffffffffffffffffffffffffff16611baa565b10151515612d8257600080fd5b8160016000600660009054906101000a900473ffffffffffffffffffffffffffffffffffffffff1673ffffffffffffffffffffffffffffffffffffffff1673ffffffffffffffffffffffffffffffffffffffff1681526020019081526020016000206000828254039250508190555081600160008573ffffffffffffffffffffffffffffffffffffffff1673ffffffffffffffffffffffffffffffffffffffff168152602001908152602001600020600082825401925050819055503373ffffffffffffffffffffffffffffffffffffffff16600660009054906101000a900473ffffffffffffffffffffffffffffffffffffffff1673ffffffffffffffffffffffffffffffffffffffff167fddf252ad1be2c89b69c2b068fc378daa952ba7f163c4a11628f55a4df523b3ef846040518082815260200191505060405180910390a36001905092915050565b600073ffffffffffffffffffffffffffffffffffffffff168173ffffffffffffffffffffffffffffffffffffffff1614151515612f0b57600080fd5b8073ffffffffffffffffffffffffffffffffffffffff16600660009054906101000a900473ffffffffffffffffffffffffffffffffffffffff1673ffffffffffffffffffffffffffffffffffffffff167f8be0079c531659141344cd1fd0a4f28419497f9722a3daafe3b4186f6b6457e060405160405180910390a380600660006101000a81548173ffffffffffffffffffffffffffffffffffffffff021916908373ffffffffffffffffffffffffffffffffffffffff16021790555050565b60c0604051908101604052806060815260200160008152602001600081526020016000815260200160008152602001600081525090565b60c0604051908101604052806060815260200160008152602001600060ff1681526020016000815260200160008152602001600081525090565b828054600181600116156101000203166002900490600052602060002090601f016020900481019282601f1061307d57805160ff19168380011785556130ab565b828001600101855582156130ab579182015b828111156130aa57825182559160200191906001019061308f565b5b5090506130b891906130bc565b5090565b6130de91905b808211156130da5760008160009055506001016130c2565b5090565b905600a165627a7a72305820c74cf7b7588560ac9511faf5517f0e3067bde4ccca5184c4bfc93f37ffe8fd260029",
  "source": "pragma solidity ^0.4.24;\r\nimport \"./Warcraft.sol\";\r\n\r\ncontract WarcraftZones is Warcraft{\r\n    \r\n    Zone[] zones;\r\n    uint zoneDowntime = 60 seconds;\r\n    \r\n    struct Zone{\r\n        string name;\r\n        uint lvlRequirement;\r\n        uint successRate;\r\n        uint exp;\r\n        //continent : 0 => Kalimdor, 1 => Eastern kingdoms\r\n        uint continent;\r\n        // cryptoCoin reward\r\n        uint currencyReward;\r\n    } \r\n\r\n    /** @dev Indicates when quest has been done.\r\n    * @param _success returns weather or not the quest succeeded.\r\n    * @param _charId Id of the character doing the quest.\r\n    * @param _questId Id of the quest being quested.\r\n    */\r\n    event questDone(bool _success,uint _charId,uint _questId);\r\n\r\n\r\n    /** @dev The contract's constructor. Generates the zones for the game.\r\n      */\r\n    constructor() public{\r\n        zones.push(Zone(\"Durotar\",1,100,100,0,1));\r\n        zones.push(Zone(\"Elwynn Forest\",1,100,100,1,1));\r\n        zones.push(Zone(\"Barrens\",5,90,140,0,2));\r\n        zones.push(Zone(\"Loch Modan\",5,90,140,1,2));\r\n        zones.push(Zone(\"Stonetalon Mountains\",10,80,220,0,3));\r\n        zones.push(Zone(\"Redridge Mountains\",10,80,220,1,3));\r\n        zones.push(Zone(\"Ashenvale\",15,60,500,0,4));\r\n        zones.push(Zone(\"Duskwood\",15,60,500,1,4));\r\n    }\r\n    \r\n    /** @dev Function handling the gain of experience of a character.\r\n      * @param _charId The character gaining the experience.\r\n      * @param _exp The amount of experience the character is gaining.\r\n      */\r\n    function getExp(uint _charId,uint _exp) internal{\r\n        Character storage char = characters[_charId];\r\n        char.exp += _exp;\r\n        if(char.exp >= char.toNextLvl){\r\n            char.exp -= char.toNextLvl;\r\n            char.toNextLvl += char.toNextLvl*expRate/100;\r\n            char.lvl++;\r\n        }\r\n    }\r\n    \r\n    /** @dev Makes the character(_charId) quest in a zone.\r\n      * @param _charId The character doing the quest.\r\n      * @param _zoneId The Id of the zone the character will quest in.\r\n      * @return bool : Returns the success of the quest.\r\n      */\r\n    function questing(uint _charId, uint _zoneId) public onlyCharacterOwner(_charId) isReady(_charId) returns(bool) {\r\n        Zone memory zone = zones[_zoneId];\r\n        require(characters[_charId].lvl >= zone.lvlRequirement, \"The character does not have the level requirement\");\r\n        uint rand = uint(keccak256(randNonce++,msg.sender))%100;\r\n        bool success = false;\r\n        if(rand <= zone.successRate){\r\n            getExp(_charId,zone.exp);\r\n            success = true;\r\n            giveToken(msg.sender,zone.currencyReward);\r\n        }\r\n        characters[_charId].ready = now + zoneDowntime;\r\n        emit questDone(success,_charId,_zoneId);\r\n        return success;\r\n    }\r\n\r\n    /** @dev Get's the zone's information.\r\n      * @param _id The zone's Id.\r\n      * @return id : the zone's Id.\r\n      * @return name : the zone's name.\r\n      * @return lvlReq : the level required to quest in the zone.\r\n      * @return successRate : the zone's success rate.\r\n      * @return exp : the experience gained when questing in the zone.\r\n      * @return _continent : the quest's continent location.\r\n      * @return _currencyReward : the quest's reward.\r\n      */\r\n    function getZone(uint _id) public view returns(\r\n    uint id,string name,uint lvlReq,uint successRate,uint exp,uint continent, uint currencyReward){\r\n        Zone memory zone = zones[_id];\r\n        return (_id,zone.name,zone.lvlRequirement,zone.successRate,zone.exp,zone.continent,zone.currencyReward);\r\n    }\r\n\r\n    /** @dev Returns the amount of zones in the game.\r\n      * @return length : the amount of zones.\r\n      */\r\n    function getZoneCount() public view returns(uint length){\r\n        return zones.length;\r\n    }\r\n\r\n    /** @dev Adds a new zone to the game. (ONLY OWNER)\r\n      * @param _name : the zone's name.\r\n      * @param _lvlReq : the level required to quest in the zone.\r\n      * @param _successRate : the zone's success rate.\r\n      * @param _exp : the experience gained when questing in the zone.\r\n      * @param _continent : the quest's continent location.\r\n      * @param _currencyReward : the quest's reward.\r\n      */\r\n    function addNewZone(string _name, uint _lvlReq, uint _successRate, uint _exp, uint _continent, uint _currencyReward) \r\n    public onlyOwner() checkNameSize(_name){\r\n        require(_successRate <= 100,\"The success rate is over 100\");\r\n        zones.push(Zone(_name,_lvlReq,_successRate,_exp,_continent,_currencyReward));\r\n    }\r\n    \r\n}",
  "sourcePath": "C:\\Users\\Louis\\Documents\\projects\\crypto-warcraft\\contracts\\WarcraftZones.sol",
  "compiler": {
    "name": "solc",
    "version": "0.4.24+commit.e67f0147.Emscripten.clang"
  },
  "schemaVersion": "2.0.1",
  "updatedAt": "2018-08-24T21:25:24.185Z"
}